:020000040800F2
:1000000000000320F9140008211100082311000842
:100010002511000827110008291100080000000020
:100020000000000000000000000000002B1100088C
:100030002D110008000000002F11000831110008E8
:100040004915000849150008491500084915000818
:100050004915000849150008491500084915000808
:10006000391100084915000849150008491500080C
:1000700049150008491500084915000849150008E8
:1000800049150008491500084915000849150008D8
:1000900049150008491500084915000849150008C8
:1000A00049150008451100084915000849150008C0
:1000B00049150008491500084915000849150008A8
:1000C0004915000849150008491500084915000898
:1000D0004915000849150008491500084915000888
:1000E0004915000849150008491500084915000878
:1000F0004915000849150008491500084915000868
:100100004915000849150008491500084915000857
:10011000491500084915000855110008491500083F
:100120004915000849150008491500084915000837
:100130004915000849150008491500084915000827
:100140004915000849150008491500084915000817
:1001500049150008491500084915000865110008EF
:1001600049150008491500084915000849150008F7
:10017000491500084915000849150008000000004D
:1001800049150008491500084915000849150008D7
:1001900049150008491500084915000849150008C7
:0C01A000000000000000000049150008ED
:1001B00010B5054C237833B9044B13B10448AFF3A1
:1001C00000800123237010BDC00600200000000045
:1001D000087C000808B5034B1BB103490348AFF383
:1001E000008008BD00000000C4060020087C000854
:1001F00053B94AB9002908BF00281CBF4FF0FF318E
:100200004FF0FF3000F06AB9ADF1080C6DE904CE93
:1002100000F006F8DDF804E0DDE9022304B07047E1
:100220002DE9F047089D0C46002B4ED194468C4595
:100230008646B2FA82F262D94AB1C2F120039140F5
:1002400020FA03F30CFA02FC194300FA02FE4FEA0B
:100250001C471FFA8CF6B1FBF7F44FEA1E4307FB6D
:10026000141143EA014304FB06F199420AD91CEB3D
:10027000030304F1FF3080F01281994240F20F81B4
:10028000023C6344591A1FFA8EF3B1FBF7F007FBE7
:10029000101143EA014300FB06F69E420AD91CEB0B
:1002A000030300F1FF3180F0FC809E4240F2F980B0
:1002B000634402389B1B40EA044000211DB1D34037
:1002C0000022C5E90032BDE8F0878B4205D90DB1A7
:1002D000C5E9000100210846F5E7B3FA83F10029DA
:1002E00046D1A34202D39042C0F0F080861A64EB5C
:1002F00003030120002DE6D0C5E90063E3E7002AEF
:1003000040F09080A1EB0C044FEA1C481FFA8CF7D8
:100310000121B4FBF8F64FEA1E4308FB164443EAFA
:10032000044307FB06F0984208D91CEB030306F1CF
:10033000FF3402D2984200F2CD8026461C1A1FFAE2
:100340008EF3B4FBF8F008FB104443EA044300FBCF
:1003500007F79F4208D91CEB030300F1FF3402D2D8
:100360009F4200F2B0802046DB1B40EA0640A5E732
:10037000C1F120068B4022FA06F71F4320FA06FC43
:1003800004FA01F343EA0C03F44000FA01F8380CD4
:100390004FEA1349B4FBF0FE1FFA87FC00FB1E4432
:1003A00049EA04440EFB0CF9A14502FA01F20AD90C
:1003B0003C190EF1FF3A80F08480A14540F2818023
:1003C000AEF1020E3C44A4EB09041FFA83F9B4FB1E
:1003D000F0F300FB134449EA044403FB0CFCA4457E
:1003E00007D93C1903F1FF3067D2A44565D9023B18
:1003F0003C4443EA0E40A0FB0293A4EB0C049C4255
:10040000CE469C4651D34ED055B1B8EB0E0364EBAB
:100410000C0404FA06F6CB401E43CC40C5E9006448
:10042000002150E7C2F1200320FA03F10CFA02FC8C
:1004300024FA03F394400C434FEA1C4800FA02FEEE
:100440001FFA8CF7B3FBF8F008FB1031230C43EADA
:10045000014300FB07F1994208D91CEB030300F1AB
:10046000FF362CD299422AD9023863445B1AA4B2CF
:10047000B3FBF8F108FB113344EA034401FB07F333
:10048000A34208D91CEB040401F1FF3613D2A342A6
:1004900011D902396444E41A41EA004139E70446BB
:1004A000F0E6084606E7C845AED2B9EB020E63EBAC
:1004B000070C0138A8E73146EDE7034699E73046D7
:1004C000D4E7D6467FE7634402384DE70646234625
:1004D00008460FE7023E634430E700BF704700BFA5
:1004E000034613F8012B002AFBD1181A0138704774
:1004F00001F0FF01102A2BDB10F0070F08D010F8D5
:10050000013B013A8B422DD010F0070F42B3F6D1D8
:10051000F0B441EA012141EA014122F007047FF0F1
:1005200000070023F0E80256083C85EA010586EA48
:10053000010685FA47F5A3FA87F586FA47F6A5FA84
:1005400087F68EB9EED1F0BC01F0FF0102F0070290
:1005500032B110F8013B013A83EA010313B1F8D13B
:100560000020704701387047002D06BF354603381C
:10057000073815F0010F07D1013015F4807F02BF55
:10058000013015F4C03F0130F0BC0138704700BFA6
:1005900081F0004102E000BF83F0004330B54FEA34
:1005A00041044FEA430594EA050F08BF90EA020FA1
:1005B0001FBF54EA000C55EA020C7FEA645C7FEA34
:1005C000655C00F0E2804FEA5454D4EB5555B8BF57
:1005D0006D420CDD2C4480EA020281EA030382EAC8
:1005E000000083EA010180EA020281EA0303362D5A
:1005F00088BF30BD11F0004F4FEA01314FF4801C2D
:100600004CEA113102D0404261EB410113F0004F3E
:100610004FEA03334CEA133302D0524263EB4303F5
:1006200094EA050F00F0A780A4F10104D5F1200E93
:100630000DDB02FA0EFC22FA05F2801841F10001EE
:1006400003FA0EF2801843FA05F359410EE0A5F1C2
:1006500020050EF1200E012A03FA0EFC28BF4CF0F3
:10066000020C43FA05F3C01851EBE37101F00045A9
:1006700007D54FF0000EDCF1000C7EEB00006EEBB6
:100680000101B1F5801F1BD3B1F5001F0CD3490840
:100690005FEA30004FEA3C0C04F101044FEA445297
:1006A00012F5800F80F09A80BCF1004F08BF5FEA1E
:1006B000500C50F1000041EB045141EA050130BDFE
:1006C0005FEA4C0C404141EB0101013C28BFB1F510
:1006D000801FE9D291F0000F04BF01460020B1FA5B
:1006E00081F308BF2033A3F10B03B3F120020CDA2E
:1006F0000C3208DD02F1140CC2F10C0201FA0CF00C
:1007000021FA02F10CE002F11402D8BFC2F1200C70
:1007100001FA02F120FA0CFCDCBF41EA0C01904026
:10072000E41AA2BF01EB0451294330BD6FEA04046F
:100730001F3C1CDA0C340EDC04F11404C4F120025A
:1007400020FA04F001FA02F340EA030021FA04F36C
:1007500045EA030130BDC4F10C04C4F1200220FAC3
:1007600002F001FA04F340EA0300294630BD21FA01
:1007700004F0294630BD94F0000F83F4801306BFC7
:1007800081F480110134013D4EE77FEA645C18BFBB
:100790007FEA655C29D094EA050F08BF90EA020F52
:1007A00005D054EA000C04BF1946104630BD91EA4A
:1007B000030F1EBF0021002030BD5FEA545C05D14D
:1007C0004000494128BF41F0004130BD14F580048C
:1007D0003CBF01F5801130BD01F0004545F0FE4100
:1007E00041F470014FF0000030BD7FEA645C1ABF35
:1007F000194610467FEA655C1CBF0B46024650EA6C
:10080000013406BF52EA033591EA030F41F4002197
:1008100030BD00BF90F0000F04BF0021704730B51D
:100820004FF4806404F132044FF000054FF00001F2
:1008300050E700BF90F0000F04BF0021704730B5B3
:100840004FF4806404F1320410F0004548BF404288
:100850004FF000013EE700BF42004FEAE2014FEADD
:1008600031014FEA02701FBF12F07F4393F07F4FB8
:1008700081F06051704732F07F4208BF704793F0BB
:100880007F4F04BF41F40021704730B54FF46074CE
:1008900001F0004521F000411CE700BF50EA0102D1
:1008A00008BF704730B54FF000050AE050EA01027A
:1008B00008BF704730B511F0004502D5404261EBEA
:1008C00041014FF4806404F132045FEA915C3FF42B
:1008D000D8AE4FF003025FEADC0C18BF03325FEAC8
:1008E000DC0C18BF033202EBDC02C2F1200300FA79
:1008F00003FC20FA02F001FA03FE40EA0E0021FA9E
:1009000002F11444BDE600BF70B54FF0FF0C4CF48B
:10091000E06C1CEA11541DBF1CEA135594EA0C0F3D
:1009200095EA0C0F00F0DEF82C4481EA030621EA78
:100930004C5123EA4C5350EA013518BF52EA0335B3
:1009400041F4801143F4801338D0A0FB02CE4FF065
:100950000005E1FB02E506F00042E0FB03E54FF095
:100960000006E1FB03569CF0000F18BF4EF0010E8D
:10097000A4F1FF04B6F5007F64F5407404D25FEA89
:100980004E0E6D4146EB060642EAC62141EA55513C
:100990004FEAC52040EA5E504FEACE2EB4F1FD0C7E
:1009A00088BFBCF5E06F1ED8BEF1004F08BF5FEAFC
:1009B000500E50F1000041EB045170BD06F00046AE
:1009C00046EA010140EA020081EA0301B4EB5C045B
:1009D000C2BFD4EB0C0541EA045170BD41F4801153
:1009E0004FF0000E013C00F3AB8014F1360FDEBF78
:1009F000002001F0004170BDC4F10004203C35DA54
:100A00000C341BDC04F11404C4F1200500FA05F3D6
:100A100020FA04F001FA05F240EA020001F0004277
:100A200021F0004110EBD37021FA04F642EB0601ED
:100A30005EEA430E08BF20EAD37070BDC4F10C0417
:100A4000C4F1200500FA04F320FA05F001FA04F2DB
:100A500040EA020001F0004110EBD37041F10001C7
:100A60005EEA430E08BF20EAD37070BDC4F12005D2
:100A700000FA05F24EEA020E20FA04F301FA05F23A
:100A800043EA020321FA04F001F0004121FA04F2E2
:100A900020EA020000EBD3705EEA430E08BF20EAB2
:100AA000D37070BD94F0000F0FD101F000464000EC
:100AB00041EB010111F4801F08BF013CF7D041EA6E
:100AC000060195F0000F18BF704703F00046520072
:100AD00043EB030313F4801F08BF013DF7D043EA43
:100AE0000603704794EA0C0F0CEA135518BF95EAF9
:100AF0000C0F0CD050EA410618BF52EA4306D1D180
:100B000081EA030101F000414FF0000070BD50EA9E
:100B1000410606BF1046194652EA430619D094EA28
:100B20000C0F02D150EA013613D195EA0C0F05D112
:100B300052EA03361CBF104619460AD181EA030166
:100B400001F0004141F0FE4141F470014FF000001E
:100B500070BD41F0FE4141F4780170BD70B54FF0B9
:100B6000FF0C4CF4E06C1CEA11541DBF1CEA135539
:100B700094EA0C0F95EA0C0F00F0A7F8A4EB05041B
:100B800081EA030E52EA03354FEA013100F0888012
:100B90004FEA03334FF0805545EA131343EA1263DB
:100BA0004FEA022245EA111545EA10654FEA002690
:100BB0000EF000419D4208BF964244F1FD0404F549
:100BC000407402D25B084FEA3202B61A65EB0305A5
:100BD0005B084FEA32024FF480104FF4002CB6EB62
:100BE000020E75EB030E22BFB61A754640EA0C00E2
:100BF0005B084FEA3202B6EB020E75EB030E22BF22
:100C0000B61A754640EA5C005B084FEA3202B6EB62
:100C1000020E75EB030E22BFB61A754640EA9C0021
:100C20005B084FEA3202B6EB020E75EB030E22BFF1
:100C3000B61A754640EADC0055EA060E18D04FEAAF
:100C4000051545EA16754FEA06164FEAC30343EA4F
:100C500052734FEAC2025FEA1C1CC0D111F4801F1C
:100C60000BD141EA00014FF000004FF0004CB6E715
:100C700011F4801F04BF01430020B4F1FD0C88BFB4
:100C8000BCF5E06F3FF6AFAEB5EB030C04BFB6EBBF
:100C9000020C5FEA500C50F1000041EB045170BDB2
:100CA0000EF0004E4EEA113114EB5C04C2BFD4EBDF
:100CB0000C0541EA045170BD41F480114FF0000E63
:100CC000013C90E645EA060E8DE60CEA135594EADF
:100CD0000C0F08BF95EA0C0F3FF43BAF94EA0C0FE2
:100CE0000AD150EA01347FF434AF95EA0C0F7FF457
:100CF00025AF104619462CE795EA0C0F06D152EAAB
:100D000003353FF4FDAE1046194622E750EA41068E
:100D100018BF52EA43067FF4C5AE50EA41047FF49F
:100D20000DAF52EA43057FF4EBAE12E74FF0FF3C04
:100D300006E000BF4FF0010C02E000BF4FF0010CD5
:100D40004DF804CD4FEA410C7FEA6C5C4FEA430C4E
:100D500018BF7FEA6C5C1BD001B050EA410C0CBF9D
:100D600052EA430C91EA030F02BF90EA020F0020FF
:100D7000704710F1000F91EA030F58BF994208BF66
:100D800090422CBFD8176FEAE37040F00100704723
:100D90004FEA410C7FEA6C5C02D150EA013C07D17A
:100DA0004FEA430C7FEA6C5CD6D152EA033CD3D0C5
:100DB0005DF8040B704700BF8446104662468C46BF
:100DC0001946634600E000BF01B5FFF7B7FF0028F2
:100DD00048BF10F1000F01BD4DF808EDFFF7F4FF1B
:100DE0000CBF012000205DF808FB00BF4DF808EDA6
:100DF000FFF7EAFF34BF012000205DF808FB00BFC9
:100E00004DF808EDFFF7E0FF94BF012000205DF8EA
:100E100008FB00BF4DF808EDFFF7CEFF94BF01209F
:100E200000205DF808FB00BF4DF808EDFFF7C4FF98
:100E300034BF012000205DF808FB00BF4FEA410CE1
:100E40007FEA6C5C02D150EA013C0AD14FEA430CC4
:100E50007FEA6C5C02D152EA033C02D14FF0000001
:100E600070474FF0010070474FEA410212F500123F
:100E700015D211D56FF47873B3EB625212D94FEAE1
:100E8000C12343F0004343EA505311F0004F23FACB
:100E900002F018BF404270474FF00000704750EA20
:100EA000013005D111F0004008BF6FF000407047DD
:100EB0004FF00000704700BF02680F4B1B689A425A
:100EC00000D0704730B58FB00C4D2A460C4901A8B0
:100ED00002F054FA01A8FFF703FB074C4FF6FF732B
:100EE00082B201A9204601F026FF012229462046B0
:100EF00002F06FF90FB030BD74070020DC0600204F
:100F0000207C000870B58CB00024079408940994E4
:100F10000A940B940194314B1A6B42F040021A630D
:100F20001A6B02F040020192019A02941A6B42F08D
:100F300001021A631A6B02F001020292029A0394F0
:100F40001A6B42F080021A631A6B02F0800203925D
:100F5000039A04941A6B42F002021A631A6B02F0AD
:100F600002020492049A05941A6B42F010021A636A
:100F70001A6B02F010020592059A06941A6B42F061
:100F800020021A631B6B03F020030693069B144D8B
:100F900022464FF48041284600F00AFD04230793BF
:100FA0004FF4041308930126099607A90D4800F091
:100FB000F9FB4FF480430793089609940A9407A914
:100FC000284600F0EFFB22462146082000F064FB93
:100FD000082000F071FB0CB070BD00BF003802406B
:100FE000001402400004024072B6FEE700B595B05E
:100FF0003022002108A802F024FA0023039304936E
:101000000593069307930193224A116C41F0805196
:101010001164126C02F080520192019A02931E4AEE
:10102000116841F440411160126802F4404202929A
:10103000029A0222089201210B9110210C910E922A
:101040000F9308231093B423119312920423139344
:1010500008A800F001FDB0B900F0C0FCA8B90F234A
:10106000039302230493002305934FF4A0530693A4
:101070004FF480530793052103A800F03DFF30B9DA
:1010800015B05DF804FBFFF7AFFFFFF7ADFFFFF70B
:10109000ABFF00BF003802400070004008B500F010
:1010A0007BFAFFF7A3FFFFF72DFF00F053F900F0E5
:1010B000C1F800F0C7F9084C204601F0B9F807481C
:1010C00001F0B6F80421204601F0B0FB01220449EA
:1010D000044802F07EF8FEE72C070020E40600201A
:1010E000DC0600207407002082B0002100910B4B29
:1010F0005A6C42F480425A645A6C02F48042009264
:10110000009A01911A6C42F080521A641B6C03F031
:1011100080530193019B02B0704700BF003802402A
:10112000FEE7FEE7FEE7FEE7FEE770477047704721
:1011300008B500F04BFA08BD08B5042000F040FCEB
:1011400008BD000008B5024801F0BCF808BD00BFAA
:101150002C07002008B5024801F0B4F808BD00BF14
:10116000E406002008B5024801F0D6FE08BD00BF25
:10117000740700200120704708B502F0B1F916236A
:1011800003604FF0FF3008BD08B54FF0FF31FFF7A7
:10119000F3FFFEE770B50C461646002506E0AFF3F8
:1011A0000080214601F8010B01350C46B542F6DB03
:1011B000304670BD70B50C461646002504E014F8A4
:1011C000010BAFF300800135B542F8DB304670BD4E
:1011D0004FF0FF3070474FF400534B6000207047D2
:1011E000012070470020704710B503460C4A0D4996
:1011F0000D48006840B10C4800680344521A9342FD
:1012000006D8094A136010BD0748084C0460F2E78D
:1012100002F066F90C2303604FF0FF30F3E700BFE4
:101220000000032000040000E0060020D00A002097
:101230007047000000B583B00023009301930F486E
:101240000F4A026047F22F524260836041F26F7290
:10125000C260836101F052F950B9002300930193F9
:101260006946064801F09CFB28B903B05DF804FB11
:10127000FFF7BAFEF1E7FFF7B7FEF6E7E406002056
:101280000010004000B583B00368184A934205D0AF
:10129000174A934216D003B05DF804FB0021009179
:1012A000144B5A6C42F001025A645B6C03F0010368
:1012B0000093009B0A46192000F0EEF9192000F077
:1012C000FBF9E8E7002101910A4B1A6C42F0100289
:1012D0001A641B6C03F010030193019B0A4636202D
:1012E00000F0DAF9362000F0E7F9D4E70000014019
:1012F000001000400038024000B587B00023019381
:10130000029303930493059302680F4B9A4202D011
:1013100007B05DF804FB002300930C4B1A6B42F0FE
:1013200010021A631B6B03F010030093009B4FF431
:1013300000630193022302930123059301A904484A
:1013400000F030FAE4E700BF00000140003802403E
:101350000010024010B596B0002412941394149417
:1013600015941094119409940A940B940C940D9470
:101370000E940F942022214601A802F062F82F4813
:101380002F4B036047F22F534360846041F26F7329
:10139000C36004614461846101F0B0F800283BD16E
:1013A0004FF48053129312A9244801F0B1F9002898
:1013B00035D1224801F0CEF8002833D10023109314
:1013C000119310A91D4801F0EBFA00282DD16023DC
:1013D000099340F6B8330A9300230B930C930D93B3
:1013E0000E930F93042209A9144801F017F9F8B9D4
:1013F0000023019302930393049305934FF4005247
:101400000692089301A90D4801F010FB98B90B480A
:10141000FFF772FF16B010BDFFF7E6FDC0E7FFF75C
:10142000E3FDC6E7FFF7E0FDC8E7FFF7DDFDCEE728
:10143000FFF7DAFDDCE7FFF7D7FDE8E72C07002030
:101440000000014008B50A480A4B03604FF4E1333D
:10145000436000238360C36003610C2242618361A7
:10146000C36101F038FC00B908BDFFF7BDFDFBE723
:10147000740700200014014010B588B000230393C6
:1014800004930593069307930268194B9A4201D07F
:1014900008B010BD0024019403F592335A6C42F059
:1014A00020025A645A6C02F020020192019A0294BE
:1014B0001A6B42F040021A631B6B03F04003029365
:1014C000029B4FF484430393022304930323069364
:1014D0000823079303A9074800F064F92246214630
:1014E000472000F0D9F8472000F0E6F8D0E700BF29
:1014F0000014014000180240DFF834D0FFF798FED6
:101500000C480D490D4A002302E0D458C45004335E
:10151000C4188C42F9D30A4A0A4C002301E0136034
:101520000432A242FBD301F0E1FFFFF7B7FD7047A1
:101530000000032000000020C0060020E47F000817
:10154000C0060020CC0A0020FEE7000010B50446CB
:101550000E4B1A784FF47A73B3FBF2F30C4A10680F
:10156000B0FBF3F000F0ACF868B90F2C01D9012002
:101570000AE0002221464FF0FF3000F08DF8054BC5
:101580001C60002000E0012010BD00BF040000200E
:10159000000000200800002008B50B4B1A6842F438
:1015A00000721A601A6842F480621A601A6842F483
:1015B00080721A60032000F05DF80F20FFF7C6FF6D
:1015C000FFF792FD002008BD003C0240034A11686D
:1015D000034B1B780B441360704700BFBC0700200F
:1015E00004000020014B1868704700BFBC070020B2
:1015F000002807DB00F01F02400901239340024A44
:1016000042F82030704700BF00E100E0002808DB0E
:101610000901C9B200F1604000F5614080F8001393
:10162000704700F00F000901C9B2014B195470470F
:1016300014ED00E000B500F00700C0F1070CBCF1AC
:10164000040F28BF4FF0040C031D062B0FD9C31E37
:101650004FF0FF3E0EFA0CF021EA000199400EFA1D
:1016600003FE22EA0E0241EA02005DF804FB0023B9
:10167000EEE70000074AD36823F4E0631B041B0C69
:10168000000200F4E060034343F0BF6343F400331F
:10169000D360704700ED00E010B50446054BD868F4
:1016A000C0F30220FFF7C6FF01462046FFF7AEFF5A
:1016B00010BD00BF00ED00E008B5FFF799FF08BDC1
:1016C0000138B0F1807F0BD24FF0E0235861054A1A
:1016D000F02182F823100020986107221A617047D8
:1016E0000120704700ED00E070B50446866DFFF7FD
:1016F00079FF94F83530DBB2022B06D08023636586
:10170000002384F83430012070BD05462268136838
:1017100023F0160313602268536923F0800353619A
:10172000236CE3B12268136823F008031360226876
:10173000136823F00103136023681B6813F0010F83
:1017400011D0FFF74FFF431B052BF5D9202363650D
:10175000032084F83500002384F83430D4E7A36CE8
:10176000002BDFD1E3E7E26D3F239340B360012319
:1017700084F83530002084F83400C5E790F835301F
:10178000DBB2022B03D08023436501207047052381
:1017900080F835300268136823F0010313600020DD
:1017A0007047000000230F2B00F2F98030B583B0A2
:1017B00069E085684FEA430E032404FA0EF425EA33
:1017C0000405CC6804FA0EF42C438460446824EACF
:1017D00002044A68C2F300129A402243426060E069
:1017E000DC08083450F8242003F00705AD004FF062
:1017F0000F0E0EFA05FE22EA0E0E0A69AA4042EA10
:101800000E0240F8242060E0092200E0002202FAE3
:101810000EF22A430234624D45F82420614A94684E
:101820006FEA0C0224EA0C05D1F804E01EF4801FD4
:1018300001D04CEA04055B4CA560E46802EA0405AB
:10184000D1F804E01EF4001F01D04CEA0405554C09
:10185000E560646802EA0405D1F804E01EF4003F84
:1018600001D04CEA04054F4C6560246822404D6865
:1018700015F4803F01D04CEA04024A4C2260013347
:101880000F2B00F28A8001229A400C6804EA020CB5
:1018900032EA0404F3D14C6804F00304013C012C47
:1018A00087D94A6802F00302032A09D0C4685D00A0
:1018B0000322AA4024EA02048A68AA402243C260A2
:1018C0004A6802F00302022A8AD004684FEA430EF3
:1018D000032202FA0EF224EA02044A6802F003022A
:1018E00002FA0EF2224302604A6812F4403FC6D068
:1018F000002201922C4A546C44F480445464526C8B
:1019000002F480420192019A9C08A51C244A52F8D4
:10191000255003F0030E4FEA8E0E0F2202FA0EF24C
:1019200025EA0205214A90423FF470AF02F5806239
:10193000904222D002F58062904220D002F580626F
:1019400090421ED002F5806290421CD002F5806267
:1019500090421AD002F58062904218D002F580625F
:10196000904216D002F58062904214D002F5806257
:1019700090423FF449AF0A2249E7012247E7022299
:1019800045E7032243E7042241E705223FE7062219
:101990003DE707223BE7082239E703B030BD704737
:1019A00000380140003C0140003802400000024085
:1019B0000AB1816170470904816170477047000076
:1019C00008B5054B5B69034200D108BD024B586165
:1019D000FFF7F4FFF9E700BF003C014010B582B00B
:1019E00000230193194B1A6C42F080521A641B6C4D
:1019F00003F080530193019B154B01221A64FFF7FA
:101A0000F1FD0446134B5B6813F4803F08D1FFF7E8
:101A1000E9FD001BB0F57A7FF4D9032002B010BDB8
:101A20000B4B01225A64FFF7DDFD0446094B5B684E
:101A300013F4003F07D1FFF7D5FD001BB0F57A7F07
:101A4000F4D90320EAE70020E8E700BF00380240AD
:101A500000000E4200700040002800F0E08170B5E8
:101A600082B00446036813F0010F3BD09F4B9B6884
:101A700003F00C03042B2CD09C4B9B6803F00C034D
:101A8000082B21D06368B3F5803F4FD0B3F5A02F6A
:101A900052D0964B1A6822F480321A601A6822F4E7
:101AA00080221A606368002B50D0FFF79BFD05462B
:101AB0008E4B1B6813F4003F14D1FFF793FD401BBE
:101AC0006428F5D90320B1E1884B5B6813F4800FDB
:101AD000D8D0864B1B6813F4003F03D06368002BFB
:101AE00000F09F81236813F0020F54D07F4B9B6856
:101AF00013F00C0F3ED07D4B9B6803F00C03082BBA
:101B000033D0E368002B68D0794B01221A60FFF7CD
:101B100069FD0546754B1B6813F0020F54D1FFF7A2
:101B200061FD401B0228F5D903207FE16F4A13684D
:101B300043F480331360B5E76C4B1A6842F480229B
:101B40001A601A6842F480321A60ABE7FFF74AFD68
:101B50000546664B1B6813F4003FC3D0FFF742FDF8
:101B6000401B6428F5D9032060E1604B5B6813F4E7
:101B7000800FC6D15D4B1B6813F0020F03D0E368E2
:101B8000012B40F05081594A136823F0F803216972
:101B900043EAC1031360236813F0080F42D063695E
:101BA0006BB3534B0122C3F8802EFFF71BFD054694
:101BB0004E4B5B6F13F0020F34D1FFF713FD401B48
:101BC0000228F5D9032031E1484A136823F0F803CD
:101BD000216943EAC1031360DDE7454B00221A6027
:101BE000FFF700FD0546414B1B6813F0020FD2D0F2
:101BF000FFF7F8FC401B0228F5D9032016E13C4B07
:101C00000022C3F8802EFFF7EDFC0546374B5B6FD3
:101C100013F0020F06D0FFF7E5FC401B0228F5D9B0
:101C2000032003E1236813F0040F77D02F4B1B6CC4
:101C300013F0805F33D1002301932C4B1A6C42F0D8
:101C400080521A641B6C03F080530193019B0125A1
:101C5000284B1B6813F4807F23D0A368012B34D05A
:101C6000052B38D0214B1A6F22F001021A671A6F28
:101C700022F004021A67A368002B3DD0FFF7B2FCE4
:101C800006461A4B1B6F13F0020F46D1FFF7AAFC52
:101C9000801B41F288339842F3D90320C6E0002527
:101CA000D6E7144A136843F480731360FFF79AFC75
:101CB0000646104B1B6813F4807FCED1FFF792FCD1
:101CC000801B0228F5D90320B0E0084A136F43F0C7
:101CD00001031367CFE7054B1A6F42F004021A673E
:101CE0001A6F42F001021A67C5E700BF00380240D0
:101CF0000000474200700040FFF774FC0646524B5C
:101D00001B6F13F0020F08D0FFF76CFC801B41F231
:101D100088339842F3D9032088E0EDB9A369002BFA
:101D200000F08380484A926802F00C02082A51D0E1
:101D3000022B17D0454B00221A66FFF753FC0446CE
:101D4000414B1B6813F0007F42D0FFF74BFC001B98
:101D50000228F5D9032069E03B4A136C23F0805335
:101D60001364DBE7394B00221A66FFF73BFC05469C
:101D7000354B1B6813F0007F06D0FFF733FC401B88
:101D80000228F5D9032051E0E369226A1343626A0D
:101D900043EA8213A26A5208013A43EA0243E26A22
:101DA00043EA0263284A5360284B01221A66FFF770
:101DB00019FC0446244B1B6813F0007F06D1FFF783
:101DC00011FC001B0228F5D903202FE000202DE094
:101DD00000202BE0012B2BD01B4B5B6803F4800110
:101DE000E269914226D103F03F02216A8A4223D15F
:101DF000616A47F6C0721A40B2EB811F1ED103F42C
:101E00004031A26A5208013AB1EB024F18D103F0F7
:101E10007063E26AB3EB026F14D1002006E0012088
:101E20007047012002E0012000E0002002B070BDF8
:101E30000120FBE70120F9E70120F7E70120F5E7A2
:101E40000120F3E70120F1E700380240000047429B
:101E500008B5264B9B6803F00C03042B41D0082BDC
:101E600041D1224B5A6802F03F025B6813F4800FA5
:101E700012D01E4B5968C1F388111D480023A1FBE5
:101E80000001FEF7B5F9194B5B68C3F30143013359
:101E90005B00B0FBF3F027E0144B5868C0F38810E8
:101EA0004FEA401CBCEB000C6EEB0E0E4FEA8E139B
:101EB00043EA9C634FEA8C11B1EB0C0163EB0E0318
:101EC000DB0043EA5173C90011EB000C43F100033E
:101ED000990200234FEA8C2041EA9C51FEF788F9D1
:101EE000D1E7034800E0034808BD00BF00380240C6
:101EF00040787D010024F400002800F09B8070B53C
:101F00000D4604464F4B1B6803F00F038B4208D26B
:101F1000CBB24C4A1370136803F00F038B4240F0AE
:101F20008B80236813F0020F17D013F0040F04D036
:101F3000454A936843F4E0539360236813F0080F15
:101F400004D0414A936843F4604393603E4A9368E7
:101F500023F0F003A1680B439360236813F0010F93
:101F600032D06368012B21D09A1E012A25D9364A26
:101F7000126812F0020F61D033498A6822F003021E
:101F800013438B60FFF72EFB06462F4B9B6803F035
:101F90000C036268B3EB820F16D0FFF723FB801BA4
:101FA00041F288339842F0D9032042E0264A126871
:101FB00012F4003FE0D101203BE0234A126812F006
:101FC000007FD9D1012034E01E4B1B6803F00F03C2
:101FD000AB4207D9EAB21B4B1A701B6803F00F0320
:101FE000AB422DD1236813F0040F06D0164A936834
:101FF00023F4E053E1680B439360236813F0080F68
:1020000007D0114A936823F46043216943EAC1036E
:102010009360FFF71DFF0C4B9B68C3F303130B4A40
:10202000D35CD8400A4B18600A4B1868FFF78EFA49
:10203000002070BD012070470120FAE70120F8E779
:102040000120F6E7003C024000380240387C0008DE
:102050000000002008000020014B1868704700BFF6
:102060000000002008B5FFF7F7FF044B9B68C3F39F
:102070008223034AD35CD84008BD00BF0038024029
:10208000307C000808B5FFF7E7FF044B9B68C3F3FB
:102090004233034AD35CD84008BD00BF0038024039
:1020A000307C000830B4036A026A22F00102026246
:1020B0004268846924F0730C0C6844EA0C0423F031
:1020C000020C8B6843EA0C03114DA84203D005F5BE
:1020D0008065A84205D123F00803CD682B4323F087
:1020E00004030B4DA84203D005F58065A84207D133
:1020F00022F440724D6945EA020C8A6942EA0C02F8
:10210000426084614A684263036230BC704700BF2A
:102110000000014030B4036A026A22F48072026255
:102120004268C46924F0730C0C6844EA0C0523F47B
:1021300000738C6843EA0423114CA04203D004F5D9
:102140008064A04206D123F40063CC6843EA0423F0
:1021500023F480630A4CA04203D004F58064A042BB
:1021600007D122F440524C6942EA04128C6942EAD7
:1021700004124260C5614A68C263036230BC7047A2
:102180000000014030B4036A026A22F48052026205
:102190004468C26922F4E6420D6842EA052223F44B
:1021A00000538D6843EA0533094DA84203D005F575
:1021B0008065A84204D124F480444D6944EA851422
:1021C0004460C2614A680264036230BC704700BF69
:1021D0000000014010B4036A046A24F001040462A0
:1021E000846924F0F00C4CEA021223F00A030B433A
:1021F0008261036210BC704710B4036A046A24F061
:1022000010040462846924F4704C4CEA023223F016
:10221000A00343EA01138261036210BC7047836824
:1022200023F070030B4343F0070383607047000003
:1022300090F83D30DBB2012B37D1022380F83D30DE
:102240000268D36843F00103D3600368194A9342DC
:1022500020D0B3F1804F1DD0A2F57C42934219D01B
:1022600002F58062934215D002F58062934211D04C
:1022700002F5784293420DD002F57052934209D094
:10228000A2F59432934205D01A6842F001021A6016
:10229000002070479A6802F00702062A07D01A68E1
:1022A00042F001021A6000207047012070470020B0
:1022B000704700BF0000014070477047704770478B
:1022C0007047704770B504460368DE681D6915F0F5
:1022D000020F10D016F0020F0DD06FF002021A613B
:1022E0000123037703689B6913F0030F5ED0FFF7A8
:1022F000E6FF0023237715F0040F12D016F0040F29
:102300000FD023686FF004021A6102232377236839
:102310009B6913F4407F4FD02046FFF7D0FF002386
:10232000237715F0080F12D016F0080F0FD023688E
:102330006FF008021A61042323772368DB6913F026
:10234000030F40D02046FFF7BAFF0023237715F094
:10235000100F12D016F0100F0FD023686FF010027C
:102360001A61082323772368DB6913F4407F31D097
:102370002046FFF7A4FF0023237715F0010F02D0BA
:1023800016F0010F2DD115F0800F02D016F0800F3E
:102390002FD115F0400F02D016F0400F31D115F0BB
:1023A000200F02D016F0200F33D170BDFFF786FF4B
:1023B0002046FFF785FF9CE72046FFF77FFF20467A
:1023C000FFF77EFFABE72046FFF778FF2046FFF7D9
:1023D00077FFBAE72046FFF771FF2046FFF770FF4F
:1023E000C9E723686FF001021A612046FFF765FF15
:1023F000C9E723686FF080021A61204600F040FBB5
:10240000C7E723686FF040021A612046FFF759FFC3
:10241000C5E723686FF020021A61204600F02FFB09
:10242000C3E700000368344A904212D0B0F1804FF5
:102430000FD0A2F57C4290420BD002F58062904210
:1024400007D002F58062904203D002F578429042B4
:1024500003D123F070034A681343274A90422AD0DD
:10246000B0F1804F27D0A2F57C42904223D002F5F4
:10247000806290421FD002F5806290421BD002F52C
:102480007842904217D002F57052904213D002F574
:10249000806290420FD002F5806290420BD0A2F58C
:1024A0009832904207D002F58062904203D002F544
:1024B0008062904203D123F44073CA68134323F02F
:1024C00080034A69134303608B68C3620B688362AD
:1024D000094B984203D003F58063984201D10B6900
:1024E000036301234361036913F0010F03D0036900
:1024F00023F00103036170470000014040B310B5B1
:10250000044690F83D30F3B1022384F83D30214673
:1025100051F8040BFFF786FF012384F8463084F856
:102520003E3084F83F3084F8403084F8413084F8FD
:10253000423084F8433084F8443084F8453084F8DD
:102540003D30002010BD80F83C30FEF79BFEDBE7FD
:102550000120704740B310B5044690F83D30F3B108
:10256000022384F83D30214651F8040BFFF75AFF4F
:10257000012384F8463084F83E3084F83F3084F8F4
:10258000403084F8413084F8423084F8433084F895
:10259000443084F8453084F83D30002010BD80F888
:1025A0003C30FFF789FEDBE70120704730B4036A57
:1025B000026A22F0100202624468826922F4E64252
:1025C0000D6842EA052223F020038D6843EA0513D3
:1025D000114DA84203D005F58065A84206D123F02D
:1025E0008003CD6843EA051323F040030A4DA84257
:1025F00003D005F58065A84207D124F440644D69F5
:1026000044EA85048D6944EA8504446082614A682D
:102610008263036230BC70470000014038B590F817
:102620003C30012B66D004460D46012380F83C3037
:102630000C2A5AD8DFE802F0075959591B59595941
:102640003059595944000068FFF72CFD22689369FE
:1026500043F0080393612268936923F004039361B4
:102660002268936929690B43936100203EE000686A
:10267000FFF79CFF2268936943F40063936122682B
:10268000936923F48063936122689369296943EA1B
:1026900001239361002029E00068FFF73BFD2268D9
:1026A000D36943F00803D3612268D36923F004039C
:1026B000D3612268D36929690B43D361002015E0F7
:1026C0000068FFF75FFD2268D36943F40063D361BC
:1026D0002268D36923F48063D3612268D3692969AE
:1026E00043EA0123D361002000E00120002384F8A5
:1026F0003C3038BD0220FCE710B4846824F47F4CE1
:1027000042EA03220A4342EA0C02826010BC70478C
:1027100090F83C30012B78D010B50446012380F8A6
:102720003C30022380F83D300268936823F47F43F5
:1027300023F0770393600B68602B4CD029D8402B93
:1027400054D00CD9502B22D1CA6849680068FFF7D1
:1027500041FD50212068FFF762FD002005E0202B9D
:102760000DD009D9302B0AD00120012384F83D3047
:10277000002384F83C3010BD0BB1102B05D1194655
:102780002068FFF74CFD0020EFE70120EDE7012076
:10279000EBE7B3F5805F34D0B3F5005F0CD1CB68C5
:1027A0004A6889680068FFF7A7FF2268936843F4C6
:1027B000804393600020D8E7702B24D1CB684A680F
:1027C00089680068FFF798FF2268936843F07703F1
:1027D00093600020C9E7CA6849680068FFF70CFDEC
:1027E00060212068FFF71BFD0020BEE7CA6849682A
:1027F0000068FFF7EFFC40212068FFF710FD002084
:10280000B3E70020B1E70120AFE70220704701F0F5
:102810001F014FF0010C0CFA01FC036A23EA0C03C0
:102820000362036A8A4013430362704710B504468B
:102830000846002948D194F83E30DBB2013B18BF6E
:102840000123002B40F0A380002856D1022384F8F6
:102850003E302268D36843F00203D3600122014670
:102860002068FFF7D4FF23684C4A934203D002F557
:102870008062934203D15A6C42F400425A64236846
:10288000464A934278D0B3F1804F75D0A2F57C428E
:10289000934271D002F5806293426DD002F580625E
:1028A000934269D002F57842934265D002F57052A6
:1028B000934261D0A2F5943293425DD01A6842F0FF
:1028C00001021A60002061E0042908D008290DD017
:1028D00094F84130DBB2013B18BF0123B1E794F813
:1028E0003F30DBB2013B18BF0123AAE794F8403028
:1028F000DBB2013B18BF0123A3E7042824D008283A
:102900002BD0022384F841300C2842D801A353F87D
:1029100020F000BF532800089329000893290008DD
:10292000932900084F2900089329000893290008DB
:1029300093290008612900089329000893290008B9
:10294000932900086D290008022384F83F3022688B
:10295000D36843F00403D36080E7022384F8403057
:102960002268D36843F00803D36077E72268D3680E
:1029700043F01003D36071E79A6802F00702062A59
:1029800009D01A6842F001021A60002010BD01202F
:10299000FCE70120FAE70020F8E700BF0000014053
:1029A00090F83C20012A3CD010B40346012280F864
:1029B0003C20022280F83D2002685068946820F094
:1029C000700C086840EA0C0050601A681648824291
:1029D0001AD0B2F1804F17D0A0F57C40824213D0BC
:1029E00000F5806082420FD000F5806082420BD0FB
:1029F00000F57840824207D000F57050824203D043
:102A0000A0F59430824204D124F080044968214327
:102A10009160012283F83D20002083F83C0010BC27
:102A200070470220704700BF00000140024690F846
:102A30003C30012B21D0012380F83C30CB6823F4BB
:102A400040738868034323F480634868034323F496
:102A500000630868034323F480530869034323F4A5
:102A600000534869034323F48043C9690B43116849
:102A70004B64002082F83C0070470220704770478A
:102A80007047026802F10C0353E8003F23F490738F
:102A90000C3242E800310029F3D1026802F114033C
:102AA00053E8003F23F00103143242E800310029CB
:102AB000F3D1036B012B05D0202380F84230002393
:102AC00003637047026802F10C0353E8003F23F0F0
:102AD00010030C3242E800310029F3D1ECE790F802
:102AE0004130DBB2212B01D0022070478368B3F55F
:102AF000805F17D0036A5A1C02621A7803685A6012
:102B0000C38C9BB2013B9BB2C3844BB90268D368B0
:102B100023F08003D3600268D36843F04003D3609E
:102B2000002070470369002BE4D1036A1B88026808
:102B3000C3F308035360036A02330362E0E7000053
:102B400010B504460268136923F44053C1680B436F
:102B50001361836802691A4343691A43C3691A43BC
:102B60000168CB6823F4164323F00C031343CB60B6
:102B70000268536923F4407381690B43536103680E
:102B8000314A934206D002F58062934202D0FFF7A9
:102B900069FA01E0FFF776FAE369B3F5004F29D04F
:102BA0000021031849411B1841F10001C90041EA05
:102BB0005371DB00181863684FEA83024FEA93737E
:102BC00041F10001FDF714FB204AA2FB0031490945
:102BD000642303FB11031B013233A2FB03235B09B4
:102BE00003F0F00202EB011203F00F03216813441B
:102BF0008B6010BD0023021843EB0301121841F152
:102C00000001C90041EA5271D200101841F10001DF
:102C1000626892185B41FDF7EBFA0C4AA2FB0031A7
:102C20004909642303FB1103DB003233A2FB0323B6
:102C30005B095A0002F4F87202EB011203F0070379
:102C4000216813448B60D4E7001001401F85EB51CD
:102C50002DE9F04383B005460E4617469946DDF848
:102C600028802B681C6836EA04040CBF0124002469
:102C7000BC4228D1B8F1FF3FF3D0FEF7B3FCA0EB84
:102C80000900404523D8B8F1000F22D02B68DA683C
:102C900012F0040FE5D0802EE3D0402EE1D01A6868
:102CA00012F0080FDDD0002401941A6801925B68CD
:102CB0000193019B2846FFF7E4FE08236B6485F827
:102CC0004040012000E0002003B0BDE8F083032075
:102CD000FAE70320F8E760B310B5044690F84130F6
:102CE00013B3242384F841302268D36823F40053BB
:102CF000D3602046FFF724FF2268136923F4904332
:102D000013612268536923F02A0353612268D36850
:102D100043F40053D36000206064202384F84130E2
:102D200084F84230606310BD80F84030FEF7A4FBA9
:102D3000D7E7012070472DE9F04182B01E4690F898
:102D40004130DBB2202B56D104460D469046002977
:102D500055D00AB901204FE000234364212380F8B5
:102D60004130FEF73FFC0746A4F82480A4F82680F3
:102D7000A368B3F5805F02D04FF0000814E0236928
:102D80002BB34FF000080FE0202384F841300320DC
:102D900032E038F8023B2268C3F308035360E28C48
:102DA00092B2013A92B2E284E38C9BB293B1009664
:102DB0003B46002280212046FFF74AFF0028E3D14E
:102DC000002DE6D015F8012B23685A60E7E7A846E6
:102DD0000025E9E700963B46002240212046FFF708
:102DE00037FF18B9202384F8413005E0202384F808
:102DF0004130032000E0022002B0BDE8F081012054
:102E0000FAE7704708B50168CA6822F04002CA6054
:102E1000202280F84120FFF7F4FF002008BD704712
:102E200008B5806B0023C385C384FFF7F8FF08BD96
:102E3000704790F84230DBB2222B69D18368B3F53A
:102E4000805F4FD0826AB3F5805F04D0002B56D1EB
:102E50000369002B53D103685B681370836A0133E5
:102E60008362C38D9BB2013B9BB2C385002B51D1C2
:102E700000B583B00268D36823F02003D3600268F2
:102E8000D36823F48073D3600268536923F001038D
:102E90005361202380F8423000234363036B012BEE
:102EA00033D100230363026802F10C0353E8003FAF
:102EB00023F010030C3242E800310029F3D10368FB
:102EC0001A6812F0100F06D0002201921A680192BF
:102ED0005B680193019B818DFFF7AAFF002003B07F
:102EE0005DF804FB0269002AACD1826A03685B6862
:102EF000C3F308031380836A02338362B1E7036874
:102F00005B6803F07F031370A8E7FDF7D5FFE5E7E3
:102F1000022070470020704710B582B00446026856
:102F20001368D068516913F00F0F09D113F0200F07
:102F30000CD010F0200F09D02046FFF77AFF16E0E2
:102F400011F0010115D110F4907F12D1216B0129EC
:102F500079D013F0800F03D010F0800F40F014816F
:102F600013F0400F03D010F0400F40F0118102B079
:102F700010BD13F0010F06D010F4807F03D0626CF7
:102F800042F00102626413F0040F04D019B1626CC4
:102F900042F00202626413F0020F04D019B1626CB5
:102FA00042F00402626413F0080F07D010F0200F03
:102FB00000D119B1626C42F008026264626C002AAE
:102FC000D5D013F0200F02D010F0200F29D12368A4
:102FD0005B6903F04003626C12F0080F00D163B329
:102FE0002046FFF74EFD23685B6913F0400F20D0A9
:102FF000226802F1140353E8003F23F04003143227
:1030000042E800310029F3D1E36B73B1624A1A65DB
:10301000E06BFEF7B3FB0028A9D0E06B036D984787
:10302000A5E72046FFF705FFD1E72046FFF7F7FEAB
:103030009DE72046FFF7F3FE99E72046FFF7EFFEF6
:103040000023636493E713F0100F82D010F0100F89
:103050003FF47FAF002301931368019353680193FA
:10306000019B536913F0400F52D0E26B13685B6809
:103070009BB2002B3FF47BAFA18D99427FF677AFD7
:10308000E385D369B3F5807F37D0226802F10C0362
:1030900053E8003F23F480730C3242E800310029EA
:1030A000F3D1226802F1140353E8003F23F0010337
:1030B000143242E800310029F3D1226802F11403EE
:1030C00053E8003F23F04003143242E80031002966
:1030D000F3D1202384F8423000232363226802F1D5
:1030E0000C0353E8003F23F010030C3242E8003198
:1030F0000029F3D1E06BFEF7F7FA02236363A18D99
:10310000E38D9BB2C91A89B22046FFF791FE2EE7E4
:10311000A18DE38D9BB2C91A89B2E38D9BB2002BBE
:103120003FF425AF00293FF422AF226802F10C03DF
:1031300053E8003F23F490730C3242E8003000283B
:10314000F3D1226802F1140353E8003F23F0010396
:10315000143242E800300028F3D1202384F84230B2
:1031600000232363226802F10C0353E8003F23F09D
:1031700010030C3242E800300028F3D102236363CD
:103180002046FFF755FEF2E62046FFF7A8FCEEE6E4
:103190002046FFF737FEEAE6212E0008816282858D
:1031A000C28500234364222380F84230036923B19F
:1031B0000268D36843F48073D3600268536943F0B4
:1031C000010353610268D36843F02003D3600020F9
:1031D000704708B590F84230DBB2202B08D149B1D6
:1031E0000AB9012008BD00230363FFF7D7FFF9E701
:1031F0000220F7E70120F5E7002310B50446C0E9F7
:103200000033C0E90433836081814366C2818361F6
:10321000194608225C3000F014F90D4B23620D4B67
:1032200063620D4BA3620D4BE3620D4BE4619C4264
:1032300006D003F16802944202D0D0339C4205D1FB
:1032400004F15800BDE8104000F074B910BD00BF93
:10325000BD330008DF330008173400083B34000892
:10326000C0070020024A0349034800F069B800BFC4
:103270000C0000209D4F00082000002041680C4BEE
:10328000994210B5044601D001F088FEA168094BAF
:10329000994202D0204601F081FEE168064B994236
:1032A00004D02046BDE8104001F078BE10BD00BF3C
:1032B000C0070020280800209008002010B50B4B04
:1032C0000B4C0C4A1A60204600220421FFF794FFA1
:1032D00004F1680001220921FFF78EFF04F1D000FC
:1032E0000222BDE810401221FFF786BFF808002037
:1032F000C007002065320008014800F01DB900BF7A
:1033000002090020014800F018B900BF020900209E
:1033100010B50446FFF7F0FF636B1BB1BDE810402A
:10332000FFF7F0BF044B6363044B1B68002BF5D120
:10333000FFF7C4FFF2E700BF7D320008F808002065
:103340002DE9F8430746884614460026D4E901953E
:10335000B9F1010905D52468002CF7D13046BDE844
:10336000F883AB89012B07D9B5F90E30013303D0AF
:1033700029463846C04706436835E9E70EB400B52C
:103380009CB01DAB029006906FF000410948079178
:103390000491094953F8042B05910068019302A98F
:1033A00000F038FC029B00221A701CB05DF804EBA0
:1033B00003B07047180000200802FFFF10B50C464C
:1033C000B1F90E1000F068F80028ABBF236DA38997
:1033D0001B1823F48053ACBF2365A38110BD2DE9D6
:1033E000F0411F468B89DB0505460C46164605D580
:1033F000B1F90E100223002200F03CF8A389B4F9C1
:103400000E1023F48053A38132463B462846BDE884
:10341000F04100F053B810B50C46B1F90E1000F0B1
:1034200029F8431CA38915BF206523F4805343F476
:103430008053A38118BFA38110BDB1F90E1000F015
:1034400009B802440346934200D1704703F8011BB8
:10345000F9E7000038B5064D0023044608462B6006
:10346000FDF7B6FE431C02D12B6803B1236038BDC3
:10347000FC08002038B5074D0446084611460022D6
:103480002A601A46FDF7AEFE431C02D12B6803B139
:10349000236038BDFC08002038B5074D04460846B7
:1034A000114600222A601A46FDF774FE431C02D121
:1034B0002B6803B1236038BDFC08002038B5074DE8
:1034C00004460846114600222A601A46FDF772FE9D
:1034D000431C02D12B6803B1236038BDFC080020D7
:1034E000014B1868704700BF1800002070B50D4DE3
:1034F0000D4C641BA4100026A64209D10B4D0C4CA8
:1035000004F082FB641BA4100026A64205D170BD06
:1035100055F8043B98470136EEE755F8043B9847C9
:103520000136F2E7D87F0008D87F0008D87F00086E
:10353000E07F00087047704770477047024B13B137
:10354000024800F005B8704700000000E95100088B
:10355000002301461A46184601F09ABE2DE9F843A9
:1035600006460820894601F053FE244F8046304627
:1035700000F044FBBB685D6825F00305A5F111046C
:10358000A4EB09044444B4FBF8F4013C08FB04F444
:10359000A04505DD304600F037FB0020BDE8F8838C
:1035A0000021304601F010FEBB682B449842F1D157
:1035B0006142304601F008FE013010D10021304652
:1035C00001F002FEBA68831A0F2BE3DD0C4909688B
:1035D000401A0C4943F0010308605360DAE7BB6806
:1035E000084A2D1B45F001055D60136830461B1B22
:1035F000136000F009FB0120D0E700BF4C01002060
:103600004401002008090020F8B504460F460029AF
:1036100000F0B18000F0F2FA57F8042C564D22F079
:103620000100A7F1080303EB000CA968DCF80460B3
:10363000614526F0030602F001021BD106443AB9A7
:1036400057F8082C9B1A1644D3E90212CA609160FD
:1036500046F001025A60AB60484B1B68B34204D885
:10366000474B20461968FFF779FF2046BDE8F84030
:1036700000F0CABACCF80460002A38D157F8081C08
:103680005B1A0844996805F10807B94231D0DF6830
:10369000CF60B9600CEB06014968C9070BD4DCF8B0
:1036A000081030443ABB374EB14224D1C5E9043347
:1036B000C3E90211012240F0010159601850002AAB
:1036C000D3D1B0F5007F1BD2C2080121400981404F
:1036D000686801320143696055F8320005EBC201A8
:1036E0000839C3E9020145F83230C360BDE7002262
:1036F000D0E70122CEE7DCF80C60CE60B160DAE7FB
:10370000B0F5206F4FEA502214D282093832511C92
:1037100005EBC20655F831108E4225D101209210DA
:1037200000FA02F2686802436A60C3E90216B360F5
:10373000CB609AE7142A01D85B32E8E7542A02D812
:10374000020B6E32E3E7B2F5AA7F02D8C20B7732E2
:10375000DDE740F254518A429ABF820C7C327E22CD
:10376000D5E789688E4204D04A6822F0030282427B
:10377000F7D8CE68D9E7F8BD4C01002048010020F9
:10378000380900205401002001F10B03162B2DE90C
:10379000F74F054606D933F0070704D50C232B60F5
:1037A0000024A1E11027B942F8D8284600F026FAF3
:1037B000B7F5FC7FAE4E37D207F108023244A2F1D2
:1037C000080154688C424FEAD70302D1D468A24260
:1037D00010D06368D4E9021223F00303CA602344C3
:1037E00091605A6842F001025A60284600F00CFAD3
:1037F000083479E1023334699E498C4277D062689B
:1038000022F0030CACEB07000F2848DDE21940F072
:10381000010347F001076760C6E90422C2E902110B
:10382000536044F80C00E0E77B0A2AD0042B12D83E
:10383000BB0938335A1C06EBC202A2F1080C5468CB
:10384000644506D0626822F00302D01B0F281CDDFD
:10385000013B0133CFE7142B01D85B33EAE7542B4C
:1038600002D83B0B6E33E5E7B3F5AA7F02D8FB0B1A
:103870007733DFE740F25452934204D8BB0C7C33D9
:10388000D8E73F23D6E77E23D4E70028E16804DBAE
:10389000A368D9608B60A318A3E70C46D0E7002883
:1038A000C6E9041107DBA444DCF8043043F001034B
:1038B000CCF8043099E7BCF5007F706880F0938005
:1038C0004FEADC024FEA5C1E4FF0010C01320CFAA9
:1038D0000EFC4CEA0000706056F832C006EBC200E5
:1038E0000838C4E902C046F83240CCF80C409810C1
:1038F000012282407068904226D3104206D123F004
:1039000003035200104203F10403FAD006EBC3088C
:10391000C1469E46D9F80C404C4540F0B7800EF1A8
:10392000010E1EF0030F09F10809F3D1980740F0CA
:10393000E180736823EA020373607068520090426A
:1039400002D3002A40F0E380D6F808A0DAF8043069
:1039500023F00309B94504D3A9EB07020F2A00F3AA
:103960004181454B1968103139440820019101F01B
:103970004FFC424A0199136801331FBF01F1FF3127
:1039800009184342194080462846019101F01CFC69
:10399000421C0AEB090B044600F0F78083450199AD
:1039A000364A02D9B24540F0F080354B1868A3453D
:1039B0000844186008F1FF3C40F0AB801BEA0C0F94
:1039C00040F0A780B268494441F0010151602D4A9E
:1039D0001B6811688B4288BF13602B4A11688B42A9
:1039E00088BF1360D1E0BCF5206F4FEA5C2218D28B
:1039F0004FEA9C12383202F1010E06EBC20856F86B
:103A00003EE0F0452BD192104FF0010C0CFA02F27F
:103A100002437260C4E902E8C8F80840CEF80C40DE
:103A200065E7142A01D85B32E5E7542A03D84FEA48
:103A30001C326E32DFE7B2F5AA7F03D84FEADC32E0
:103A40007732D8E740F2545E72459ABF4FEA9C4203
:103A50007C327E22CFE7DEF808E0F04505D0DEF8C4
:103A6000042022F003026245F5D8DEF80C80D1E78D
:103A70004C0100205401002038090020440100209E
:103A80000809002034090020300900206068D4F8BB
:103A90000CC020F00300A0EB070ABAF10F0F12DDF3
:103AA000A368E21947F001076760C3F80CC0CCF8BF
:103AB00008304AF00103C6E90422C2E9021153604A
:103AC00044F800A091E6BAF1000F11DB20444368EE
:103AD00043F00103436054F8083F2846C3F80CC084
:103AE000CCF8083000F090F8204603B0BDE8F08F25
:103AF000644611E758F80809404503F1FF333FF4E5
:103B000015AF1AE7043352001042FBD0FEE67346AD
:103B1000FAE7D2F800E0BEF1FF3F1BBFA4EB0B0BAE
:103B20000BEB000214601A6014F0070B1ABFCBF104
:103B3000080024185846621802EA0C018044A8EBD9
:103B4000010808EA0C0841462846019201F03CFBB6
:103B5000431C019A284B07D1BBF1000F23D0ABF1D6
:103B6000080010444FF000081A68B460001B40447D
:103B7000424440F00100B2451A6060603FF427AF54
:103B8000B9F10F0F12D801236360B3685B6823F0AB
:103B90000303BB42A3EB070201D30F2A22DC284612
:103BA00000F032F8FCE51046D846DDE7DAF80420EC
:103BB000A9F10C0929F0070902F0010242EA090201
:103BC000CAF8042005210AEB0902B9F10F0FC2E976
:103BD00001117FF6FCAE0AF108012846FFF714FD3B
:103BE000054BF4E6B46847F00103274442F00102B4
:103BF0006360B7607A60F8E5080900200148FFF7C4
:103C00009BBC00BF000900200148FFF796BC00BF25
:103C1000000900202DE9F04FD7B0884691461E4696
:103C2000079001F0CDFA03681A931846FCF758FC88
:103C3000B8F80C301190190615D5D8F8103093B992
:103C400007984021FFF7A0FDC8F80000C8F8100051
:103C500030B9079A0C2313604FF0FF331393F0E150
:103C60004023C8F814300023CDE92B3308930022F9
:103C70000023CDE90E230023CDE91C332DAC2A947B
:103C80000D9316931B9313934B461D4613F8012B6C
:103C90000AB1252AF9D1B5EB09070DD02C9B3B447D
:103CA0002C932B9B0133072BC4E900972B9375DCD6
:103CB0000834139B3B4413932B78002B01F02C8189
:103CC00000226B1C8DF88B204FF0FF35129293462B
:103CD00013F8012B0A9210930A9B203B5A2B00F2F7
:103CE0009D85DFE813F09E009B059B05A6009B05C4
:103CF0009B059B0586009B059B05A900B3009B05C2
:103D0000B000B5009B05CE00D100D100D100D1009C
:103D1000D100D100D100D100D1009B059B059B05AE
:103D20009B059B059B059B0541019B05FF00110120
:103D30004101410141019B059B059B059B05E2005B
:103D40009B059B0595049B059B059B05DD049B0539
:103D5000FD049B059B051F059B059B059B059B057E
:103D60009B059B059B059B0541019B05FF001301DE
:103D7000410141014101E5001301F9009B05F200F9
:103D80009B0572049704CC04F9009B05DD049C009C
:103D9000FF049B059B0565009B059C0007982AAACC
:103DA000414602F01BFC002840F046812DAC80E724
:103DB000A74B1D931BF0200300F0B784073626F0B5
:103DC00007031A465F6852F8086B0B921BF0010F4D
:103DD0000AD056EA070307D030238DF88C300A9BAF
:103DE0008DF88D304BF0020B2BF4806B022300F02A
:103DF0001FBC079801F0E4F943681B931846FCF7D1
:103E00006FFB1690079801F0DBF983680D93169B02
:103E10002BB10D9B1BB11B780BB14BF4806B109B2E
:103E200056E79DF88B30002BF9D120238DF88B308D
:103E3000F5E74BF0010BF2E756F8043B1293002B29
:103E4000EDDA5B4212934BF0040BE8E72B23EDE72E
:103E5000109B13F8012B0A922A2A0FD156F8045B03
:103E6000109345EAE575DAE701FB052513F8012B08
:103E70000A920A9A303A092AF6D92CE700250A2133
:103E8000F7E74BF0800BCAE70022109B12920A2141
:103E90000A9A1298303A01FB0022129213F8012B71
:103EA0000A92303A092AF3D915E74BF0080BB6E726
:103EB000109B1B78682B01BF109B013310934BF4B0
:103EC000007B18BF4BF0400BA9E7109B1B786C2BB5
:103ED00005D1109B013310934BF0200B9FE74BF063
:103EE000100B9CE7324652F8043B8DF8F430002367
:103EF0000B928DF88B309A46012514931F460C9334
:103F00001E460DF1F409CFE14BF0100B1BF0200F12
:103F100012D0073626F007031A465F6852F8086B7E
:103F20000B92002F06DA76424FF02D0367EB47071E
:103F30008DF88B3001237EE333461BF0100F53F8CE
:103F4000047B0B9302D03E46FF17EAE71BF0400FBD
:103F500003D03EB247F3C037E3E71BF4007FF2D053
:103F60007EB247F3C017DCE7073626F00703194691
:103F7000F1E80223CDE90E230E9B1E930F9B0B91BC
:103F800023F000431F93DDE91E01324B4FF0FF3257
:103F9000FCF754FF08BBDDE91E012E4B4FF0FF324A
:103FA000FCF72EFFC8B9DDE90E0100220023FCF763
:103FB0001DFF10B12D238DF88B30274A274B0A990E
:103FC0002BF0800B4729D4BF914699464FF0000A49
:103FD0000325CDF850A000F0D7BFDDE90E23104631
:103FE0001946FCF72BFF824640B10F9B1C4A002B61
:103FF000BCBF2D238DF88B301A4BE0E70A9B612B59
:1040000023D0412B30D158233022632D8DF88C20C2
:104010008DF88D304BF0020B40F3A9800798691C96
:10402000FFF7B2FB8146002840F0A680B8F80C30BC
:1040300043F04003A8F80C30B8F80C305B063FF5AD
:104040000BAE139857B0BDE8F08F7823DCE700BFC4
:10405000587C0008FFFFEF7F487C00084C7C00087C
:10406000507C0008547C00086A1C00F087800A9B82
:1040700023F02003472B02D10DB9AA4601254BF4AA
:10408000807315930F9B002B7ADA0E9B18930F9B6E
:1040900003F1004319932D2320930A9B23F020035F
:1040A000412B0C9340F0D98124AADDE9180101F0DD
:1040B000BBF800224FF07F53FCF726FC02460B466C
:1040C000CDE9082300220023FCF786FE08B1012376
:1040D00024932F4A2F4B0A99612918BF1A4614922C
:1040E0006F1E4E46DDE908012B4B0022FCF70CFC4D
:1040F00002460B46CDE90823FCF7B6FE1790FCF705
:1041000099FB02460B46DDE90801FCF745FA024639
:104110000B46CDE90823149B179A9B5C06F8013BDC
:104120007B1C06D07B1E219300220023FCF754FE4B
:1041300060B3DDE90801194B0022FCF775FE78BB7E
:10414000DDE90801154B0022FCF746FE10B1179B74
:10415000DA0725D43346F1193020CA1A002A80F232
:1041600079817B1C0137B8BF00231E442CE04FF03F
:10417000000A0DF1F40982E7824680E706257EE712
:10418000DDE90E23CDE91823002385E7219FA9E768
:10419000587C0008697C0008000030400000E03FC7
:1041A000149B2896D97B3020289A531E289312F806
:1041B000013C8B4200F04B81392B0BBF149B013328
:1041C0009B7ADBB202F8013CA6EB090308930C9B37
:1041D000249E472B40F08B81F31C02DBAE4240F360
:1041E000A9810A9B023B0A930A999DF8282021F095
:1041F0002001412908BF0F3206F1FF3306BFD2B2BA
:1042000001210021002B2493B8BFC6F101038DF8D2
:104210009820B4BF2D222B22092B8DF8992040F332
:104220007C810DF1A7000A260246B3FBF6F506FBDA
:104230001531303102F8011C1946632900F1FF30B5
:104240002B46F1DC3033911E00F8013C0DF199054D
:104250000B460DF1A7008342C0F05A810DF1A9036E
:104260009B1A814288BF00230DF19A021A4426ABA3
:10427000D31A089A1C93012A03EB020502DC1BF0F7
:10428000010F01D0119B1D442BF48063002743F4E0
:10429000807315930C973E46209B002B40F0918134
:1042A0000023DDF854B01493149BAB42B8BF2B46E7
:1042B00015939DF88B3013B1159B013315931BF0AB
:1042C000020320931EBF159B023315931BF084033A
:1042D000219322D1129B159A9B1A002B17931CDD58
:1042E0001798DDE92B2310289F48206002F1010276
:1042F00004F1080100F39E82179860600344072AC6
:10430000CDE92B2340F3AB8207982AAA414602F05D
:1043100065F9002840F0DE852DAC9DF88B202C9BA4
:104320006AB10DF18B022260012213442C932B9B66
:1043300062601344072B2B9300F393820834209A76
:104340002C9B62B123AA2260022213442C932B9B44
:1043500062600133072B2B9300F38D820834219B7D
:10436000802B22D1129B159A9B1A002B17931CDDD0
:104370001798DDE92B2310287C48206002F1010208
:1043800004F1080100F38182179860600344072A52
:10439000CDE92B2340F38E8207982AAA414602F0EA
:1043A0001DF9002840F096852DAC149B5B1B002B5B
:1043B00014931CDD1498DDE92B2310286B48206032
:1043C00002F1010204F1080100F3768214986060A2
:1043D0000344072ACDE92B2340F3838207982AAAB6
:1043E000414602F0FBF8002840F074852DAC2C9B70
:1043F00014931BF4807F40F07B82C4E900951D4438
:104400002C952B9B0133072B2B9300F3B782083499
:104410001BF0040F40F04085DDE9122315998A4214
:10442000ACBF9B185B1813932C9B3BB107982AAA2F
:10443000414602F0D3F8002840F04C8500232B932E
:10444000BAF1000F40F062850B9E2DACC7E002F878
:10445000010CA9E603F8010B7FE60C9B462B04D068
:10446000452B1CD16E1C022301E02E46032328AAF3
:10447000049225AA039224AACDE901620093079829
:10448000DDE9182300F0CCFF0C9B472B814619D1A6
:104490001BF0010F05D1289BA3EB090396E62E46DE
:1044A000E1E78719DDE9180100220023FCF794FCFD
:1044B00000B128973022289B9F42ECD9591C2891A3
:1044C0001A70F8E70C9B462B00EB0607EAD103783D
:1044D000302B09D1DDE9180100220023FCF77CFC18
:1044E00010B9C6F101062496249B1F44DAE70C9B01
:1044F000462B7FF479AE0BF00103002E43EA05034F
:1045000025DD7BB3119BF3181D4466230A9332E02B
:1045100013F8016B05F8016F9DE641B930228DF863
:104520009A200DF19B02303302F8013B9FE60DF11A
:104530009A02F8E7089B9E420DDA089B119A002E1A
:1045400003EB02050CDCC6F101031D4408E07BB15E
:10455000119B0133D8E71BF0010F1FD0119BF518F9
:104560006723D3E73546D0E78C7C00087C7C0008C5
:1045700066230A9301251BF480630C931FD0002748
:10458000002E0C977FF788AE0D9B1B78FF2B07D171
:104590000C9B169A3B4402FB03557DE63546DFE74C
:1045A000B342F5DAF61A0D9B5B7833B10C9B0133FD
:1045B0000C930D9B01330D93E6E70137E4E70C9F65
:1045C0006AE62D238DF88B306AE61BF0200F0AD0A7
:1045D000139A33681399D217C3E900120436DDF831
:1045E0004090FFF751BB1BF0100F03D03368139AB4
:1045F0001A60F3E71BF0400F03D03368139A1A8058
:10460000ECE71BF4007FF1D03368139A1A70E5E7EA
:104610004BF0100B1BF020031ED0073626F00703CB
:104620001A465F6852F8086B0B922BF4806B0023DC
:1046300000228DF88B20681C00F079842BF080021A
:104640000C9256EA070240F07884002D00F0DD80DD
:10465000012B40F0758482E032461BF0100752F8BF
:10466000046B0B9201D01F46DFE71BF0400301D023
:10467000B6B2DAE71BF40077D7D0F6B2F3E73346E9
:10468000782253F8046B0B9347F63003ADF88C3067
:10469000954B1D9300274BF0020B02230A92C7E7AC
:1046A00033466F1C53F8049B0B934FF000068DF8B4
:1046B0008B600FD02A4631464846FBF719FF8246E9
:1046C00000283FF486ACA0EB0905B24614963746A5
:1046D0000C96E9E54846FBF703FFB246054678E449
:1046E0004BF0100B1BF0200309D0073626F0070310
:1046F0001A465F6852F8086B0B92012398E732461E
:104700001BF0100752F8046B0B9201D01F46F4E720
:104710001BF0400301D0B6B2EFE71BF40077ECD0FA
:10472000F6B2F3E7714BFFF744BB32461BF01007BC
:1047300052F8046B0B9202D01F46FFF747BB1BF0E9
:10474000400302D0B6B2FFF741BB1BF400773FF441
:104750003DABF6B2F0E70A2E77F1000307D2303610
:10476000F6B28DF857610DF2571900F005BC002321
:1047700008930C9B03F480630DF5AC7A14930A2222
:10478000002330463946FBF733FD30320AF8012C5E
:10479000089A01320892149A83460B460AF1FF39AF
:1047A000E2B10D9A08991278914217D1FF2915D0DC
:1047B0000A2E77F1000211D30893169B1B99A9EBDF
:1047C00003091A46484600F0E8FC0D9B5A78089BFE
:1047D0001AB10D9A01320D92002208920A2E77F139
:1047E0000007C0F0C9835E461F46CA46C7E706F009
:1047F0000F031D9A3609D35C09F8013D46EA077696
:104800003F0956EA0703F2D1B6E323B91BF0010FC3
:1048100001D03026A5E70DF5AC79ADE30A9B002B5E
:1048200000F07A838DF8F43000238DF88B300B96EE
:10483000FFF761BB10200344072ACDE92B236060FA
:1048400008DD07982AAA414601F0C8FE002840F07A
:1048500041832DA9179B103B17930C4640E50C464E
:104860005BE507982AAA414601F0B8FE002840F00F
:1048700031832DAC63E507982AAA414601F0AEFECC
:10488000002840F027832DAC69E510200344072A57
:10489000CDE92B23606008DD07982AAA414601F084
:1048A0009DFE002840F016832DA9179B103B1793FF
:1048B0000C465DE50C4678E510200344072ACDE957
:1048C0002B23606008DD07982AAA414601F086FE86
:1048D000002840F0FF822DA9149B103B14930C4636
:1048E00068E50C4683E500BF587C0008697C000839
:1048F0000A9B652B40F33482DDE90E010022002380
:10490000FCF76AFA002869D06E4B236001236360CC
:10491000149B01332C932B9B0133072B2B9337DCF8
:104920000834249B089A934203DB1BF0010F3FF4E9
:104930006FAD1A9B2360119B119A63602C9B1344EB
:104940002C932B9B0133072B2B932BDC0834089BD8
:104950005D1E002D7FF75CAD5B4E1027DDE92B322D
:10496000102D03F1010304F10801266024DC6560C9
:10497000072B1544CDE92B3540F38B8207982AAAE3
:10498000414601F02BFE002840F0A4822DAC3FE50B
:1049900007982AAA414601F021FE002840F09A8299
:1049A0002DACBEE707982AAA414601F017FE002861
:1049B00040F090822DACCAE71032072BCDE92B32A4
:1049C000676008DD07982AAA414601F007FE002823
:1049D00040F080822DA9103D0C46BFE7249B002BA0
:1049E00074DC384B236001236360149B01332C93E8
:1049F0002B9B0133072B2B933DDC08340899249B18
:104A00002C9A0B430BF001010B433FF401AD1A9BB1
:104A10002360119B63601A442B9B2C920133072B5C
:104A20002B9332DC0834249D002D1BDA264E6D4278
:104A300023461027DDE92B21102D02F1010204F19C
:104A400008041E602BDC5D60072A0D44CDE92B2590
:104A500008DD07982AAA414601F0C0FD002840F071
:104A600039822DAC089B089A63602C9BC4F8009097
:104A700013442C93C5E407982AAA414601F0AEFDE1
:104A8000002840F027822DACB8E707982AAA4146B3
:104A900001F0A4FD002840F01D822DACC3E71031C9
:104AA000072ACDE92B215F6008DD07982AAA414635
:104AB00001F094FD002840F00D822DAC103D2346FE
:104AC000B8E700BF7A7C00087C7C0008089B4B4458
:104AD0000A93089BB342A8BF3346002B1D460BDD4B
:104AE000C4E90093149B2B442C932B9B0133072B7D
:104AF0002B9300F382800834002DACBF751B354624
:104B0000002D19DDDDE92B3294482060102D03F1D2
:104B1000010304F108017ADC6560072B1544CDE937
:104B20002B3540F3878007982AAA414601F056FDAD
:104B3000002840F0CF812DAC1BF4806F4E4408D08C
:104B40000C9B002B78D1002F78D10A9B9E4228BF66
:104B50001E46249B089A934202DB1BF0010F0ED0E5
:104B60001A9B2360119B119A63602C9B13442C9316
:104B70002B9B0133072B2B9300F3DB800834089B1E
:104B8000249FDF1B0A9B9B1B9F42A8BF1F46002F31
:104B90002C9B0ADD3B442C932B9B0133072BC4E950
:104BA00000672B9300F3CF800834249D089B002FCF
:104BB000A3EB0505A8BFED1B002D7FF729AC674EC1
:104BC0001027DDE92B32102D03F1010304F1080158
:104BD00026607FF7CCAE1032072BCDE92B32676011
:104BE00008DD07982AAA414601F0F8FC002840F0A9
:104BF00071812DA9103D0C46E3E707982AAA41468A
:104C000001F0ECFC002840F065812DAC74E7102029
:104C10000244072BCDE92B32606008DD07982AAAF1
:104C2000414601F0DBFC002840F054812DA9103DE5
:104C30000C4667E70C467FE7002F4AD0013F1B9BDD
:104C40002360169B169A63602C9B13442C932B9B1A
:104C50000133072B2B9343DC08340D9B93F8009012
:104C60000A9B9B1B9945A8BF9946B9F1000F2C9B45
:104C700009DD4B442C932B9B0133072BC4E90069BE
:104C80002B9337DC08340D9B1D78B9F1000FA8BFBA
:104C9000A5EB0905002D18DDDDE92B322F4820603A
:104CA000102D03F1010304F108012DDC6560072BD1
:104CB0001544CDE92B353ADD07982AAA414601F083
:104CC0008DFC002840F006812DAC0D9B1B781E4406
:104CD00036E70D9B013B0D930C9B013B0C93AEE71C
:104CE00007982AAA414601F079FC002840F0F2809A
:104CF0002DACB2E707982AAA414601F06FFC0028C4
:104D000040F0E8802DACBEE710200244072BCDE92F
:104D10002B32606008DD07982AAA414601F05EFC4C
:104D2000002840F0D7802DA9103D0C46B4E70C4672
:104D3000CBE707982AAA414601F050FC002840F032
:104D4000C9802DAC1BE707982AAA414601F046FC12
:104D5000002840F0BF802DAC27E700BF7C7C000816
:104D60000899149B2B9A012903F1010302F1010216
:104D700004F1080502DC1BF0010F7FD00121072A96
:104D8000CDE92B23C4F80090616008DD07982AAABA
:104D9000414601F023FC002840F09C802DAD1A9B79
:104DA0002B60119B119A6B602C9B13442C932B9BB3
:104DB0000133072B2B9332DC0835089BDDE90E010C
:104DC0005C1E00220023DDE92B76FCF705F80028A5
:104DD0002ED109F10103C5E90034089B0137013EDA
:104DE0001E44072FCDE92B7651DD07982AAA4146AC
:104DF00001F0F4FB00286DD12DAD26AB2B601C9B80
:104E00001C9A6B602C9B13442C932B9B0133072B18
:104E10002B933FF7B3AD05F10804FFF7F9BA0798F4
:104E20002AAA414601F0DAFB002853D12DADC4E790
:104E3000089B012BE1DD574E1027DDE92B32102CAA
:104E400003F1010305F108012E6007DC6C60072BFC
:104E50001444CDE92B34C8DC0D46CEE71032072BC5
:104E6000CDE92B326F6006DD07982AAA414601F092
:104E7000B5FB78BB2DA9103C0D46DEE70121072AC2
:104E8000CDE92B23C4F800906160B6DDADE70835AD
:104E9000B3E70C46FFF7BCBA129B159A9D1A002D7A
:104EA0007FF7BAAA3C4E1027DDE92B32102D03F113
:104EB0000103266018DC2A44072BCDE92B326560FC
:104EC0007FF7AAAA07982AAA414601F087FB002883
:104ED0003FF4A2AABAF1000F3FF4AEA807985146DA
:104EE000FEF792FBFFF7A8B81032072BCDE92B3263
:104EF000676002DC0834103DD6E707982AAA4146CD
:104F000001F06CFB0028E5D12DACF4E70798514681
:104F1000FEF77AFBFFF798BA2C9B002B3FF48CA886
:104F200007982AAA414601F059FBFFF785B856EACF
:104F30000702CDF830B03FF48BAB012B3FF40BAC44
:104F4000022B0DF5AC793FF452AC06F00703F608DE
:104F500046EA4776FF08303356EA07014A4609F821
:104F6000013DF2D10C99C90706D5302B04D030236E
:104F700009F8013CA2F1020956ABDDF830B01495F6
:104F80004FF0000AA3EB09055746CDF830A056466E
:104F9000FFF78AB97C7C00088C7C000870B5054658
:104FA0000C46B1B118B1436B0BB9FEF7B1F9636EA2
:104FB000DE0705D4A389980502D4A06DFEF7BCFADC
:104FC000B4F90C3043B9636ED90702D4A06DFEF773
:104FD000B4FA0026304670BD2146284600F034F869
:104FE000E36A064633B1E169284698470028B8BF0E
:104FF0004FF0FF36A3891A0603D521692846FEF72C
:1050000003FB216B41B104F14003994202D02846D1
:10501000FEF7FAFA00232363616C21B12846FEF7FC
:10502000F3FA00236364FEF767F90023A381636E3C
:10503000DB0702D4A06DFEF780FAA06DFEF77BFAC5
:10504000FEF760F9C6E70000F8B50546B1F90C00B7
:1050500006070C4657D440F400638B814B68002B45
:1050600002DCCB6B002B4CDDA66A002E49D000235E
:1050700010F480522F68E1692B6034D0226DA3892F
:10508000590705D56368D21A236B0BB1E36BD21AAB
:105090000023A66AE1692846B047431C06D12A6866
:1050A0001D2A47D8294B1341DE0743D4B4F90C30ED
:1050B00023F40062A28100226260D9042269226086
:1050C00004D5421C01D12B6803B92065216B2F60E8
:1050D000B9B104F14003994202D02846FEF794FA90
:1050E000002323630DE001232846B0470246501CED
:1050F000C5D12B68002BC2D01D2B01D0162B19D186
:105100002F6000201DE00F69002FFAD083070E6882
:1051100008BF4B690F6018BF0023F61B8B60002E81
:10512000EFDDE169D4F824C033463A462846E0472B
:10513000002807DCB4F90C3043F04003A3814FF0A2
:10514000FF30F8BD0744361AE9E700BFFEFFBFDFB6
:1051500038B50C46054618B1436B0BB9FEF7D8F8C5
:10516000B4F90C00B8B1636EDB0704D4810502D436
:10517000A06DFEF7E1F928462146FFF765FF636E53
:10518000DA07054605D4A3899B0502D4A06DFEF776
:10519000D4F9284638BD0546FBE710B5013903466A
:1051A00032B111F8014F03F8014B013A002CF7D14D
:1051B0001A440021934200D110BD03F8011BF9E706
:1051C000004870474406002038B5064D00230446C9
:1051D00008462B60FCF708F8431C02D12B6803B18A
:1051E000236038BDFC08002038B5074D074C641B10
:1051F000A4101CB9BDE8384002F00CBD013C55F8C4
:1052000024309847F5E700BFE07F0008E47F0008FE
:10521000082808B506D0FEF763F9162303604FF09F
:10522000FF3008BD8020FCE7F8B5174600223A6041
:10523000144A21F00046964204460D460B461ED8FD
:10524000024632431BD0104A0A4052B90F4B00228B
:10525000FBF75AFB6FF0350204460B4621F000467F
:105260003A603A68361523F0FF43A6F2FE3623F47F
:10527000E003324443F07F553A6045F40015204680
:105280002946F8BDFFFFEF7F0000F07F000050438C
:105290002DE9F047DFF86CA00646DAF800009846E2
:1052A0000F469146FEF748F9174B1C680CB9174C8E
:1052B0001C606568DAF800001F2D05DDFEF73DF97A
:1052C0004FF0FF30BDE8F0879EB104EB850101226D
:1052D000C1F88890D4F88831AA401343C4F88831C3
:1052E000022EC1F8088102BFD4F88C311343C4F8F0
:1052F0008C316B1C0235636044F82570FEF71DF994
:105300000020DFE740010020040900203C090020C4
:105310002DE9F74F03690C69A34207467EDB013C88
:1053200001F11408A30000F11405009305EB8403B8
:10533000019358F8243055F8242001339A4208EBA1
:105340008409B2FBF3F62ED34FF0000AC446AE46F2
:10535000D3465CF8043B98B206FB00A0020C1B0C81
:1053600006FB0323DEF8002080B292B2121A5A44E0
:10537000DEF800004FEA134A9BB2C3EB224303EB73
:10538000104392B242EA0342E1454EF8042B4FEA41
:10539000234BDED2009BEB582BB9019B043B9D4273
:1053A0001A462FD33C61384601F012F8002825DB5D
:1053B0002946002058F8042BD1F800C01FFA82FEBD
:1053C0001FFA8CF3A3EB0E030344120CC2EB23422F
:1053D00002EB1C429BB243EA0243C14541F8043B45
:1053E0004FEA2240E6D255F8242005EB840322B987
:1053F000043B9D421A460BD33C610136304603B054
:10540000BDE8F08F1268043B002ACBD1013CC6E70F
:105410001268043B002AEFD1013CEAE70020EEE7E6
:105420002DE9F04F816B97B014461D46CDE902453A
:10543000239E834649B1C26B4A60012393408B602F
:1054400000F0BFFD0023CBF838302B1EB9BF23F08E
:105450000043039300233360DDF80C80984BBCBFFE
:105460000122326033EA080314D1229A42F20F7308
:105470001360C8F31303234300F04E85249BDFF829
:1054800044A21BB10AF10303249A1360504617B0DB
:10549000BDE8F08FDDE90223CDE90C23DDE90C0145
:1054A00000220023FBF798FC074650B1229A012303
:1054B0001360249B13B1249A834B1360DFF80CA272
:1054C000E4E714AB019315AB00935846DDE90C23D8
:1054D00001F02CF8C8F30A568146002E76D00D9BB9
:1054E0001297C3F31303DDE90C0143F07F5343F438
:1054F0004013A6F2FF3619460022754BFBF74CF815
:1055000069A3D3E90023FBF7FFF969A3D3E90023DB
:10551000FBF744F8044630460D46FBF78BF966A3CB
:10552000D3E90023FBF7F0F902460B462046294653
:10553000FBF734F804460D46FBF796FC00220746BD
:10554000002320462946FBF751FC40B13846FBF7C3
:1055500071F922462B46FBF73FFC00B9013F162F9D
:1055600052D85C4B03EBC703D3E90023DDE90C0100
:10557000FBF73CFC002849D0013F00230F93149B0C
:105580009B1B5A1E44BFC3F101080023099254BF5C
:105590004FF000080993002F3ADB099B0E973B441C
:1055A000099300230A93209B092B66D8052BC4BFBF
:1055B000043B2093209BA3F10203CCBF00240124D1
:1055C000032B65D8DFE803F02B383657DDE9146389
:1055D0001E4406F23243202BC1BFC3F1400308FA38
:1055E00003F806F2124324FA03F3D6BFC3F12003F3
:1055F00048EA030004FA03F0FBF70CF90122A1F1D9
:10560000F873013E129276E70123B7E70F90B6E7F1
:105610007B420A930023A8EB07080E93C3E70023FD
:105620000B93219B002B36DC0123CDE907331A466F
:1056300021920BE00123F3E700230B93219BFB183E
:1056400008930133012B0793B8BF012300210422E3
:1056500002F11400984222D9CBF83C10584600F0D1
:105660008BFC824600283BD11B4B024640F2AF1117
:105670001A4801F05FF80123DFE70124002320939B
:105680000B944FF0FF33CDE9073300221223CFE70D
:1056900001230B93F5E7219BCDE90733D6E70131D1
:1056A0005200D5E7AFF3008061436F63A787D23F15
:1056B000B3C8608B288AC63FFB799F501344D33F01
:1056C0000000F07FA57C00087B7C00087A7C000845
:1056D0000000F83FA07D0008A97C0008BA7C000803
:1056E000079BCBF838000E2B00F2A480002C00F0B2
:1056F000A180002F33DD864B07F00F0203EBC203BE
:10570000D3E90034F805CDE904344FEA271416D55F
:10571000804BDDE90C01D3E90823FBF71FFACDE943
:10572000020104F00F0403267A4D54B9DDE9042385
:10573000DDE90201FBF712FACDE9020128E00226B9
:10574000F2E7E10708D5DDE90401D5E90023FBF71D
:10575000DBF8CDE90401013664100835E5E700F017
:10576000D2807C426A4B6B4D04F00F0203EBC20304
:10577000D3E90023DDE90C01FBF7C6F8CDE902010E
:10578000241100230226002C40F0B280002BD3D13C
:105790000F9BDDE90245002B00F0B7805E4B002235
:1057A00020462946FBF722FB002800F0AE80079B2D
:1057B000002B00F0AA80089B002B37DD7B1E049392
:1057C0002046564B00222946FBF79EF8CDE9020100
:1057D000089C01363046FBF72DF8DDE90223FBF784
:1057E00093F84F4B0022FAF7D9FE0546A1F1507607
:1057F000002C40F09980DDE902014A4B0022FAF7C3
:10580000CBFE02460B46CDE902232A463346FBF780
:105810000BFB002840F08D82DDE902012A4606F1EB
:105820000043FBF7E3FA002840F02681DDE90C3461
:10583000CDE90234159B002BC0F262810E2F00F3DC
:105840005F81334B03EBC703D3E90034CDE9043464
:10585000219B002B03DA079B002B40F3FF80DDE93F
:1058600002455646DDE9042320462946FBF776F932
:10587000FBF7FAFA8046FAF7DDFFDDE90423FBF7D0
:1058800043F802460B462046294608F13004FAF751
:1058900083FE06F8014B079DA6EB0A04A5420246CB
:1058A0000B4640F01581FAF779FEDDE90423044642
:1058B0000D46FBF7B9FA002840F0F780DDE9042334
:1058C00020462946FBF788FA18B118F0010F40F07E
:1058D000EC804946584600F074FB00233370229B4D
:1058E00001371F60249B002B3FF4D0AD1E60CDE537
:1058F000E20705D5D5E90023FBF706F801360123B9
:10590000641008353FE7022642E7079C049761E7E9
:10591000A07D0008787D00080000F03F00002440D2
:1059200000001C4000001440704B0B9903EBC403B3
:1059300053E902235444002945D06D490020FBF768
:105940000DF933462A46FAF727FECDE910015646EF
:10595000DDE90201FBF788FA0546FAF76BFF02461C
:105960000B46DDE90201FAF717FE303502460B4619
:10597000CDE9022306F8015BDDE91023FBF736FAD7
:10598000002863D1DDE902235A490020FAF704FE1A
:10599000DDE91023FBF72AFA002840F08780A642B1
:1059A0003FF444AFDDE91001534B0022FAF7ACFF9E
:1059B000514BCDE910010022DDE90201FAF7A4FF05
:1059C000CDE90201C4E731462846FAF79DFFCDE94B
:1059D000100113945646DDE90201FBF745FA05462E
:1059E000FAF728FF02460B46DDE90201FAF7D4FD7B
:1059F000303506F8015B02460B46A642CDE902238C
:105A00004FF0000224D13A4BDDE91001FAF7C6FD50
:105A100002460B46DDE90201FBF706FA002845D1F4
:105A2000DDE9102332490020FAF7B6FD02460B46A5
:105A3000DDE90201FBF7DAF900283FF4F7AE139E27
:105A4000731E139316F8013C302BF8D0049F40E7E7
:105A5000294BFAF759FFCDE90201BCE70CD1274BDE
:105A60000022DDE90401FAF74FFFDDE90223FBF72D
:105A7000D1F9002800F05B8100242546219BDB43FF
:105A80000493564600272146584600F09AFA002D06
:105A9000DCD02FB1AF4203D03946584600F091FA1E
:105AA0002946584600F08DFAD0E7049733461E4643
:105AB00013F8012D392A07D19A45F8D1049A0132F9
:105AC000049230228AF800201A7801321A70BDE759
:105AD000094B0022FAF718FF0022002304460D4666
