:020000040800F2
:10000000F00400209D010008951F00086D1D0008E8
:10001000911F000885020008C123000800000000AD
:100020000000000000000000000000009D1F00080C
:100030008902000800000000991F0008A11F0008A5
:10004000B7010008B7010008B7010008B7010008B0
:10005000B7010008B7010008B7010008B7010008A0
:10006000B7010008B7010008B7010008B701000890
:10007000B7010008B7010008B7010008B701000880
:10008000B7010008B7010008B7010008B701000870
:10009000B7010008B7010008B7010008B701000860
:1000A000B7010008B7010008B7010008B701000850
:1000B000B7010008B7010008B7010008B701000840
:1000C000B7010008B7010008B7010008B701000830
:1000D000B7010008B5230008B7010008B701000800
:1000E000B7010008B7010008B7010008B701000810
:1000F000B7010008B7010008B7010008B701000800
:10010000B7010008B7010008B7010008B7010008EF
:10011000B7010008B701000861200008B701000816
:10012000B7010008B7010008B7010008B7010008CF
:10013000B7010008B7010008B7010008B7010008BF
:10014000B7010008B7010008B7010008B7010008AF
:10015000B7010008B7010008B7010008B70100089F
:10016000B7010008B7010008B7010008B70100088F
:10017000B7010008B7010008B7010008000000003F
:10018000B7010008B7010008DFF80CD000F068F8EC
:1001900000480047E5230008F00400200648804797
:1001A00006480047FEE7FEE7FEE7FEE7FEE7FEE75C
:1001B000FEE7FEE7FEE7FEE74D20000889010008A4
:1001C0002DE9F05F0546002092469B46884606468C
:1001D000814640241BE0284641464746224600F01F
:1001E0002FF853465A46C01A914110D3114618466B
:1001F000224600F016F82D1A67EB01084F462246FA
:100200000120002100F00DF817EB00094E41201EDF
:10021000A4F10104DFDC484631462A464346BDE8E6
:10022000F09F202A04DB203A00FA02F100207047F8
:100230009140C2F1200320FA03F319439040704724
:10024000202A04DB203A21FA02F00021704721FA2B
:1002500002F3D040C2F12002914008431946704792
:10026000064C074D06E0E06840F0010394E8070003
:1002700098471034AC42F6D3FFF78AFFEC2400080D
:100280000C250008FEE700007047000072B600BFB2
:10029000FEE7000070B5866D044600F03DF994F865
:1002A0003510022928D105462068216C026822F009
:1002B00016020260426922F08002426109B9A16C13
:1002C00019B1016821F008010160016821F0010104
:1002D000016000BF20680068C00715D000F01CF95D
:1002E000401B0628F6D320206065032084F83500E3
:1002F000002184F8341070BD802060650120002149
:1003000084F8341070BD00BFE06D3F2101FA00F0A9
:10031000B060012084F835000020002184F83410FA
:1003200070BD000090F83510022909D1052180F830
:1003300035100068016821F001010160002070475C
:100340008021416501207047B0B5044600F0E4F813
:10035000054640F20400C2F200000078611C18BF9C
:10036000044400BF00F0D8F8401BA042FAD3B0BD4F
:100370002DE9F04F82B000F13E4241F6004502F116
:10038000FF77C4F20205082243F6004E4FEAB72673
:10039000A84208BF0722C4F2010E072E38BF4FEA59
:1003A000B7220125002600274FF00008009208E040
:1003B00008F101080437B8F1100F06F1020600F049
:1003C000A7800C6805FA08F914EA090FF0D0D1F8F3
:1003D00004B003220BF0030CACF10104B240012C79
:1003E0006FEA020A10D88268CC6802EA0A02B440B6
:1003F000224382604268CBF3001422EA090204FA25
:1004000008F42243426005E0BCF1030F02D14FF033
:10041000030C20E0C2688C6802EA0A02B44022435E
:10042000BCF1020FC26016D16FF0030202EA58025B
:100430000244D2F820C007F01C050F230C69AB4022
:100440002CEA030304FA05F52B431362D1F804B038
:1004500001250BF0030C02680CFA06F302EA0A020B
:100460001A431BF4403F0260A2D0002243F644032B
:100470000192C4F202031A684FF6084C42F480421B
:100480001A601A68CFF6FF7C02F480420192019A4A
:1004900028F00302724452F80C3007F00C050F24C8
:1004A000AC40A343009C04FA05F52B4342F80C3002
:1004B000DEF808204B6842EA090543F60C4CDC02E2
:1004C00058BF22EA0905CEF80850C4F2010CDCF846
:1004D00000209C0242EA090558BF22EA0905CCF82F
:1004E0000050DEF804209C0342EA090558BF22EAC6
:1004F0000905CEF80450DEF80020DB0342EA0905C6
:1005000058BF22EA0905CEF80050012550E700BF88
:1005100002B0BDE8F08F000040F2E800C2F2000037
:100520000068704740F2040040F2E801C2F20000A7
:10053000C2F2000100780A681044086070470000A9
:1005400080B543F60040C4F20200016841F4007136
:100550000160016841F480610160016841F48071CB
:100560000160032000F088F80F2000F005F800F08B
:1005700027F8002080BD000070B540F20406C2F2EA
:10058000000640F20C013278C2F200014FF47A7397
:100590000968B3FBF2F20446B1FBF2F1084600F041
:1005A00043FB0F2C4FF0010508D838B94FF0FF304E
:1005B00021460022002500F033F87460284670BD03
:1005C00082B0002043F640010190C4F202014A6863
:1005D00042F480424A604A6802F480420192019AE1
:1005E0000090086840F080500860086800F0805073
:1005F0000090009802B07047002848BF7047C1B211
:1006000000F01F00012202FA00F04EF20012CEF2BA
:10061000000242EAD10121F00301086070470000A6
:1006200010B54EF60C5CCEF2000CDCF80030C3F3D3
:10063000022E8EF00704042C28BF0424BEF103030D
:100640004FF0FF3E0EFA04F438BF0023A143994057
:100650000EFA03F39A43114300F00F0200F16043D6
:100660000901043A03F564436244002848BF02F1DB
:100670000C03197010BD00004EF60C51CEF20001B3
:100680000A684FF6FF031A4060F30A2242F08060C6
:1006900040F0FD70086070472DE9F041002800F03F
:1006A0008B8043F60808C4F202080446D8F8F80321
:1006B0000D4600F00700884207D288F8F853D8F8B2
:1006C000F80300F00700A84276D12068810717D50B
:1006D000410705D5D8F8001041F4E051C8F80010E2
:1006E000010705D5D8F8001041F46041C8F80010A2
:1006F000D8F80010A26821F0F0011143C8F80010EA
:10070000C0073FD1D8F8F80300F00700A84207D986
:1007100088F8F853D8F8F80300F00700A8424BD146
:100720002068410707D5D8F80010E26821F4E051AD
:100730001143C8F80010000708D5D8F80000216957
:1007400020F4604040EAC100C8F8000000F07CF8E6
:10075000D8F8001042F2B442C1F30311C0F600020F
:10076000515C40F20C0220FA01F140F20800C2F2A2
:1007700000000068C2F200021160FFF7FDFE0020D9
:10078000BDE8F0816068811E022907D258F8081C74
:1007900089015CBF0120BDE8F08111E0012807D18B
:1007A00058F8081C89035CBF0120BDE8F08107E010
:1007B00058F8081C890703D40120BDE8F08100BF68
:1007C000D8F8001021F003010843C8F80000FFF733
:1007D000A3FE064641F28837D8F80000616800F0B1
:1007E0000C00B0EB810F8DD0FFF796FE801BB84256
:1007F000F2D90320BDE8F08140F20C0043F6080175
:10080000C2F20000C4F202010068096842F2C44268
:10081000C1F38221C0F60002515CC840704700005D
:1008200040F20C0043F60801C2F20000C4F20201DB
:100830000068096842F2C442C1F34231C0F60002C6
:10084000515CC8407047000010B543F60404C4F280
:100850000204606800F00C0008280BD0042819BFBF
:1008600042F20040C0F2F40047F64000C0F27D10B2
:1008700010BD00BF206821682368490247F6400187
:10088000C0F27D1100F03F02C3F388105CBF42F25A
:100890000041C0F2F401A1FB00010023FFF790FC2E
:1008A00021680222C1F3014102EB4101B0FBF1F0EA
:1008B00010BD00002DE9F04182B0002868D0044648
:1008C000007843F60006C007C4F202060BD0B068F9
:1008D00000F00C00042840F09F803068800302D5AF
:1008E0006068002854D0207880071AD5B06810F0CE
:1008F0000C0F09D0B06800F00C00082840F0A6806A
:100900007068400200F1A2803068800702D5E0687C
:1009100001283DD13068216920F0F80040EAC1008B
:1009200030602078000737D4207840074CD4A56980
:1009300055B3B06800F00C00082840F0BB80012DD2
:1009400026D07068E16900F480028A4220D1216AD1
:1009500000F03F028A421BD147F6C071626A014033
:10096000B1EB821F14D1A16A4FF6FF73C9039943FB
:1009700000F44032A1F580318A4209D1E16A00F0E9
:100980007060B0EB016F03D1002002B0BDE8F081D0
:10099000012002B0BDE8F0816069002840F200004B
:1009A000C4F2472076D00121C0F8801EFFF7B4FDC5
:1009B000054600BF706F8007B6D4FFF7ADFD401B42
:1009C0000228F7D9DDE000BF306C10F080580AD162
:1009D00000200190306C40F080503064306C00F0AA
:1009E00080500190019847F20007C4F20007386870
:1009F000C00541D4386840F480703860FFF78CFD42
:100A0000054600BF3868C00536D4FFF785FD401B9A
:100A10000228F7D9B5E000BFB06800F00C00082844
:100A200003D1706840023FF558AF6068B0F5803F71
:100A300007D0B0F5A02F40F08D80306840F48020C2
:100A40003060306840F4803030608DE0E06800282D
:100A500052D00020C4F2472001210160FFF75CFD65
:100A6000054600BF306880073FF554AFFFF754FDDF
:100A7000401B0228F6D984E0A068012805D005288B
:100A80004ED1306F40F004003067306F40F001000D
:100A900030674FE00021C0F8801EFFF73DFD05469E
:100AA000706F80077FF540AFFFF736FD401B0228CF
:100AB000F6D966E00027C4F2472700203866FFF722
:100AC0002BFD022D05460BD1306880015ED5FFF766
:100AD00023FD401B02284FF00300F5D955E700BF66
:100AE000306880017FF550AFFFF716FD401B0228EC
:100AF0004FF00300F4D948E70020C4F2472000215A
:100B00000160FFF709FD0546306880077FF509AFF2
:100B1000FFF702FD401B02284FF00300F4D934E731
:100B2000316F002821F001013167316F21F004019C
:100B300031674DD0FFF7F0FC054641F2883700BF22
:100B4000306F800756D4FFF7E7FC401BB842F7D957
:100B500017E000BF3168002821F48031316031682E
:100B600021F4802131604FD0FFF7D6FC054600BF4D
:100B7000306880033FF5B7AEFFF7CEFC401B64281A
:100B8000F6D9032002B0BDE8F08100BF04F11C05D6
:100B90002FCD084340EA8210D9034FF6FF729143EC
:100BA000A1F5803140EA0560084370600120386695
:100BB000FFF7B2FC044600BF306880013FF5E4AEA9
:100BC000FFF7AAFC001B02284FF00300F4D9DCE673
:100BD000FFF7A2FC054641F2883700BF306F80075F
:100BE00008D5FFF799FC401BB8424FF00300F5D938
:100BF000CBE600BFB8F1000F7FF499AE306C20F067
:100C00008050306493E600BFFFF786FC054600BFC6
:100C1000306880037FF567AEFFF77EFC401B6428D9
:100C20004FF00300F4D9B0E6411E0020B0EB116F85
:100C30001CBF012070474EF21002CEF2000251603C
:100C40004EF62351CEF20001F0230B700721906085
:100C500011607047704700007047000010B590F8B1
:100C60003C20012A4FF0020251D080F83D2002685A
:100C7000D2F804E0D2F808C00C682EF070032343C9
:100C800041F2FF74C4F20004A24253600EDC40F251
:100C9000FF73C4F200039A4216DCB2F1804F2BD0EE
:100CA00040F20043C4F2000324E000BF40F2FF33EF
:100CB000C4F201039A4213DC41F60003C4F20003BC
:100CC0009A4219D0002313E040F60003C4F2000357
:100CD0009A4211D040F60043C4F200030AE000BF7C
:100CE00044F20003C4F201039A4205D040F20043EB
:100CF000C4F201039A4204D149682CF080031943DD
:100D000091600121002280F83D1080F83C201046BF
:100D100010BD0000002804BF0120704710B5044634
:100D200090F83D0028B9002084F83C00204600F0EF
:100D30001FF8022084F83D002068211D01F096F97B
:100D4000012084F8460084F83E0084F83F0084F8CF
:100D5000400084F8410084F8420084F8430084F89D
:100D6000440084F8450084F83D00002010BD0000D8
:100D700080B582B0006841F20001C4F200018842EF
:100D800016D040F60041C4F2000188420ED1002086
:100D9000019043F64000C4F20200016841F00801EE
:100DA0000160006800F008000190019802B080BD69
:100DB0000020009043F64000C4F2020001680022C7
:100DC00041F0100101600068002100F01000009067
:100DD00000983620FFF724FC362002B0BDE88040A2
:100DE000FFF70ABC90F83D1001291CBF0120704795
:100DF000022180F83D10006841F2FF72C168C4F220
:100E00000002904241F00101C1600DDC40F2FF712F
:100E1000C4F20001884215DCB0F1804F2AD040F2C4
:100E20000041C4F2000123E040F2FF31C4F20101AD
:100E3000884213DC41F60001C4F20001884219D057
:100E4000002113E040F60001C4F20001884211D0F5
:100E500040F60041C4F200010AE000BF44F2000184
:100E6000C4F20101884205D040F20041C4F2010100
:100E7000884206D1816801F00701062904BF0020DD
:100E80007047016841F001010160002070470000D7
:100E900080B590F83C20012A4FF0020200F0C28099
:100EA00080F83D20D0F800C04FF67772DCF80830AB
:100EB00023EA0202CCF808200B684F2B28DC1F2BFA
:100EC00044DD202B45D0302B43D0402B40F0AC806C
:100ED000D1F804E0C968DCF82030DCF8202022F0EA
:100EE0000102CCF82020DCF8182022F0F00242EABF
:100EF000011123F00A0242EA0E02CCF81810CCF8D5
:100F00002020DCF8081041F0470121F0300180E09A
:100F10006F2B27DDB3F5005F48D0B3F5805F7AD043
:100F2000702B40F08180D1E901E3C968DCF808202A
:100F300043EA0E0322F47F4243EA01211143CCF835
:100F40000810DCF8081041F0770162E00BB1102BBB
:100F50006AD1DCF8081021F07001194341F0070153
:100F600057E000BF502B35D0602B5DD1D1F804E0A5
:100F7000C968DCF82030DCF8202022F01002CCF820
:100F80002020DCF8182022F4704242EA013123F0DC
:100F9000A00242EA0E12CCF81810CCF82020DCF89F
:100FA000081041F0670121F0100132E0D1E901E3BE
:100FB000C968DCF8082043EA0E0322F47F4243EAC2
:100FC00001211143CCF80810DCF8081041F48041ED
:100FD0001FE000BFD1F804E0C968DCF82030DCF87D
:100FE000202022F00102CCF82020DCF8182022F08A
:100FF000F00242EA011123F00A0242EA0E02CCF8A2
:101000001810CCF82020DCF8081041F0570121F02E
:101010002001CCF808100022012180F83D100021A9
:1010200080F83C10104680BD0122F5E770470000B3
:1010300070B504460068C5680669B10716D515F095
:10104000020113D06FF00201016101212177806953
:10105000800703D02046FFF7E9FF05E0204600F0B7
:101060008FF8204600F0D0F900202077700719D5BE
:1010700015F0040016D020686FF004010161022110
:101080002177806910F4407F04D02046FFF7CEFF1F
:1010900006E000BF204600F073F8204600F0B4F9E7
:1010A00000202077300717D515F0080014D02068ED
:1010B0006FF00801016104212177C069800703D026
:1010C0002046FFF7B3FF05E0204600F059F8204620
:1010D00000F09AF900202077F00619D515F01000DD
:1010E00016D020686FF01001016108212177C069D6
:1010F00010F4407F04D02046FFF798FF06E000BFC1
:10110000204600F03DF8204600F07EF900202077D0
:10111000F00718BF15F0010002D1300609D412E023
:1011200020686FF001010161204600F01BFA3006D3
:1011300009D515F0800006D020686FF080010161AC
:101140002046FFF787FD700609D515F0400006D050
:1011500020686FF040010161204600F005FAB006FA
:1011600058BF70BD15F0200008D021686FF0200234
:1011700020460A61BDE87040FFF76EBD70BD0000FB
:10118000704700002DE9F04390F83C30012B04BF7C
:101190000220BDE8F0834FEAB202032A00F2FC808D
:1011A000DFE802F0023E7EBE036840F200471C6AA0
:1011B0001A6A24F0020422F001021A621A46D3F8D5
:1011C00004E052F818CF8E6843F48065C4F201073A
:1011D000BD4244EA060405D1CE6824F00C0426F092
:1011E000040634430E68BD4207D1D1E905572EF4F9
:1011F000407E45EA0E0545EA070E2CF0730737439B
:10120000C3F804E09F614F6809695F631C629F69CE
:1012100047F008079F619F6927F004079F61B1E0CD
:10122000036840F200481C6A1A6A24F0200422F085
:1012300010021A621A46D3F804C052F818EF8F68E9
:1012400043F48065C4F20108454544EA071407D118
:10125000CF686FF0400624F0C00406EA0716344356
:10126000D1F80090454506D1D1E905562CF44067E8
:101270002E4347EA860C2EF4E64747EA0927C3F8CF
:1012800004C09F614F6809699F631C629F6947F4AE
:1012900000679F619F6927F480679F6171E000BFCD
:1012A000036840F200481C6A1A6A24F4007422F4AD
:1012B00080721A621A46D3F804C052F81CEF8F6885
:1012C00043F48065C4F20108454544EA072408D187
:1012D000CF6840F2FF463F0224F4406427EA060646
:1012E0003443D1F80090454506D1D1E905562CF498
:1012F00040572E4347EA061C2EF0730747EA0907BA
:10130000C3F804C0DF614F680969DF631C62DF69ED
:1013100047F00807DF61DF6927F00407DF6131E08C
:10132000036840F20045D3F820C01A6A43F480678E
:1013300022F480521A621A465C6852F81CEFD1F807
:1013400000808E68C4F20105AF4204D14D6924F4D7
:10135000804444EA85142CF4005747EA06372EF4FB
:10136000E64646EA08265C60DE614E6809691E644E
:101370001F62DF6947F40067DF61DF6927F4806778
:10138000DF6109021368194311600021002280F80F
:101390003C200846BDE8F0830121002280F83C2073
:1013A0000846BDE8F0830000002804BF0120704714
:1013B00010B5044690F83D0028B9002084F83C00A0
:1013C000204600F01FF8022084F83D002068211D0F
:1013D00000F04CFE012084F8460084F83E0084F8BA
:1013E0003F0084F8400084F8410084F8420084F80B
:1013F000430084F8440084F8450084F83D00002050
:1014000010BD0000704700007047000041B108297E
:1014100016D0042914BF00F1410200F13F0211E08F
:1014200090F83E20012A1CBF01207047022280F85C
:101430003E204FEAB103032B4FF0010216D81FE004
:1014400000F140021278012A1CBF012070470222DD
:1014500008290DD0042914BF80F8412080F83F20CE
:101460004FEAB103032B4FF0010209D91046704730
:1014700080F840204FEAB103032B4FF00102F5D86A
:1014800042F2CC4C0068C0F6000C5CF823C0C36884
:1014900001F01F0143EA0C03C360036A02FA01F181
:1014A00023EA01020262026A114341F2FF72C4F2AE
:1014B0000002904201620FDC40F2FF71C4F20001B1
:1014C00088421BDCB0F1804F3ED040F20041C4F2B4
:1014D0000001884238D03FE040F2FF31C4F2010100
:1014E000884219DC41F60001C4F2000188422BD089
:1014F0000021C4F2010188421AD02DE040F600011B
:10150000C4F2000188421FD040F60041C4F200013D
:10151000884219D020E000BF44F20001C4F201016A
:10152000884211D040F20041C4F20101884213D137
:10153000416C40F2004340F48062C4F2010341F484
:1015400000419A42416407D1816801F007010629F0
:1015500002D1002210467047016841F0010101608C
:10156000002070477047000070470000704700007F
:1015700070470000B0B582B0044600680168C368D7
:10158000426901F02F05202D03F0200506D12DB171
:10159000204602B0BDE8B04000F014BE5FEA017C16
:1015A0001EBF02F0010E03F4907212EB0E0253D133
:1015B000226B012A05D111F0100218BF13F010029E
:1015C00036D10A0622D513F080021FD094F84110BC
:1015D00021293FD1A168B1F5805F03D1216900299C
:1015E00000F07282216A4A1C226209784160E18C13
:1015F00001390A04E1842DD1C16821F08001C16064
:10160000C16841F04001C16002B0B0BD490621D5BA
:1016100013F040011ED0C16821F04001C1602021BB
:10162000204684F8411002B0BDE8B04000F09CBBF9
:10163000002101910168019141680191019940697E
:10164000400613D4A08DE18DE28D002A18BF884298
:1016500040F0BC8102B0B0BDCA0718BF13F480725D
:1016600040F0B8804A0700F1BB80C0E0E06B016841
:1016700049688AB2002AEDD0A38D9A42EAD2E18568
:10168000C069B0F5807F00F09C80206850E8030FAF
:10169000216820F4807041E80302DAB1206850E844
:1016A000030F216820F4807041E8030292B12068A2
:1016B00050E8030F216820F4807041E803024AB12A
:1016C000206850E8030F216820F4807041E803028D
:1016D000002ADAD1206850E8050F216820F00100C7
:1016E00041E80502DAB1206850E8050F216820F0D2
:1016F000010041E8050292B1206850E8050F216819
:1017000020F0010041E805024AB1206850E8050FC9
:10171000216820F0010041E80502002ADAD12068A2
:1017200050E8050F216820F0400041E80502DAB1D9
:10173000206850E8050F216820F0400041E80502CC
:1017400092B1206850E8050F216820F0400041E880
:1017500005024AB1206850E8050F216820F04000DA
:1017600041E80502002ADAD1202084F84200002056
:101770002063206850E8030F216820F0100041E842
:101780000302DAB1206850E8030F216820F010004E
:1017900041E8030292B1206850E8030F216820F06D
:1017A000100041E803024AB1206850E8030F2168A5
:1017B00020F0100041E80302002ADAD1E06BFEF7C6
:1017C00069FD02206063A08DE18D401A81B2204640
:1017D00075E100BF626C42F0010262644A0706D5FF
:1017E000BEF1000F03D0626C42F0020262648A070D
:1017F00006D5BEF1000F03D0626C42F004026264B1
:10180000BCF1000F09D545EA0E02B2FA82F2520984
:1018100003D1626C42F008026264626C002A3FF4F9
:1018200019AF11F0200118BF002D03D0204600F0A1
:10183000C9FC20684069616C00F0400001F00801BB
:10184000401800F0B58000BF206850E8030F216801
:1018500020F4907041E80302BAB3206850E8030F07
:10186000216820F4907041E8030272B3206850E8C8
:10187000030F216820F4907041E803022AB3206826
:1018800050E8030F216820F4907041E80302002A19
:10189000DAD11AE0206850E8050F216820F0010035
:1018A00041E80502DAB1206850E8050F216820F010
:1018B000010041E8050292B1206850E8050F216857
:1018C00020F0010041E805024AB1206850E8050F08
:1018D000216820F0010041E80502002ADAD1206BDE
:1018E000012824D1206850E8030F216820F010005F
:1018F00041E80302DAB1206850E8030F216820F0C4
:10190000100041E8030292B1206850E8030F2168FB
:1019100020F0100041E803024AB1206850E8030FAC
:10192000216820F0100041E80302002ADAD12020CB
:1019300084F84200002020632068406940063FD5BB
:10194000206850E8050F216820F0400041E80502BA
:10195000DAB1206850E8050F216820F0400041E826
:10196000050292B1206850E8050F216820F0400080
:1019700041E805024AB1206850E8050F216820F0CF
:10198000400041E80502002ADAD1E06BC0B142F222
:10199000B911C0F600010165FEF7C4FC00283FF450
:1019A00059AEE06B016D02B0BDE8B040084700BF22
:1019B0002046FFF7DDFD0020606402B0B0BD00BF2F
:1019C000204602B0BDE8B040FFF7D2BD401A216802
:1019D00051E8031F226821F4907142E80313DBB140
:1019E000216851E8031F226821F4907142E8031333
:1019F00093B1216851E8031F226821F4907142E8F5
:101A000003134BB1216851E8031F226821F4907140
:101A100042E80313002BDAD1216851E8051F226840
:101A200021F0010142E80513DBB1216851E8051FEF
:101A3000226821F0010142E8051393B1216851E8C1
:101A4000051F226821F0010142E805134BB121680E
:101A500051E8051F226821F0010142E80513002B1F
:101A6000DAD1202184F8421000212163216851E855
:101A7000031F226821F0100142E80313DBB1216843
:101A800051E8031F226821F0100142E8031393B1CB
:101A9000216851E8031F226821F0100142E8031376
:101AA0004BB1216851E8031F226821F0100142E880
:101AB0000313002BDAD1022281B22046626302B006
:101AC000BDE8B040FFF752BD216A31F8022B6FF339
:101AD0005F22426021628AE5002804BF012070472E
:101AE00010B5044690F8410028B9002084F8400061
:101AF000204600F021F8242084F841002068C168C5
:101B000021F40051C160204600F0DCFB206801692F
:101B100021F490410161416921F02A014161C168CC
:101B200041F40051C16000202021606484F841101C
:101B300084F84210606310BD2DE9F04385B0006861
:101B400041F20005C4F20105A84203D005B0BDE88A
:101B5000F08300BF002643F630000096C4F2020076
:101B600041696C4641F01001416141694FF0020842
:101B700001F0100100910099009601684FF00309EF
:101B800041F0020101600168072701F002010091A4
:101B900000990096016841F001010160006821464A
:101BA00000F00100009000988020009005F574403E
:101BB000CDE90186CDF80C900497FEF7D9FB4FF4E0
:101BC0000070CDE9000805F570402146CDE90269B5
:101BD0000497FEF7CDFB252000210022FEF720FD13
:101BE0002520FEF709FD05B0BDE8F0837047000031
:101BF0002DE9F041044690F8410020281CBF022046
:101C0000BDE8F0810D4600294FF0010000F0AA80E8
:101C10001646002A08BFBDE8F0810020606421203C
:101C2000984684F84100FEF777FCA684E684A16814
:101C30000646B1F5805F02D12069002862D02F46A8
:101C40000025E08C002861D018F1010018D0B8F10F
:101C5000000F37D1216808E017F8010B4860E08CCD
:101C60000138E084E08C002851D00868000673D564
:101C7000002FF1D135F8020B00276FF35F20EDE75D
:101C8000216802E00868000609D40868000606D446
:101C9000086800065CBF08685FEA0060F2D51FB103
:101CA00017F8010B05E000BF35F8020B00276FF3B2
:101CB0005F204860E08C0138E084E08C0028E4D1AB
:101CC00025E000BF216800BF0868000608D4FEF7C1
:101CD00023FC801B404541D82168C868F4E700BF59
:101CE00017B117F8010B04E035F8020B00276FF36A
:101CF0005F204860E08C0138E084E08C0028E3D16C
:101D000005E000BF0027E08C00289DD1216808680D
:101D100040061FD4B8F1000F1ED018F101000FD1FA
:101D20000868400616D40868400613D408684006C0
:101D300010D4086840064FF00000F1D50FE000BF56
:101D4000FEF7EAFB801B404508D82068C1680068A0
:101D50004006F5D5002002E0FEF7DEFB032020213F
:101D600084F84110BDE8F08170470000FEE70000F4
:101D700083B0002043F630010290C4F202010A68E9
:101D800042F001020A600A6802F001020292029A1D
:101D900001900A6842F002020A600A6802F0020238
:101DA0000192019A0090086840F08000086008687D
:101DB00000F080000090009803B07047B0B594B078
:101DC00040F6004540F21000C4F200050021C2F2C6
:101DD000000049F63F4240F69F730E91CDE90C1189
:101DE0000991CDE90711CDE90511CDE90311CDE93F
:101DF0000111C0E90052C0E9021301618161FEF7DF
:101E000089FF002818BFFEF741FA4FF480500B906D
:101E100040F21000C2F200000BA9FFF739F80028C9
:101E200018BFFEF733FA40F21000C2F20000FFF7CD
:101E3000BBFA002818BFFEF729FA40F21000002470
:101E4000C2F2000008A9CDE90844FEF707FF002808
:101E500018BFFEF71BFA602001904FF47A70CDE9AD
:101E6000020440F21000C2F2000001A90022059411
:101E7000FFF788F9002818BFFEF708FA4FF4FA6058
:101E8000029040F21000C2F2000001A90422FFF704
:101E900079F9002818BFFEF7F9F940F2100440F66E
:101EA000B830C2F20004029001A920460822FFF7D0
:101EB00069F9002818BFFEF7E9F92068A84201D0A7
:101EC00014B0B0BD002043F630010F90C4F20201FF
:101ED0000A6842F080020A60096801F080010F91EF
:101EE0000F994FF4E0510F910221CDE91010CDE987
:101EF000120105F504300FA9FEF73AFA14B0B0BD8F
:101F000080B582B040F2580041F200020021C2F2D6
:101F10000000C4F2000249F63F4340F69F7CCDE941
:101F20000011C0E90023C0E9021C8161FEF7F2FE46
:101F3000002818BFFEF7AAF940F25800C2F20000CC
:101F40006946FEF78BFE002818BFFEF79FF902B026
:101F500080BD000080B540F2A00041F20001C2F255
:101F60000000C4F2010100234FF00C0C4FF4E132E9
:101F700080E80E00C0E90333C0E905C3C361FFF781
:101F8000ABFD002808BF80BDBDE88040FEF77EB9EC
:101F9000FEE70000FEE70000704700007047000009
:101FA000FEF7C0BAB0B592B0002443F640000B94DF
:101FB000CDE90944CDE907440594CDE90344CDE9D1
:101FC00001440094C4F202000168022541F08051EE
:101FD0000160006800F080500090009847F2000017
:101FE0000094C4F20000016841F48041016000687F
:101FF00000F48040009000980120099010200A9081
:1020000008200E90A020CDE90F050420119006A80D
:102010000695CDE90C54FEF74DFC18B172B600BF21
:10202000FEE700BF0F20CDE901054FF4A05004905A
:102030004FF48050059001A805210394FEF72CFB76
:1020400010B172B6FEE700BF12B0B0BD4EF68850B8
:10205000CEF20000016841F4700101607047000099
:1020600040F25800C2F20000FEF7E2BF10B540F6A1
:10207000FF3E0368C4F2000E40F2004C7045C4F20B
:10208000010C27DCB0F1804F31D040F20042C4F2A5
:10209000000290422BD040F60002C4F200029042AF
:1020A00025D041F6FF72C4F20002904229DC70454F
:1020B0003CDCB0F1804F5FD040F20042C4F200023D
:1020C000904259D040F60002C4F20002904253D030
:1020D00056E000BF40F60042C4F20002904206D033
:1020E000604504D00022C4F201029042D9D14A686E
:1020F00023F07003134341F6FF72C4F200029042D2
:10210000D5DD43F6FF72C4F20102904222DC42F2B6
:102110000002C4F2000290422ED00022C4F201025A
:10212000904229D0604527D02AE000BF40F6004207
:10213000C4F2000290421FD041F60002C4F2000235
:10214000904219D041F60042C4F20002904213D0EE
:1021500016E000BF44F20002C4F2010290420BD02C
:1021600044F60002C4F20102904205D044F200425B
:10217000C4F20102904203D1CA6823F440731343AE
:1021800023F080024B69D1F800E08C681A430260AA
:10219000C46240F48062C0F828E0624504BF096967
:1021A0000163012141610169C90708BF10BD0169CF
:1021B00021F00101016110BD806B0021C185C18446
:1021C000FFF7D6B981B090F84210222921D1836857
:1021D0000246B3F5805F09D152F8281F52F8183C27
:1021E000002B63D003685B680AE000BF52F8281F29
:1021F00013B90369002BF5D003685B6803F07F0314
:102200000B70116801311160C18D01390A04C1855B
:1022100002D001B0704700BF0168CA6822F02002F6
:10222000CA60CA6822F48072CA604A6922F0010258
:102230004A61202180F8421000214163026B012A8B
:102240003CD10163016851E8031F026821F01001CD
:1022500042E80313DBB1016851E8031F026821F073
:10226000100142E8031393B1016851E8031F0268AB
:1022700021F0100142E803134BB1016851E8031F3C
:10228000026821F0100142E80313002BDAD1016843
:102290000A68D20606D5002200920A6800924968B0
:1022A00000910099818D01B0FFF760B90268526812
:1022B0006FF35F2221F8022B8162A5E701B0FFF7DF
:1022C00095BC000010B504460068D4E902C2236939
:1022D000016921F4405111430161626943EA0C0133
:1022E000E3691143C268194349F20C639A431143ED
:1022F000C1604169A26921F4407141F20043114378
:1023000040F48062C4F201039A42416102D1FEF7B7
:1023100087FA01E0FEF770FAE16963681922B1F506
:10232000004FA0FB020123D15A00DB0FFDF748FF4D
:1023300048F21F51C5F2EB11A0FB01235A094FF6D9
:102340009C73C0F6FF7303F1805302FB030032233A
:1023500003EBC000A0FB01014FF4F87000EA11107C
:1023600000EB0210C1F3421108442168886010BDDF
:102370009A009B0FFDF724FF48F21F51C5F2EB11A5
:10238000A0FB01235A094FF69C73C0F6FF7302FBB2
:102390000300322303EB0010A0FB0101F02000EA50
:1023A000511000EB0210C1F343110844216888600A
:1023B00010BD000040F2A000C2F20000FFF7DAB842
:1023C000FEE7000080B582B0019040F2A000C2F2AA
:1023D000000001A901224FF0FF33FFF709FC01982B
:1023E00002B080BDFEF7ACF8FFF7DCFDFFF7C0FCE4
:1023F000FFF786FDFFF7AEFDFFF7E0FC40F2580067
:10240000C2F20000FEF7EEFC40F21004C2F200043B
:1024100020460021FEF7FAFF20460421FEF7F6FFD2
:1024200020460821FEF7F2FF40F2A00509A4C2F2FF
:1024300000050BA6204600F02BF8284631460E2258
:102440004FF0FF33FFF7D4FB4FF47A70FDF77CFFBA
:10245000F0E700BF524D2048656C6C6F2100000012
:1024600048656C6C6F20576F726C64210D0A000018
:1024700002E008C8121F08C1002AFAD1704770474D
:10248000002001E001C1121F002AFBD170470000AB
:1024900010B5044601E0FFF795FF14F8010B04495D
:1024A0000028F8D1BDE810400A20FFF78BBF0000DC
:1024B00000000020000000000000000001020304F2
:1024C00006070809000000000102030402000000E2
:1024D000040000000800000010000000FDFFFFFFE6
:1024E000FBFFFFFFF7FFFFFFEFFFFFFF10250008D7
:1024F00000000020100000007024000820250008C3
:1025000010000020E004000080240008000000000B
:102510000000000001000000100000000024F40092
:040000050800018965
:00000001FF
