:020000040800F2
:10000000000002200D8C0008AD880008AF880008B1
:10001000B1880008B3880008B58800080000000017
:10002000000000000000000000000000B788000889
:10003000B988000800000000BB880008BD880008DF
:100040005D8C00085D8C00085D8C00085D8C0008EC
:100050005D8C00085D8C00085D8C00085D8C0008DC
:100060005D8C00085D8C00085D8C00085D8C0008CC
:10007000C58800085D8C0008D58800085D8C0008E4
:100080005D8C00085D8C00085D8C00085D8C0008AC
:100090005D8C00085D8C00085D8C00085D8C00089C
:1000A0005D8C00085D8C00085D8C00085D8C00088C
:1000B0005D8C00085D8C00085D8C00085D8C00087C
:1000C0005D8C00085D8C00085D8C00085D8C00086C
:1000D0005D8C0008E58800085D8C0008FD8800083C
:1000E0005D8C00085D8C00085D8C00085D8C00084C
:1000F0005D8C00085D8C00085D8C00085D8C00083C
:100100005D8C00085D8C00085D8C00085D8C00082B
:100110005D8C00085D8C00085D8C00085D8C00081B
:100120005D8C00085D8C0008158900085D8C000856
:100130005D8C00085D8C00085D8C00085D8C0008FB
:100140005D8C00085D8C00085D8C00085D8C0008EB
:100150005D8C00085D8C00085D8C00085D8C0008DB
:100160005D8C00085D8C00085D8C00085D8C0008CB
:100170005D8C00085D8C00085D8C000800000000AC
:080180005D8C00085D8C000895
:1001900010B5054C237833B9044B13B10448AFF3C1
:1001A00000800123237010BDC8060020000000005D
:1001B000B005010808B5034B1BB103490348AFF371
:1001C000008008BD00000000CC060020B00501083A
:1001D000312970B5864645D828292AD80A2920D938
:1001E000A1F10B0C324C5FFA8CFC012000FA0CF0F0
:1001F0000440002C4DD0D2B1DEE90540844216DA2D
:10020000DEF8105004EB840C05EB8C000134002662
:10021000C0E90166CEF8144005F82C10C0E90323AC
:1002200070BD042930D9A1F109000128E3D90020CB
:1002300070BDA1F129000828F9D801A454F820F0D4
:10024000F90100088D020008890200082F02000849
:1002500089020008F9010008F9010008F701000807
:100260008D020008A1F13400C0B21D28DFD8114C66
:100270004FF0010C0CFA00FC0CEA0404002CBAD17B
:100280000D480CEA000070B1002AD0D0002BB3D189
:10029000CDE710F47F1FAFD1084C0440002CC6D02E
:1002A000002AF3D1C3E71CF0505CC0D0A4E700BF24
:1002B000FE1F802F0711C701F82E000A0100400021
:1002C000F0B5C26811786E29864625D03039CBB298
:1002D000092B2BD80026164D00206FF0004402E0B9
:1002E000B0EBD30F15DC0132CEF80C201378303B85
:1002F0005FFA83FC00EB800001EB4000BCF1090FCA
:100300001946A4EB0303A5FB0373E9D906B14042E8
:10031000F0BD4FF0FF30F0BD531CC3605178303951
:10032000CAB2092A02D81A460126D4E70020F0BD35
:10033000CDCCCCCC10B5044629B9C3681A786AB1C3
:100340005A1CC260197868290CD0762906D120463B
:10035000FFF7B6FFE3681A785F2A01D0002010BDCE
:100360000133E3602046FFF7ABFFE3681A785F2AAA
:10037000F4D10133E360012010BD00BFC3681A78D7
:100380005F2A01D00120704710B55A1CC2605A780C
:100390005F2A044604D0FFF793FFC043C00F10BD8F
:1003A0000233C360FFF78CFF002807DB092801DC5C
:1003B000012010BDE3681A785F2A01D0002010BD2B
:1003C0000133E360F4E700BF002966D038B5054685
:1003D0000C46A368012B39DCD5F81C01B0F5806F01
:1003E00003F1010332DC2278A360531E502B2DD879
:1003F000DFE803F03131314C2C2C2D2D31313131EE
:1004000031313131313131313131312C31313131E1
:10041000313131313131424231312C3131313129B7
:1004200031313131312C2D313131313131313131C5
:1004300031313131312C2C31292929292C313131DB
:10044000313131313100E468002CC2D138BD24692A
:10045000002CBED1FAE7E168431CC5F81C312846E0
:10046000FFF7B2FF21692846FFF7AEFFD5F81C3130
:10047000013BC5F81C3138BDE1680B78052BEBD189
:10048000D5F838310133C5F83831E5E7D5F84431CE
:10049000E1680133C5F84431DEE7704703460020C8
:1004A0002BB909E0DA682AB11B6901301BB11A784F
:1004B0002F2AF7D0704770471846704720B909E0D7
:1004C00039B10069013930B103782F2BF8D0002001
:1004D0007047C068704770472DE9F0411446526874
:1004E000A568D4F80C804B1C1344AB4282B00E4676
:1004F000074614D8B8F1000F0ED163682068324661
:10050000184439460CF04CFBD4E90032334403F86C
:10051000028063683344636002B0BDE8F081B8F1E3
:10052000000FF9D17DB16D00AB42FCD8206829469F
:100530000BF00EFC60B1D4F80C802060A560B8F11F
:10054000000FDAD0E8E7022B4FF00205EBD8EDE719
:10055000019020680BF0AEF9019B0122C4E9003341
:10056000C4E90232D8E700BF0378722B07D0562BBC
:1005700005D04B2B03D0442B03D000207047012023
:1005800070474078A0F17703012BF8D900F0DF0025
:10059000A0F14F00B0FA80F040097047D0F8003168
:1005A000FF2B70B504460D4606D05A1CC4F8002136
:1005B000E55484F8045170BD0026194680F8FF60A8
:1005C000D0E942329847D4F8283101221344C4F8C4
:1005D00028313346C4F80021E55484F8045170BD35
:1005E000D0F810318BB15A68CB681069002B0BDB47
:1005F00020B906E03BB10069013B10B102782F2A17
:10060000F8D000207047C06870470123C0F8183147
:10061000F7E700BF002940D02DE9F041DFF88080E6
:10062000204F05460C4601262378082B08D8082BB6
:1006300013D8DFE803F01A12121212271A17170044
:100640002C2B15D9323BDBB21B2B06D806FA03F252
:1006500012EA080F09D1012B04D0E1682846FFF700
:10066000D9FF18B92469002CDED10020BDE8F08143
:10067000172BF2D9183BDBB227FA03F3DB07ECD5D3
:100680000020F3E721462846FFF7AAFF0028ECD018
:1006900003782F2BEAD00020E8E70020704700BF46
:1006A0000100E30C018010002DE9F04104460846EA
:1006B0000D4607F0EDFA40B3013DD4F800112F18B4
:1006C0004FF0000809E00B46BD4201F10101C4F8FA
:1006D0000011E65484F8046117D0FF2915F8016F62
:1006E000F1D1D4E9423284F8FF8020469847D4F80B
:1006F000283101210B44C4F828310023BD42C4F83D
:100700000011E65484F80461E7D1BDE8F08100BF30
:1007100038B5C2681378542B24D1531CC360527867
:100720005F2A044620D06E2A1CD0FFF7C9FD411C69
:1007300018D4E3681A785F2A14D1D4E9052001336C
:100740008242E3600EDA236902EB820C03EB8C0039
:1007500001320025C0E901556261052203F82C2011
:10076000C16038BD002038BD0021E6E72DE9F04129
:1007700088B00A4604461A4901A80BF0F5FF01A803
:1007800007F086FA40B301ADD4F800112F184FF0EE
:10079000000809E00B46AF4201F10101C4F8001165
:1007A000E65484F8046117D0FF2915F8016BF1D1E4
:1007B000D4E9423284F8FF8020469847D4F82831A3
:1007C00001210B44C4F828310023AF42C4F80011C2
:1007D000E65484F80461E7D108B0BDE8F08100BFB9
:1007E000141101082DE9F0410446FFF769FD051ECB
:1007F00044DDE66863689B1B9D423BDCA26873197D
:100800005207E36004D5725D242A04BF0133E3601C
:10081000092DD4E905781FDD2749082230460CF060
:10082000A5F830B9337A2E2B2BD05F2B29D0242B6F
:1008300027D0B8451EDD206907EB870300EB830056
:1008400001370023C0E9013367610023C0E90133A8
:10085000C0E9036503700EE0B8450BDD206907EBC6
:10086000870300EB830001370023C0E90133676190
:10087000002EEAD10020A062BDE8F0810020BDE892
:10088000F081737A4E2BD4D1E36A16335B1BB845E3
:10089000E362EFDD2169094A07EB87008500002349
:1008A00001EB800001376761C0E901334B55152327
:1008B000C0E90323DFE700BF181101082411010874
:1008C0002DE9F041C3681A78532A26D15A1CC26018
:1008D0000446587848B39A1CE26058785F2849D09B
:1008E000A0F13003DAB2092A1BD8002205E0E56046
:1008F00008785F2834D0A0F13003D9B2092902EB7F
:10090000C20300EB830321D8303B9A4205D8E1684B
:1009100008781A464D1C0028E9D100252846BDE874
:10092000F081A0F14102192ADFD9A36813F008036E
:1009300022D0191E18BF0121424B03F1C4051A78B9
:10094000824221D01C33AB42F9D1E6E7A0F141034A
:10095000192BE2D802EBC20300EB8303373BD4E749
:100960000133226A9A42D8D9E26952F823502846C4
:10097000BDE8F0810023F4E70029DAD0E2681278BC
:10098000433A012AD5D8D7E75E69D4E90520AEB14C
:100990009042D3F8188052DD276902EB820C07EBF6
:1009A0008C054FF0000EC5E901EE01324FF0180E34
:1009B000626107F82CE0C5E90368A562002939D017
:1009C000D3E90371E36A82420B44E36235DA2369B7
:1009D00002EB820003EB800501320026C5E90166C7
:1009E0006261182203F82020C5E90371E3681A78D0
:1009F000422A93D1A66A0133E3602046FFF7F2FE54
:100A00002A4603464D212046FFF7E2FBE3681A78A9
:100A1000422A0546EFD0A66200283FF47EAFD4E913
:100A200008329342BFF679AFE1695A1C41F82300BE
:100A3000226273E7D3E90171C4E70025D6E70025F8
:100A4000BBE700BFC80501082DE9F043C26883B0C9
:100A500004461046FFF788FD002861D113785A2B11
:100A600033D82F2B40F28C80303B2A2B00F2888029
:100A7000DFE813F08800880088008800880088007C
:100A8000880088008800880086008600860086002E
:100A9000860086008600C20186004901B1008600FA
:100AA000AB009D008600860086008600860004025A
:100AB00088009701890186007B0157012201AA0164
:100AC00086008600860086008800613B5FFA83FC12
:100AD000BCF1190F54D8BA4D012101FA0CF10D40A7
:100AE000002D49D0B74903EB830301EB8301D4E91F
:100AF0000535AB4280F2D583266903EB830C06EB08
:100B00008C050133C5E901006361272306F82C3009
:100B1000E960E36A496801320B44E260E36224E081
:100B2000002201A9204601F0D3FA054640B3E3684C
:100B30001B78462B20461CD0FFF786FF2860F8B1B3
:100B400003781F3B012B05D8019AC368C2602A684D
:100B500001922B60019D9DB1D4E9083293420FDAD6
:100B6000E1695A1C41F823502262284603B0BDE8CF
:100B7000F08300F0FFFBE1E7BCF1140F00F00F83FE
:100B80000025F2E7204601F0D9FD05460190002D31
:100B9000F6D0D4E908329342F2DAE16941F8235001
:100BA000019D5A1C2846226203B0BDE8F083013241
:100BB000E2602046FFF748FF002302462621204638
:100BC000FFF706FB05460190E1E7204600F0D2FB67
:100BD00005460190DBE7531CE3605378002BCFD030
:100BE000931CE3605378463B302BC9D801A151F8E0
:100BF00023F000BFE90E0008810B0008810B0008FC
:100C0000810B0008810B0008810B0008810B000894
:100C1000810B0008810B0008810B0008810B000884
:100C2000810B0008810B0008810B0008AD0E000845
:100C3000810B0008810B0008810B0008810B000864
:100C4000810B0008810B0008810B0008810B000854
:100C5000810B0008810B0008810B0008810B000844
:100C6000810F0008810B0008550F00083D10000897
:100C70000D100008DD0F0008810B0008AD0F000803
:100C80006F110008810B0008810B0008810B000820
:100C9000810B00083F110008810B00082711000894
:100CA000810B0008810B0008F7100008AD0E00084A
:100CB000C71000086D1000082046FFF729FDE66800
:100CC00001903378492B05467FF461AF636B002BAD
:100CD00040F09D8200283FF453AFD4E908218A42B6
:100CE000BFF64EAFE16941F822000132226232784C
:100CF000493A012A05D80136E660204600F05CFE3C
:100D000003462A462AE00132E2602046FFF79CFEB5
:100D10000023024625212046FFF75AFA0546019096
:100D200035E75378A3F13002092A05D95F2B03D0A8
:100D3000413B192B00F25E8200212046FFF7C0FDE7
:100D4000E36801901A78492A05467FF40EAF013313
:100D5000E360204600F030FE2A4603460421204688
:100D6000FFF736FA0546019011E70132E2602046AE
:100D7000FFF76AFE0023024623212046FFF728FAE8
:100D80000546019003E70132E2602046FFF75CFE72
:100D90000023024622212046FFF71AFA0546019059
:100DA000F5E60132E2602046FFF74EFE00230246E0
:100DB00024212046FFF70CFA05460190E7E600BF24
:100DC000FF7BEC038C0601080132E2602046FFF74E
:100DD00009FDE36801901A78492A054600F0EF8181
:100DE0002046FFF731FE2B46024621212046FFF721
:100DF000EFF905460190CAE6551CE56053785F2B74
:100E000000F0DB81303B092B00F2E6812B469C464B
:100E10000133E360197830390929F8D9D4E905108C
:100E20008142ACEB0202BFF6ABAE276901EB810059
:100E300007EB80064FEA800E002001318242C6E9AE
:100E4000010061617FF79CAEC6E9010007F80E0062
:100E5000C6E903529CF801201D465F2A7FF490AE3C
:100E60000135E5602046FFF7EFFD324603462A21B3
:100E70002046FFF7ADF90546019088E60132E260B1
:100E80002046FFF7E1FD054600283FF479AE2046F5
:100E9000FFF7DAFD034600283FF472AE2A462B2105
:100EA0002046FFF795F90546019070E60123256B72
:100EB0002363204600F050FE2563024600234421B0
:100EC0002046FFF785F90546019000283FF458AE0B
:100ED000E3681A78002A3FF453AE5A1CE2601B788C
:100EE000452B7FF44DAE54E6D4E905318B4280F2B8
:100EF000DA81216903EB830001EB800501330026D1
:100F0000C5E9016663612C2301F8203093780195CF
:100F1000303BDBB2092B94BF012333462B8202D82E
:100F20002046FFF7CDF92046FFF78EFDE860002848
:100F30003FF426AE2046FFF7C3F9E268137813B1F9
:100F4000531CE3601378A3F17303B3FA83F35B09D3
:100F50006B820AE6D4E905329342BFF611AE2269EC
:100F6000BD4903EB8305A8000133636102EB8505EE
:100F70000023C5E9013313540E23C5E90313F4E537
:100F8000D4E905329342BFF6FBAD2269B34903EBC6
:100F90008305A8000133636102EB85050023C5E9E1
:100FA000013313540423C5E90313DEE5D4E9053204
:100FB000934280F27381226903EB830102EB810586
:100FC00001330020C5E901006361272302F82130C5
:100FD000E36AA34AEA600433E362C6E5D4E9053272
:100FE000934280F25B81226903EB830102EB81056E
:100FF00001330020C5E901006361272302F8213095
:10100000E36A984AEA600933E362AEE5D4E905325F
:10101000934280F24381226903EB830102EB810555
:1010200001330020C5E901006361272302F8213064
:10103000E36A8D4AEA600A33E36296E5D4E9053251
:10104000934280F22B81226903EB830102EB81053D
:1010500001330020C5E901006361272302F8213034
:10106000E36A824AEA600933E3627EE593785F2BA4
:1010700000F00681D4E905329342BFF681AD2269C2
:1010800003EB830102EB810501330020C5E9010078
:101090006361432302F821302046FFF711F9E8602D
:1010A000E3681A785F2A7FF46BAD0133E360204672
:1010B000FFF7CAFC2A4603462D212046FFF788F891
:1010C0000546019063E5D4E90532934280F2E6805B
:1010D000226903EB830102EB810501330020C5E99E
:1010E00001006361272302F82130E36A604AEA6065
:1010F0000733E36239E5D4E90532934280F2CE80CA
:10110000226903EB830102EB810501330020C5E96D
:1011100001006361272302F82130E36A554AEA603F
:101120000833E36221E52046FFF78EFC00230246E8
:101130004C212046FFF74CF80546019027E5D4E9FD
:101140000532934280F2AA80226903EB830102EB0D
:10115000810501330020C5E901006361272302F8FE
:101160002130E36A444AEA601133E362FDE4D4E9E2
:101170000532934280F29280226903EB830102EBF5
:10118000810501330020C5E901006361272302F8CE
:101190002130E36A394AEA600833E362E5E4013268
:1011A000E2602046FFF71EFB2B4602462821204620
:1011B000FFF70EF805460190E9E4002650E60133FA
:1011C000E360204600F0F8FB2A460346042120464F
:1011D000FEF7FEFF054603E60123256B2363204649
:1011E00000F0BAFC2563064600283FF4C9ACE56868
:1011F0002A7832E6204601F0A1FA0546019000283F
:101200003FF4BEAC0378182B7FF4C3ACADE4731C81
:10121000E3602046D4F81490D4F82080E76A00F008
:10122000CBFBE3681B78492B06D0E660C4F814902A
:10123000C4F82080E762AAE4002D3FF4A1ACD4E911
:1012400008139942BFF69CACE26942F82150013183
:1012500003462A46216281E5441101083C11010838
:10126000D008010894080108BC080108A808010872
:10127000E4080108F8080108200901080C09010820
:1012800003320123256BE2602363204600F064FCF7
:101290002563054600287FF403AF71E40023DB6873
:1012A000FFDEC368FFDE00231B70FFDE30B5C268BF
:1012B00083B0002301931378002B34D0044601AD92
:1012C0004F2B0CD009D82E2B01D0452B0AD10198D9
:1012D00048B30369CBB103B030BD522B02D1537870
:1012E000452BF4D02046FFF7AFFB024600232E210A
:1012F0002046C2B1FEF76CFF2860A0B1E268137807
:1013000000F11005002BDBD1E1E7C2681178272935
:10131000E1D1D268117C0929DDD1E16A5268891ACC
:10132000E162C360D7E7002003B030BD70B5C36889
:101330001A784A2A05461AD081B12846FFF784FB5D
:10134000044690B12846FFF7B1FF034668B1224634
:1013500028462921BDE87040FEF73ABF28460C46D2
:10136000FFF7A4FF03460028F1D1002070BD013330
:10137000C360E2E770B50446806810F480200BD1AA
:10138000E26BB2F5006F06D8511CE368E16319788F
:10139000462907D0E26370BDE3681A78462A01D077
:1013A000002070BD5A1CE2605A78592A04BF0233EB
:1013B000E36001212046FFF7B9FFE5682B78522B47
:1013C0001AD04F2B0AD0452BA36806BF0135E56024
:1013D00000205B03DFD4E26B013ADBE7E36A202104
:1013E00003336E1C0246E362E66000232046FEF7EC
:1013F000EFFE6B783546E6E7E36A1F210233F0E73C
:10140000F8B5C3681F780646A7B35A1CC26093F8A4
:1014100001E01F78BEF1000F2ED1384D4821002287
:101420008B1A03EBD37302EB6303180105EB031C68
:101430002C582078B84206D094BF5A1C19468A42CC
:10144000EED10020F8BD60787045F5D1D6E90532BF
:101450009342F6DA326903EB830102EB8100013338
:101460000024C0E901447361322302F82130C0F83E
:101470000CC0F8BDBE46D0E79A1CC260762F93F828
:1014800001E01FD1AEF13004E3B2092BC5D8FFF75C
:10149000A9F9D6E905318B420246D2DA376903EB66
:1014A000830107EB810001330025C0E90155890064
:1014B0007361002AC5D03323C0E901557B54C0E9CC
:1014C0000342F8BD632FA8D1BEF1760FA5D1D0E9B4
:1014D0000C34B3FA83F35B094363FFF7B5FA736B1C
:1014E000024633B1002335213046FEF771FE7463A6
:1014F000F8BD34213046FEF76BFEF8E734090108E9
:10150000F8B5C3681A78A2F13001092904464FD909
:10151000552A56D00FD8442A37D94C2A09D101333D
:10152000C360FFF75FF9054618B12046FEF726FFB6
:1015300098B9002543E0A2F161011929F9D86F2A71
:10154000056B00F0EE802046FFF75AFF2563054645
:1015500018B10378322B00F0ED80E3681A78422A44
:101560002DD1A66A0133E3602046FFF73BF92A46F6
:1015700003464D212046FEF72BFEE3681A78422AE7
:101580000546EFD0A6622846F8BD422AD1D9816A25
:10159000002955D00878002850D1E26A0869024431
:1015A000E2621A78432A61D0442A4BD0002504E035
:1015B000FFF718F9E3681A780546422AD1D0284681
:1015C000F8BD5A786C2A00F0D580742AB1D1591C24
:1015D000C1605A78742A73D1991CC1609B785F2BC3
:1015E00000F017816E2BA4D0FEF76AFE013000F1E7
:1015F0002481E1680A785F2A62D1D4E905254B1C71
:10160000AA42E36080F21481276902EB820C07EBA7
:101610008C0501320026C5E901666261492207F89E
:101620002C20E860D4E90820824280F2FE80E06944
:1016300040F82250013222624A78BEE71828ACD026
:10164000432A13D05A78303A052A3FF672AF01A0E8
:1016500050F822F01D17000817170008C5160008DB
:1016600033150008111700080B1700085A78492A8B
:1016700000F0BA80A2F1310004283FF65AAF303AA8
:101680000233D6B2E360D4E90520824280F2C380FF
:10169000D4F810C002EB82000CEB80050132002769
:1016A000C5E9017780006261002900F0B780C5E9D3
:1016B000017707220CF800202E7329611A787CE745
:1016C0000B4673E74FF0030ED4E905209F1C8242BE
:1016D000E76080F29A80D4F810C002EB82000CEB35
:1016E000800501320026C5E901668000626100299B
:1016F00000F08B80C5E9016608220CF8002085F80F
:101700000CE029619A783B4657E74FF0050EDBE77E
:101710004FF0040ED8E74FF0020ED5E74FF0010E60
:10172000D2E75A786E2A7FF40EAF02330022C360EC
:10173000026308E7C268E36A9168126807330B44E2
:10174000E36213786C2B7FF408AF5378692B7FF436
:1017500004AF9378002B7FF400AF2046FFF742F8E8
:101760002A46034637212046FEF732FDE368054648
:101770001A7822E7591CC1605A786C2AA0D102332A
:10178000C360FFF793FDE3680646002856D01A7839
:10179000452A7FF40BAF591CE1605B785F2B4AD080
:1017A0006E2B3FF4C6AE2046FEF78AFD013044D4CE
:1017B000E1680A785F2A83D1D4E905254B1CAA4247
:1017C000E36035DA276902EB820C07EB8C05013206
:1017D0004FF0000EC5E901EE6261472207F82C20A8
:1017E000C5E903604A78E8E6591CE1609A78A2F1FD
:1017F0003100042815D80333303AE3602046D6B2CE
:10180000FFF722F9A16AE3683DE79A7800253B4695
:10181000D3E60020F1E61A780025CEE61A780D46C8
:10182000CBE65A7800250B46C7E64A783546C4E62B
:101830004A780025C1E60020BEE7E3681A78002553
:10184000BBE600BFF8B5C26813784C2B32D1531CED
:10185000C36051785F2904464AD05A2913D15A1CD3
:10186000E2605B78472B3CD0542B3AD000212046D5
:1018700001F0C6F8E3681A780646452A1AD1013302
:10188000E3603046F8BDFFF7DFF8064690B1037815
:10189000E768272B11D03D786E2D53D03D21452D83
:1018A00058D03B4603E0E3601D78452D27D0013337
:1018B000002DF8D100263046F8BDC3681A7C1AB155
:1018C000E26A5968521AE2622549186806F086F9F8
:1018D0003D780028E0D1452D3ED06E2D32D03D21FF
:1018E000DFE7204600F09CFCE36806461A78C4E770
:1018F000931CC36092785A2AB1D00026BDE7DD1B45
:10190000D4E905239A4223DAD4F810E002EB8200EE
:101910000EEB800301324FEA800C0020C3E9010086
:101920006261AFB1854213DDC3E901000EF80C001E
:10193000C3E9037532462046FEF74AFCE3680646D3
:101940001A789AE77B1CE3607D783E211F46A6E764
:101950000023EFE70025D3E70137E760ABE700BFDF
:101960005411010838B5C26813784C2B1FD00446B7
:1019700007D8493B012B15D80132BDE83840C26079
:101980001AE0582B0ED101320123056BC2600363AC
:1019900000F0E2F8E36825631A78452A0AD101339A
:1019A000E36038BD2046BDE83840FFF74DB8BDE8DC
:1019B000384047E7002038BD70B5C368866A1A789A
:1019C000452A82B004461FD00023019301AD09E0EF
:1019D000FEF7FEFB286000F1100560B1E3681A789D
:1019E000452A0BD02046FFF7BDFF024600232F21DA
:1019F0002046002AECD1002002B070BD0198A662FA
:101A00000133E36002B070BD5A1C0023C2602F2175
:101A10001A4602B0BDE87040FEF7DABB70B5C26886
:101A20001378A3B304460E460025303B4A2B2ED82C
:101A3000DFE803F0303030303030303030302D2DB2
:101A40002D2D2D2D2D2D2D307E2E2D2D2D742D2D2A
:101A500030262D2D2D2D2D633C302D2D2D2D2D2D72
:101A60002D2D2D2D2D303030303030303030303085
:101A70003030303030303030303030303030300096
:101A80002DB1511CE16053780A46002BCDD10025C1
:101A9000284670BD2046FFF733FD03465DB12A4658
:101AA00001212046FEF794FB054605E02046FEF79F
:101AB0002FFE0346D5B91D46E2681378452BE7D0C3
:101AC000002EE2D0002DE2D0D4E908318B42DEDADC
:101AD000E16941F82350013323621378002BA4D12C
:101AE000D5E7FEF7B1FF0346002DE4D001212A46D9
:101AF0002046FEF76DFB0546DEE701212046FEF796
:101B0000DFFE034605B32A4601212046FEF760FBAF
:101B1000E26813780546002B87D1B8E7002DB6D0D0
:101B20000132E2602046FFF747FF04210346DEE76B
:101B3000537803F0DF03542B2046D2D0FFF7E0FCAC
:101B40000346002DD2D1B6E7E2681D461378002B7C
:101B50007FF46BAF9BE700BFC26813784C2B00F09B
:101B6000CD80542B00F0CB80732B2DE9F04104463F
:101B700024D0662B55D0A3F13001092944D96F2B0D
:101B80003DD0692B40F0488253786C2B1DD1931CBB
:101B9000C36000251A78002A00F0BA805B78002B19
:101BA00000F0B6804521204600F058FA2A46034648
:101BB00031212046BDE8F041FEF70ABB5378722B75
:101BC00000F03881702B00F05F812046FFF718FC91
:101BD0000546002800F09C800378322B50D0332B30
:101BE00000F08F80342B40F09380E3681A785F2AEE
:101BF00000F018812046FFF7AFFF034653E053780B
:101C00006E2BE2D10232C2602046FFF779FC054616
:101C100000287DD0E3681A78492A7BD02846BDE8A1
:101C2000F0815378702BD0D1931CC3609378542BE0
:101C300000F021815F2B7AD06E2B69D0FEF740FB3C
:101C4000411C65D4E3681A785F2A61D16FF00042C5
:101C500001339142E3605BD00230D4E90532934214
:101C600056DA226903EB830102EB8105013300267A
:101C7000C5E901666361062302F82130E860CDE71B
:101C8000C168E36A8A680E68023A1344E3623378F3
:101C9000732B0FD17278742A0CD1B27852B92046C6
:101CA000FEF7D2FE03462A4620463721BDE8F04122
:101CB000FEF78EBACF68032F2AD8DFE807F0470275
:101CC0007B4F3278702A36D06D2A34D00027732BA0
:101CD00040F0D5807378502B40F0D180B378002B42
:101CE00040F0CD802046FFF767FE0346002FDAD094
:101CF0001A4639212046FEF76BFAD3E7A2E5FEF734
:101D000007BDC368012B3FF475AF022B00D0EBB1C8
:101D1000002583E70133E3602046FFF74DFE2A46A6
:101D2000034604212046BDE8F041FEF751BA0332D4
:101D3000C260012091E771789142C7D1E2681178C1
:101D40005F29C4D10132E2603378BFE72A462046DA
:101D50000023BDE8F0413621FEF73ABA712B40F07E
:101D6000B9807278752A40F0B580B278002A40F0C8
:101D7000B1802046FFF7F0FE06462046FFF7ECFE56
:101D800007462046FFF7E8FE03460028C0D03A4643
:101D90003C212046FEF71CFA324603463B212046F2
:101DA000FEF716FA2A4603463A212046BDE8F041DE
:101DB000FEF70EBAEB681B685A78632A00F0EF80D2
:101DC0003378662B00F00F81642B40F00381737829
:101DD000692B40F0FF80B378002B40F0FB80204659
:101DE000FFF78EFB07463378632B40F0A4807278B0
:101DF0006C2A40F0A080B278002A40F09C804521F7
:101E0000204600F02BF9064633463A463921204653
:101E1000FEF7DEF92A46034638212046BDE8F041A8
:101E2000FEF7D6B90133E3604521204600F016F9EC
:101E3000034638E7931C816BC360937831B1552B0F
:101E400044D8422B2CD8303B092B30D92046FEF702
:101E5000FBFD06462046FFF753FBE3681A78492A44
:101E6000054600F08F802B46324620460121BDE812
:101E7000F041FEF7ADB90332C2600020EDE6204626
:101E8000FFF76AFE034631E70232C260FFF764FEE5
:101E9000002302464C212046BDE8F041FEF798B9E8
:101EA0006D4A433BDBB222FA03F3DB07CED54FF09A
:101EB000FF33A36300212046FFF7B0FDE3681A78E3
:101EC000452A0646C6D10133E360C3E7613B192BBF
:101ED000BCD8ECE7642B06D17378582B03D1B378C8
:101EE000002B3FF446AF3378662B00F081806E2BD9
:101EF0007FF40EAF7378772B02D0612B7FF408AF9D
:101F00005F21204600F0AAF806462046FEF79CFD19
:101F1000E3681A78452A07467AD0702A6CD0692A75
:101F20007FF4F6AE5B786C2B7FF4F2AE2046FFF7C1
:101F300013FE03462BE7642B3FD17278742A3CD101
:101F4000B278002A39D1E3681A78672A47D0732A11
:101F500002D15B78722B38D02046FFF7D1FAE368C4
:101F60001A78492A06467FF44FAF0133E3602046D2
:101F7000FFF722FD3246034604212046FEF728F9EA
:101F8000064641E70133E3602046FFF715FD2A4688
:101F9000034604212046FEF71BF9054663E71B783C
:101FA000A3F17202012A03D9633B012B3FF608AF6C
:101FB0002046FEF749FD074615E7702B05D17378DB
:101FC000742B02D1B378002BBDD02046FFF7C4FD9F
:101FD000064619E72046FFF7BFFD074603E75B7893
:101FE000732BB9D1F1E72046FFF70AFA0746FAE664
:101FF0002046FFF705FABFE65A78692A7FF488AED3
:102000000233E3604521204600F028F80346BEE68F
:102010000133E3600023BAE6742B12D0752B7FF4F2
:10202000D4AD0132C260FEF7DDFB05462046FFF766
:10203000C3FC2A4603463F212046BDE8F041FEF797
:10204000C7B853786C2B7FF4C0AD0232C260FEF784
:10205000FBFCE36805469DE5010204002DE9F04123
:10206000C2680E46117882B00023B1420446019343
:1020700024D001AD012709E0FEF7AAF8286000F19D
:10208000100588B1E3681A78B24211D0D4F83080D4
:1020900027632046FFF760FD024600232E212046DD
:1020A000C4F83080002AE7D1002002B0BDE8F081FA
:1020B00001980133E36002B0BDE8F0810132C260F3
:1020C0002E211A4602B0BDE8F041FEF781B800BFEC
:1020D0002DE9F04F0F4683B0C168131E04460A78FD
:1020E000019315BF4FF01E0A4FF01B0A4FF01D0859
:1020F0004FF01A0814BF1C2619263D464FF0010B5D
:102100001BE0562A32D04B2A36D04B784BB38B1C6F
:10211000E3604B78782B35D06F2B51D1E36A0933CC
:10212000E3625021002300222046FEF751F8286088
:10213000B8B1E1680A7800F10C050846FEF714FA18
:1021400030B34B1C722AE360DBD1E36A0933E362EC
:102150003146002300222046FEF73AF82860002886
:10216000E7D10025284603B0BDE8F08FE36A0933C4
:10217000E36241460023D6E7E36A0633E362514651
:102180000023D0E7E36A1133E3624E210023CAE75C
:10219000019B002BE6D1462AE4D1BD42E2D01D20AE
:1021A0001E211C2204E0192B38D00C37BD42D9D097
:1021B0003F683B781A2B2FD01B2BF4D13970F4E7F2
:1021C0004F2B16D1E36AD4F83090C4F830B00933FD
:1021D000E3622046FFF7C0FCC4F8309003460028B5
:1021E000BFD0E26811784529BBD10132E2605021AD
:1021F00099E7772BB5D1E36A0633E3622046FFF710
:1022000055F803460028ACD0E26811784529A8D1DA
:102210000132E260512186E73870C6E73A70C4E7C0
:102220002DE9F041C16AC36801F11402C2621A7853
:10223000542A044674D0472A26D15A1CC2605A78C0
:1022400012B39A1CC2605A78562A20D8402A1BD949
:10225000413A152A18D8DFE812F0220117001700BA
:1022600017001700170017001700170017001700B6
:1022700017001700170017001700170001011700BB
:10228000E7001700DD00E6600020BDE8F081722A5B
:10229000FAD1FEF715F80128F6DDE3681A78002A6E
:1022A000F2D05E1CE6601A785F2AEDD15B78451E9D
:1022B000002BE9D00020242B40F0E6817378532BCB
:1022C00000F012825F2B00F00D82242BDCD1194626
:1022D0006369A269E668934206F10206D3DA2769C8
:1022E00003EB830C0246013307EB8C004FF0000E2A
:1022F000C0E901EE6361422307F82C30023DC16062
:10230000E66032B1034641212046FDF761FF002817
:10231000BAD0002D40F30A823378002BCBD1B3E73B
:102320005A1CC2605A78002AAED09A1CC2605B78F0
:10233000413B352BA8D801A252F823F0EB2400082A
:1023400089220008FF240008892200088922000849
:102350003B25000889220008B725000861260008EF
:102360004D260008892200088922000889220008D9
:102370008922000889220008892200088922000891
:102380008922000875260008CB250008892200084C
:10239000E3250008FB25000889220008892200089F
:1023A0008922000889220008892200088922000861
:1023B0008922000889220008892200088922000851
:1023C000892200080F2600088922000889220008B7
:1023D00089220008892200084F2500088922000868
:1023E0008922000889220008892200088922000821
:1023F0008922000889220008892200088922000811
:102400008922000889220008892200088922000800
:102410008325000800F092F900230246132120468C
:10242000BDE8F041FDF7D4BE9A78002A00F05E8145
:10243000DA1CC2609A78DB786E2A45D0472B02D02E
:10244000542B40F053812046FFF7EAFE0246204617
:102450000023BDE8F0414A21FDF7BABE00F06EF955
:10246000D4E905129142064680F24A81226901EBC5
:10247000810002EB80050023C5E9013301314323CC
:10248000616102F820302046FDF71AFFE8602B4614
:10249000324620461621BDE8F041FDF799BE9B78F3
:1024A000472B01D0542B0AD12046FFF7B9FE024634
:1024B00020460023BDE8F0411721FDF789BE002129
:1024C00000F09EFA0246F3E7472B00F02581542BDB
:1024D00000F02281002100F093FA024620460023FA
:1024E000BDE8F0414B21FDF773BEFFF73BFA002337
:1024F000024630212046BDE8F041FDF769BEFEF7F7
:10250000A3FA05462046FDF7DBFE0028FFF6BCAE29
:10251000E3681A785F2A7FF4B7AE0133E3602046A0
:10252000FEF792FAE16A0531E16202462B46204647
:102530000B21BDE8F041FDF74BBEFEF785FA002305
:1025400002460E212046BDE8F041FDF741BE68215C
:10255000FDF7F0FE00283FF497AEE3681B78472BA9
:1025600000F0D080542B00F0CD800021204600F0F8
:1025700047FA024620460023BDE8F0410F21FDF74F
:1025800027BE7621FDF7D6FE00283FF47DAEE36836
:102590001B78472B00F0BB80542B00F0B880002143
:1025A000204600F02DFA024620460023BDE8F04107
:1025B0001021FDF70DBE00F0C1F8002302461421E2
:1025C0002046BDE8F041FDF703BE0A31C162FEF7C7
:1025D0003BFA002302460A212046BDE8F041FDF700
:1025E000F7BD0F31C162FEF72FFA00230246092121
:1025F0002046BDE8F041FDF7EBBD00F09FF8002359
:10260000024615212046BDE8F041FDF7E1BD00215D
:10261000FDF790FE00283FF437AE00212046FDF77D
:1026200089FE00283FF430AEE3681B78472B78D052
:10263000542B76D00021204600F0E2F902462046D5
:102640000023BDE8F0411121FDF7C2BDFEF7FCF902
:102650000023024612212046BDE8F041FDF7B8BD37
:10266000FEF7F2F9002302460C212046BDE8F041B6
:10267000FDF7AEBDFEF7E8F9002302460D21204626
:10268000BDE8F041FDF7A4BD06F1FF3C002104E0E8
:10269000242B06D001318D4203D01CF8013F002BC2
:1026A000F6D1D4E90532934226DA276903EB830297
:1026B00007EB820C01334FEA820E0022CCE90122A3
:1026C000636100293FF4E0ADCCE9012207F80E2058
:1026D000CCF80C60E668CCF8101002466D1A604623
:1026E0000E440DE62E21F3E52F21F1E500212046D1
:1026F00000F086F90246AAE6E3680B44E360C3E50E
:102700000025C4E62046FFF78BFD024632E720464F
:10271000FFF786FD024647E72046FFF781FD0246A8
:10272000DCE62046FFF77CFD024688E702460023F0
:1027300020464021BDE8F041FDF74ABDF0B5C26832
:1027400013784E3B85B004460C2B08D8DFE803F025
:102750003007070707160711070707075300FEF79B
:10276000CFFEE3681A78492A05467DD0284605B091
:10277000F0BD05B0BDE8F040FEF7C2BE5378742B43
:1027800000F083800021FEF79BF8E3681A78492A5D
:102790000546EBD10133E3602046FFF70DF9034610
:1027A0002A460421204605B0BDE8F040FDF710BDE3
:1027B0000132C26003A90122FFF78AFC0546002806
:1027C00000F09B80E3681A78522A00F0EF804F2ACD
:1027D00000F09C8001212046FFF720F928600028A6
:1027E00000F08B80E3681A78452A40F08680013338
:1027F000039DE360BAE7531CC3605378472B01D0B5
:10280000542B7ED12046FFF70BFD0546002D74D0DA
:10281000E3681A78452A70D15A1CE2605A78732A04
:1028200000F0CA80642A00F08B802046FFF786FF04
:102830000346002800F0BE800278472A08D0492AC3
:1028400006D001902046FDF799FD019B002854D049
:102850002A78032A05D12A691178292904BF002181
:10286000D1602A4602219DE7002846D0D4E90821FC
:102870008A4242DAE16941F82200013222621A7882
:10288000493A012A86D900238AE7D0E90531023284
:102890008B42C26080F2AC80026903EB8305A90021
:1028A0000133436102EB85050023C5E9013353542D
:1028B000514A0323C5E903232046FEF721FE2A4699
:1028C000034601212046FDF783FCE26AE3680332F8
:1028D000E2621A78492A05467FF448AF68B1D4E924
:1028E00008218A4209DAE16941F8220001322262B4
:1028F0001A78493A012AC6D84CE70025284605B07F
:10290000F0BD002100F07CF805467FE7E06A202159
:1029100003305A1C0023E062E26020461A46FDF7AD
:1029200057FC012106462046FFF778F8286000286A
:10293000E3D0002E3FF456AF039BF360039651E7BC
:102940009A1CE2609B785F2B54D06E2BD5D020462A
:10295000FDF7B6FC461CD0D4E26813785F2BCCD1CF
:102960000132E2602046FFF7E9FE074648B10378EE
:10297000472B06D0492B04D02046FDF7FFFC00284A
:10298000BBD0D4E905239A4214DA216902EB820014
:1029900001EB800301324FF0000CC3E901CC62610E
:1029A000482201F82020C3E9037651E7E06A1F219D
:1029B0000230AEE700234BE70233E3602046FDF729
:1029C000DDFC002899D0D4E905239A42F2DA216986
:1029D00002EB820398000132626101EB8303002263
:1029E000C3E901220A5405490E22C3E903122FE765
:1029F000002561E70026B3E7781101086811010896
:102A000070B505460E46FFF799FE00B304460EB3B7
:102A1000AB68DB071ED423784E2BA3F11C01A3F176
:102A200050023AD037D8042937D9022B10D1236964
:102A30006BB11A784E2AA2F11C00A2F1500102D00B
:102A40003DD8042804D8DB682361002BF1D1002491
:102A5000204670BDEB681B78002BF9D0452BF7D0D2
:102A600021460B78042B2DD01ED8022B1AD10969D0
:102A70000029F6D12846FEF759FC03460028E6D087
:102A800016B92278022A31D0224628460321BDE811
:102A90007040FDF79DBB012ADAD8E468BBE71C3B18
:102AA000042B08D90021E5E74E2BA3F1500202D0F8
:102AB000F5D9012AF6D8C9680029D2D1DAE7012967
:102AC000C6D8C0E7CB685BB11978082901F1FF329D
:102AD00008D80629E6D8012A02D81B69002BF3D1B1
:102AE0000121C7E7353918BF0121C3E70278292A38
:102AF00008BFC660C8E700BF2DE9F04F044695B097
:102B0000002A72D0D0F81861002E71D117781546BE
:102B1000512F6AD8DFE817F0260946014601A101C6
:102B20002C05F702EC0211010A0633080D083802E1
:102B30002203940859081202BA047E04580432048D
:102B40000605E0047B01B30288026F006F006F008E
:102B50008C008C008C008C008C008C008C00BF00E2
:102B6000BF008C008C0051098400E3058705A90093
:102B70006605A900130113015501D207A8078207B2
:102B800069005C070508F707C80869009D06690029
:102B90006900E100E1007A0645063F06BA08E00652
:102BA000EC0119063607100769000C04E603C003A0
:102BB000720348038C005E028C008C001146FDF706
:102BC0000FFD024688B103782F2B41F03A83D4F8E9
:102BD0002431002BC1F23583002B01F02E831269C2
:102BE000013B12B111782F29F6D00123C4F8183116
:102BF00015B0BDE8F08FD0F814118C46002901F013
:102C000052870B4601E01B68A3B19A68002AFAD1EB
:102C10005A681278A2F1190002280BD89742F2D113
:102C2000EA681121204615B0BDE8F04F01F0AABFB7
:102C3000D0F81411D4F8103107930023CDE90553CF
:102C400004AAC4F814210491EA681121204601F075
:102C500099FF069B002B01F0A582049BC4F8143158
:102C6000002EC5D0C4F81081C2E7D0E9443104AACF
:102C7000C0F814210022CDE90415069211212A6919
:102C8000079301F07FFF069B002B01F01184049B4A
:102C9000C4F81431ACE7D268D0F820911378B9F1B8
:102CA000000F03D1052B01F03E854E461046232B25
:102CB00001F010849F42D4F814C101F04984242B00
:102CC00001F0F480D4F81031079304ABC4F8143148
:102CD0000023CDE904C50693B7E7D2681378272B04
:102CE00041F03B83D3681E7C062E01F28C82002EBD
:102CF00041F05385D4F80011FF2901F003854B1CE6
:102D0000C4F80031282363542046112184F804318B
:102D100001F038FFD4F80011FF2901F0E3844B1CC7
:102D2000C4F800312923635484F804312B783E2BF6
:102D300001F0D284082E01F0C3842A6971E7D268B9
:102D400012B1112101F01EFF2B69002B3FF450AF8F
:102D5000D4F80061FD2E01F2E783CD4F4FF000095A
:102D600007F1020A314609E00B460131BA45C4F8C1
:102D70000011E65484F8046101F01B82FF2917F862
:102D8000016BF1D1D4F80831D4F80C2184F8FF900C
:102D900020469847D4F828310133C4F8283101215E
:102DA0000023E3E7D268112101F0ECFEB949204687
:102DB000FDF77AFC2F693B78482B01F02A803A46D0
:102DC0002FE7B54ED0F8001106F11E094FF00008AC
:102DD00009E00B460131B145C4F80011E75484F80D
:102DE00004713FF41DAFFF2916F8017FF1D1D4F82B
:102DF0000831D4F80C2184F8FF8020469847D4F895
:102E000028310133C4F8283101210023E3E7A34E20
:102E1000D0F8001106F115094FF0000809E00B4643
:102E20000131B145C4F80011E75484F8047101F090
:102E3000CC80FF2916F8017FF1D1D4F80831D4F8FD
:102E40000C2184F8FF8020469847D4F828310133BC
:102E5000C4F8283101210023E3E7D768D0F81491A2
:102E60000022C0F81421002F3FF4BFAE0DF110086E
:102E7000D0F81011434694469646C3E90027C3E9AB
:102E800002E13A784E2A9A46A2F11C0BA2F15000B8
:102E90000CF1010601F01D8001F21880BBF1040F56
:102EA00041F21780C4F814313B78022B01F0A28361
:102EB000042B04D1CDE9021702ABC4F810312A6902
:102EC0001121204601F05EFE3B78042B02D1029BCB
:102ED000C4F8103108EB0615202755F8086C002EB1
:102EE00001F07E81103DA845F7D1C4F814917FE62A
:102EF0006B4ED0F8001106F10A094FF0000809E006
:102F00000B460131B145C4F80011E75484F804714F
:102F100001F05980FF2916F8017BF1D1D4F808316E
:102F2000D4F80C2184F8FF8020469847D4F8283143
:102F30000133C4F8283101210023E3E7594ED0F8CA
:102F4000001106F115094FF0000809E00B460131A8
:102F5000B145C4F80011E75484F804713FF460AE41
:102F6000FF2916F8017FF1D1D4F80831D4F80C21EB
:102F700084F8FF8020469847D4F828310133C4F8FC
:102F8000283101210023E3E7474ED0F8001106F174
:102F900018094FF0000809E00B4601314E45C4F80E
:102FA0000011E75484F8047100F0A087FF2916F897
:102FB000017FF1D1D4F80831D4F80C2184F8FF80D6
:102FC00020469847D4F828310133C4F8283101212C
:102FD0000023E3E7354ED268112101F0D3FD06F15D
:102FE0000809D4F800114FF0000809E00B46013140
:102FF000B145C4F80011E75484F8047100F0438728
:10300000FF2916F8017FF1D1D4F80831D4F80C214A
:1030100084F8FF8020469847D4F828310133C4F85B
:10302000283101210023E3E7D2E90353002B3FF4C9
:10303000DFAD2B44D0F80011013D5F1E4FF00008BA
:1030400009E00B460131AF42C4F80011E65484F8A0
:1030500004613FF4CDADFF2915F8016FF1D1D4F82B
:103060000831D4F80C2184F8FF8020469847D4F822
:1030700028310133C4F8283101210023E3E70C4E45
:10308000D0F8001106F111094FF000081CE000BF54
:103090002413010884110108A3110108C3120108B7
:1030A0008813010837120108DB1101080714010811
:1030B000DB1201080B460131B145C4F80011E75499
:1030C00084F804713FF4ACADFF2916F8017FF1D10B
:1030D000D4F80831D4F80C2184F8FF8020469847B2
:1030E000D4F828310133C4F8283101210023E3E763
:1030F000D568002D41F0B280CA49204615B0BDE820
:10310000F04FFDF7D1BAD0F82031002B3FF456AD87
:10311000C54ED0F8001106F105094FF0000809E08E
:103120000B460131B145C4F80011E75484F804712D
:1031300001F0E280FF2916F8017BF1D1D4F80831C3
:10314000D4F80C2184F8FF8020469847D4F8283121
:103150000133C4F8283101210023E3E7B34ED0F84E
:10316000001106F10D094FF0000809E00B4601318E
:103170004E45C4F80011E75484F804713FF450AD93
:10318000FF2916F8017BF1D1D4F80831D4F80C21CD
:1031900084F8FF8020469847D4F828310133C4F8DA
:1031A000283101210023E3E7A14ED268112101F06B
:1031B000E9FC06F10509D4F800114FF0000809E018
:1031C0000B4601314E45C4F80011E75484F80471F0
:1031D00000F05986FF2916F8017BF1D1D4F80831A7
:1031E000D4F80C2184F8FF8020469847D4F8283181
:1031F0000133C4F8283101210023E3E7D2F80C8021
:103200004146FDF707FA002730B901F02CBBC3682F
:103210002BB10069013728B103782F2BF7D0002F8D
:103220003FF4E6ACC34607F1FF394FF0000AA04671
:1032300003E00136B7423FF4DBACC8F824615A46DC
:103240001121404601F09EFC4E45F2DA794D01967F
:10325000D8F80011AC1C46460AE00B460131AC42DE
:10326000C6F8001106F8038086F8048100F007868E
:10327000FF2915F8018BF0D1D6F80831D6F80C21CA
:1032800086F8FFA030469847D6F828310133C6F8B3
:10329000283101210023E2E7674ED0F8001106F142
:1032A0001A094FF0000809E00B4601314E45C4F8F9
:1032B0000011E75484F804713FF4B2ACFF2916F80A
:1032C000017FF1D1D4F80831D4F80C2184F8FF80C3
:1032D00020469847D4F828310133C4F82831012119
:1032E0000023E3E7554ED0F8001106F116094FF020
:1032F000000809E00B4601314E45C4F80011E754BF
:1033000084F804713FF48CACFF2916F8017FF1D1E9
:10331000D4F80831D4F80C2184F8FF80204698476F
:10332000D4F828310133C4F8283101210023E3E720
:10333000434ED0F8001106F10E094FF0000809E0E5
:103340000B4601314E45C4F80011E75484F804716E
:1033500000F06686FF2916F8017FF1D1D4F8083114
:10336000D4F80C2184F8FF8020469847D4F82831FF
:103370000133C4F8283101210023E3E7314ED0F8AE
:10338000001106F113094FF0000809E00B46013166
:10339000B145C4F80011E75484F804713FF440AC1F
:1033A000FF2916F8017FF1D1D4F80831D4F80C21A7
:1033B00084F8FF8020469847D4F828310133C4F8B8
:1033C000283101210023E3E71F4ED0F8001106F158
:1033D0000F094FF0000809E00B460131B145C4F870
:1033E0000011E75484F804713FF41AACFF2916F871
:1033F000017FF1D1D4F80831D4F80C2184F8FF8092
:1034000020469847D4F828310133C4F828310121E7
:103410000023E3E70D4ED0F8001106F11A094FF032
:1034200000081FE0981301089C1101080012010810
:103430007C11010824130108EF120108F31201089E
:10344000F71301087B1201086B1201084F120108E3
:103450000B460131B145C4F80011E75484F80471FA
:103460003FF4DEABFF2916F8017FF1D1D4F8083123
:10347000D4F80C2184F8FF8020469847D4F82831EE
:103480000133C4F8283101210023E3E7C94ED0F805
:10349000001106F111094FF0000809E00B46013157
:1034A000B145C4F80011E75484F804713FF4B8AB97
:1034B000FF2916F8017FF1D1D4F80831D4F80C2196
:1034C00084F8FF8020469847D4F828310133C4F8A7
:1034D000283101210023E3E7B74ED0F8001106F1AF
:1034E00019094FF0000809E00B4601314E45C4F8B8
:1034F0000011E75484F804713FF492ABFF2916F8E9
:10350000017FF1D1D4F80831D4F80C2184F8FF8080
:1035100020469847D4F828310133C4F828310121D6
:103520000023E3E7A54ED0F8001106F116094FF08D
:10353000000809E00B460131B145C4F80011E75419
:1035400084F804713FF46CABFF2916F8017FF1D1C8
:10355000D4F80831D4F80C2184F8FF80204698472D
:10356000D4F828310133C4F8283101210023E3E7DE
:103570000023D0F81461D0F84871C4F84821112113
:10358000C0F81431D26801F0FDFA94F804313C2BF4
:1035900001F09080D4F80011FF2901F07A804B1CD3
:1035A000C4F800313C23635484F804312A691121A2
:1035B000204601F0E7FA94F804313E2B01F06380D5
:1035C000D4F80011FF2901F04E804B1CC4F80031E3
:1035D0003E23635484F80431C4F81461C4F848717C
:1035E000FFF706BBB2F91230002B40F05C87EA68A7
:1035F000734BD16899420FD01121204601F0C2FAD5
:10360000D4F80011FF2901F0368120234A1CC4F8A8
:103610000021635484F80431B5F91030002B00F018
:103620005B86684969E5D0F814C1D0F8103107937A
:103630000DF110080023E146CDF810C0C0F8148148
:1036400005920693BCF1000F01F00882012766463F
:10365000BE469446454618E0B368A3B9032F3FF62B
:10366000C4AA14AB03EB071B96E80F00ABF1400AAA
:103670008AE80F004BF8405C08EB0715C4F81451BA
:103680000137C6F808E0366826B173681B78193B25
:10369000022BE1D9DCF8102011212046654601F00B
:1036A00071FA069BC4F81491002B7FF4A1AA012F94
:1036B0000CD008EB071858F80C2C013F11212046BC
:1036C00001F08EFA012FA8F11008F4D1D4F81431CA
:1036D0002A461121204601F08DFFFFF789BAD268F2
:1036E000D0F814C1CAB104ABC0F81431002306935A
:1036F0001121D0F810310793CDE904C501F042FA49
:10370000069B049AC4F81421002B7FF471AA20218F
:103710002046FCF743FFD4F814C163462A46112122
:10372000204615B0BDE8F04F01F068BDD0F800119B
:10373000FF2900F011874A1C7E23C4F8002163543E
:1037400084F804312A69FFF76CBA1F4ED0F80011D3
:1037500006F11D094FF0000809E00B460131B145A3
:10376000C4F80011E75484F804713FF459AAFF2902
:1037700016F8017FF1D1D4F80831D4F80C2184F87F
:10378000FF8020469847D4F828310133C4F8283107
:1037900001210023E3E7D268112101F0F3F9FFF7DB
:1037A000CCBA0A4ED0F8001106F10E094FF000080D
:1037B00018E000BF3B120108A71201088F12010890
:1037C0002C07010814130108A71301087713010837
:1037D0000B460131B145C4F80011E75484F8047177
:1037E0003FF41EAAFF2916F8017FF1D1D4F8083161
:1037F000D4F80C2184F8FF8020469847D4F828316B
:103800000133C4F8283101210023E3E71121D268F4
:1038100001F0B8F9D4F80011FF2900F0D1864A1C54
:103820002823C4F80021635484F804312A69112143
:10383000204601F0A7F9D4F80011FF2900F09F8578
:103840004A1C2923C4F80021635484F80431FFF78B
:10385000CFB913691A783B2A7FF4C7A91B691B7873
:103860003C2B7FF4C2A92A46112102F013FA00284A
:103870007FF4BEA92A461121204602F031FB002820
:103880007FF4B6A9D5E90383D3E90363D8F80C2004
:10389000D2491068D3E9037504F0A0F9002841F07B
:1038A000328132461121204602F07AF94246112136
:1038B000204601F077FF112120463A4602F070F9C8
:1038C000C7492046FCF7F0FE2A461121204615B0D4
:1038D000BDE8F04F02F064B9D268C24904A808F00C
:1038E00043FF04A804F0D4F900283FF481A904ADF3
:1038F000D4F800112F184FF0000809E00B460131F1
:10390000AF42C4F80011E65484F804613FF470A992
:10391000FF2915F8016BF1D1D4F80831D4F80C2146
:1039200084F8FF8020469847D4F828310133C4F842
:10393000283101210023E3E7AB4ED0F8001106F156
:1039400008094FF0000809E00B4601314E45C4F864
:103950000011E75484F8047100F0C183FF2916F8C0
:10396000017FF1D1D4F80831D4F80C2184F8FF801C
:1039700020469847D4F828310133C4F82831012172
:103980000023E3E7994ED0F8001106F11C094FF02F
:10399000000809E00B460131B145C4F80011E754B5
:1039A00084F804713FF43CA9FF2916F8017FF1D196
:1039B000D4F80831D4F80C2184F8FF8020469847C9
:1039C000D4F828310133C4F8283101210023E3E77A
:1039D000874ED0F8001106F109094FF0000809E000
:1039E0000B460131B145C4F80011E75484F8047165
:1039F00000F05883FF2916F8017FF1D1D4F808317F
:103A0000D4F80C2184F8FF8020469847D4F8283158
:103A10000133C4F8283101210023E3E7744ED0F8C4
:103A2000001106F109094FF0000809E00B460131C9
:103A3000B145C4F80011E75484F804713FF47DA93E
:103A4000FF2916F8017FF1D1D4F80831D4F80C2100
:103A500084F8FF8020469847D4F828310133C4F811
:103A6000283101210023E3E7D2F80C80614DD8F81A
:103A700008A0D0F8001105F108074FF0000909E08F
:103A80000B460131AF42C4F80011E65484F80461DA
:103A900000F06482FF2915F8016FF1D1D4F80831E4
:103AA000D4F80C2184F8FF9020469847D4F82831A8
:103AB0000133C4F8283101210023E3E7D2E90325CB
:103AC00012B1112101F05EF8D4F80011FF2900F0C5
:103AD00065854A1C7B23C4F80021204663542A468E
:103AE000112184F8043101F04DF8D4F80011FF29B8
:103AF00000F0C9824A1C7D23C4F80021635484F875
:103B00000431FFF775B8D2E903653378322B00F042
:103B10004684342B00F0E9843246112101F042FE44
:103B2000D2E6D2681121204615B0BDE8F04F01F071
:103B300039BE314ED0F8001106F108094FF00008E7
:103B400009E00B460131B145C4F80011E75484F88F
:103B500004713FF465A8FF2916F8017FF1D1D4F86C
:103B60000831D4F80C2184F8FF8020469847D4F817
:103B700028310133C4F8283101210023E3E71F4E27
:103B8000D0F8001106F10B094FF0000809E00B46D0
:103B90000131B145C4F80011E75484F804713FF4D1
:103BA0003FA8FF2916F8017BF1D1D4F80831D4F8E9
:103BB0000C2184F8FF8020469847D4F8283101333F
:103BC000C4F8283101210023E3E70D4ED0F800119D
:103BD00006F110094FF000081EE000BF4C13010869
:103BE0005013010814110108E7130108C713010855
:103BF0003313010827130108CF110108C41101086C
:103C0000231201080B460131B145C4F80011E754F5
:103C100084F804713FF404A8FF2916F8017FF1D15C
:103C2000D4F80831D4F80C2184F8FF802046984756
:103C3000D4F828310133C4F8283101210023E3E707
:103C4000C04ED0F8001106F112094FF0000809E04B
:103C50000B4601314E45C4F80011E75484F8047155
:103C60003EF4DEAFFF2916F8017FF1D1D4F8083118
:103C7000D4F80C2184F8FF8020469847D4F82831E6
:103C80000133C4F8283101210023E3E7D0F8001103
:103C9000157BFF2900F071844B1CC4F8003165547A
:103CA00084F80451FEF7A4BF13691B78392B7EF406
:103CB0009CAFD268D3681B685978632900F092855D
:103CC0002A461121204601F0E5FF00287EF490AF3E
:103CD0002A461121204602F003F900287EF488AF1D
:103CE000EB681A78322A00F0C586DB6896491868B6
:103CF00003F074FF2B69DA6818B91378032B00F00E
:103D00001F871121204601F04BFFEE688F49F368B1
:103D10001F68384603F062FF002800F0C7868A4912
:103D2000384603F05BFF002840F0D0862B69112154
:103D30001A69204601F034FFEB681A78322A7EF4C3
:103D400057AFDB689A68012A7EF452AF5B681B7834
:103D50003E2B7EF44DAF2921204615B0BDE8F04F33
:103D6000FCF71CBCD2E90353002B3EF441AF2B44BB
:103D7000D0F80011013D5F1E4FF0000809E00B462E
:103D80000131AF42C4F80011E65484F804613EF4F6
:103D90002FAFFF2915F8016FF1D1D4F80831D4F80D
:103DA0000C2184F8FF8020469847D4F8283101334D
:103DB000C4F8283101210023E3E7D268D2E9005397
:103DC000002B3EF415AF2B44D0F80011013D5F1ECF
:103DD0004FF0000809E00B460131AF42C4F8001172
:103DE000E65484F804613EF403AFFF2915F8016F2F
:103DF000F1D1D4F80831D4F80C2184F8FF802046A2
:103E00009847D4F828310133C4F828310121002320
:103E1000E3E74F492046FCF747FC3A694D49013238
:103E200004A808F0A1FC04A803F032FF8146002892
:103E300000F0D88304ADD4F80011A9444FF0000875
:103E400009E00B460131A945C4F80011E65484F895
:103E5000046100F0C783FF2915F8016BF1D1D4F894
:103E60000831D4F80C2184F8FF8020469847D4F814
:103E700028310133C4F8283101210023E3E7B0469B
:103E8000019EFFF7D6B911212A69204600F07AFE7B
:103E9000D4F80011FF2900F063824A1C5D23C4F8A6
:103EA0000021635484F80431FEF7A2BED4F8103127
:103EB000C268079304ABC4F814310023CDE904C5EC
:103EC0000693002A7EF4C1AEFEF7BEBE01283EF680
:103ED000E9AFFF685246002F00F02E86042E03F152
:103EE000100300F0FD82B446FEF7C7BF1A4EEA6821
:103EF0001121204600F046FE06F10409D4F8001115
:103F00004FF0000809E00B460131B145C4F800113B
:103F1000E75484F804713EF410AFFF2916F8017BD2
:103F2000F1D1D4F80831D4F80C2184F8FF80204670
:103F30009847D4F828310133C4F8283101210023EF
:103F4000E3E700BF0F1201084413010848130108FA
:103F50008811010814110108F8110108D8F804505B
:103F60002B78613B192B40F2AA820AF1FF37EB5DF7
:103F7000202B18BF5746002F3EF43AAE013DD4F82F
:103F800000112F444FF0000809E00B460131BD42FB
:103F9000C4F80011E65484F804613EF429AEFF2908
:103FA00015F8016FF1D1D4F80831D4F80C2184F858
:103FB000FF8020469847D4F828310133C4F82831CF
:103FC00001210023E3E7EA6831E4C54E2A691121A3
:103FD000204600F0D7FD06F10509D4F800114FF096
:103FE000000809E00B460131B145C4F80011E7545F
:103FF00084F804713EF414AEFF2916F8017BF1D168
:10400000D4F80831D4F80C2184F8FF802046984772
:10401000D4F828310133C4F8283101210023E3E723
:10402000EA68B049013204A808F09EFB04A803F036
:104030002FFE18B304ADD4F800112F184FF000086C
:1040400008E00B460131AF42C4F80011E65484F891
:10405000046115D0FF2915F8016BF2D1D4F80831AD
:10406000D4F80C2184F8FF8020469847D4F82831F2
:104070000133C4F8283101210023E4E7D4F800110A
:10408000FF297FF437AD0025D4E9423284F8FF5090
:1040900020469847D4F8283101221344C4F8283127
:1040A000294628E5D4F8483133B1D4F810110491E9
:1040B00004AAC4F810210593EA681378042B00F0D1
:1040C000BD811121204600F05DFDD4F84831002B60
:1040D0003EF48EAD049BC4F81031FEF789BDD4F8D0
:1040E0002031EA68804E0133C4F820311121204686
:1040F00000F048FDD4F82031D4F80011013BC4F899
:10410000203106F102094FF0000808E00B460131AA
:10411000B145C4F80011E75484F8047113D0FF29A5
:1041200016F8017BF2D1D4F80831D4F80C2184F8C8
:10413000FF8020469847D4F828310133C4F828314D
:1041400001210023E4E72A696649013204A808F046
:104150000BFB04A803F09CFD00288FD004ADD4F81D
:1041600000112F184FF0000808E00B460131AF4254
:10417000C4F80011E65484F8046181D0FF2915F8D1
:10418000016BF2D1D4F80831D4F80C2184F8FF8007
:1041900020469847D4F828310133C4F8283101214A
:1041A0000023E4E72A461121204600F019FDFEF71E
:1041B00054BD2A69D4F828510E462046112100F03A
:1041C000E1FCD4F82831AB427EF412ADD4F80031D2
:1041D000B3427EF40DAD023EC4F80061FEF708BDA7
:1041E000D4F80031FF2B00F02183581CC4F80001E3
:1041F00055F80C2CE754112184F80471204600F086
:10420000EFFCFEF76FBE072E7EF474AD2B691978B4
:1042100000297EF46FAD196901297EF46BAD3D2F45
:104220007EF468ADDB681B78302B00F0A384312B63
:104230007EF460AD2D49FEF760BFD268002A3EF4DF
:10424000D4ACD4F810512B68C4F810311121204699
:1042500000F098FCC4F81051FEF7CABC2449FCF7E2
:1042600023FA20492A4604A808F07EFA04A803F09D
:104270000FFD18B304ADD4F800112F184FF000084B
:1042800008E00B460131AF42C4F80011E65484F84F
:10429000046115D0FF2915F8016BF2D1D4F808316B
:1042A000D4F80C2184F8FF8020469847D4F82831B0
:1042B0000133C4F8283101210023E4E7D4F80011C8
:1042C000FF2900F0C2827D234A1CC4F800216354F8
:1042D00084F80431FEF78CBC0649FEF70EBF00BF20
:1042E000BC12010814110108F4130108701301082D
:1042F000A01301081C130108EA68C949013204A887
:1043000008F032FA04A803F0C3FC00283EF470ACB5
:1043100004ADD4F800112F184FF0000809E00B4647
:104320000131AF42C4F80011E65484F804613EF450
:104330005FACFF2915F8016BF1D1D4F80831D4F83E
:104340000C2184F8FF8020469847D4F828310133A7
:10435000C4F8283101210023E3E70026FEF7CABC98
:104360000025D4E9423284F8FF5020469847D4F81B
:10437000283101221344C4F8283129468EE500254E
:10438000D4E9423284F8FF5020469847D4F82831C7
:1043900001221344C4F828312946FFF752BAF368C2
:1043A0001F683B78B3F1610203D17A78643A08BFA1
:1043B000BA78297812B9032900F0EC82392900F083
:1043C0006A83732B14D17A785A2A40F06582BA78BE
:1043D000002A40F0618229462046FCF71BF9FCF7D1
:1043E0005DF80146204615B0BDE8F04FFCF7BEB9B8
:1043F00032461121204601F0D5F93B78672B07D1D1
:104400007A78732A04D1BA7812B92A46FEF709BC21
:10441000732B7FF459AA7B78742B7FF455AABB7851
:10442000002B7FF451AA28212046FCF7B7F8112170
:104430002A46204600F0A6FB29218DE4D2681121EE
:10444000204600F09FFBD4F8483113B1049BC4F818
:10445000103194F804313C2B00F07082D4F8001134
:10446000FF2900F05B824A1C3C23C4F800216354FE
:1044700084F80431EB6811211A69204600F082FBB0
:1044800094F804313E2B00F04482D4F80011FF2947
:1044900000F031823E234A1CC4F80021635484F8A2
:1044A0000431FEF7A5BB5F49FCF7FEF8FFF79FB8A4
:1044B0002A461121204600F093FBFEF7E8BBFF29B6
:1044C00000F041824B1CC4F800312023635484F86F
:1044D00004314AE5C268D4F814C10546FEF7F2BBC0
:1044E0000123C4E945A3FEF783BBD0F80011FF29DF
:1044F00000F06B824B1CC4F800312823635484F80D
:1045000004311121F268204600F03CFBD4F8001180
:10451000FF2900F04A8229234A1CC4F80021635471
:1045200084F80431FFF7D0B90027A7553146D4E904
:10453000423220469847D4F82831C4F8007101333C
:10454000C4F828313E46FEF708BCD4F814C14E46E4
:10455000C2680546FEF7B6BB0026D0F80831D0F891
:104560000C2180F8FF609847D4F8283101221344C9
:10457000C4F828313146FFF7DFB80026D0F80831FB
:10458000D0F80C2180F8FF609847D4F82821012347
:104590001A44C4F828213146FFF77FBB0026D4F81F
:1045A0000831D4F80C2184F8FF6020469847D4F8ED
:1045B000283101221344C4F828313146FFF78ABA62
:1045C0000026D4F80831D4F80C2184F8FF60204686
:1045D0009847D4F8283101221344C4F828313146D1
:1045E000FFF71EB910492046FCF75EF8FF683A460F
:1045F000FEF717BB3F693B78482B00F0C58108EBFD
:104600000C1C8B464E2BA3F11C01A3F150020FD0C2
:104610000CD804290CD93B785946FEF749BC00BF99
:10462000141101080C13010898110108012AF2D88D
:10463000042EE2463EF4D9AA9CE80F000CF1100EBD
:104640008EE80F000023CCF810C0CAE90173FF68A0
:10465000C4F814E10136F446CAF80CB0002F3EF459
:10466000C4AA3B78CEE70025D4E9423284F8FF5053
:1046700020469847D4F828310133C4F82831294618
:104680000123FEF7A3BF20212046FBF787FFFEF79B
:1046900097BF4FF00008D4E9423284F8FF802046EB
:1046A0009847D4F828310133C4F828314146012312
:1046B000FEF776BF20212046FBF770FFFEF76ABFAA
:1046C0005B212046FBF76AFF11212A69204600F092
:1046D00059FA5D21FFF740BB2D212046FBF75EFF15
:1046E000FEF728BB0027D4E9423284F8FF70204649
:1046F0009847D4F828310133C4F8283139460123CA
:10470000FEF70EBB0027D4E9423284F8FF70204642
:104710009847D4F82831EA680133C4F8283139467B
:104720000123FEF7EDBAD0F83461002E40F3698121
:10473000D0F830C14B46604604E0B34200F10800B7
:1047400000F05F815CF833108A4203F10103F4D179
:10475000002800F05681D4F82C61002E00F003816F
:10476000334603E05B68002B00F0FD80196891423E
:1047700003D0A942F6D1B342F4D0114620460192AB
:10478000FBF72EFF019A00283EF42FAA03782F2B67
:1047900000F028814E46FEF78ABA2B691B78002B61
:1047A0007EF4A8AA3E2F00F0D9812A691121204663
:1047B000023E00F0E7F9042E3EF61AAADFE806F002
:1047C0000F0C09060300C949FEF797BCC849FEF75C
:1047D00094BCC849FEF791BC6C21FFF7BDBA7521A6
:1047E000FFF7BABA1B78A3F17201012903D9633B21
:1047F000012B3FF665AA1121204600F0D3FF3C2192
:104800002046FBF7CBFE2B691121DA68204600F029
:10481000B9F9B9492046FBF747FF2B6911211A69FD
:10482000204600F0AFF92921FFF796BA1946204635
:10483000D4E9423284F8FF609847D4F82821013245
:104840003346C4F828210120D0E40025D4E94232BF
:1048500084F8FF5020469847D4F828310133294680
:10486000C4F828312FE511212046424601F098F97D
:10487000A249FEF742BC0026D4F80831D4F80C2136
:1048800084F8FF6020469847D4F828310133314638
:10489000C4F82831FEF7B9BE732B7FF4A9AD7B783D
:1048A000502B7FF4A5ADBB78002B7FF4A1AD1E4645
:1048B00004E001362D69002D00F0A1802B782F2B0C
:1048C00040F09D80EB68002B00F099801A784C2A0C
:1048D000EFD1D9682046FBF79DFE024648B1002281
:1048E00004E0C16829B10069013210B101782F29B3
:1048F000F7D01644DEE70025D4E9423284F8FF50B1
:1049000020469847D4F8283101332946C4F8283185
:10491000C0E520212046FBF741FEB6E50026D4F88D
:104920000831D4F80C2184F8FF6020469847D4F869
:10493000283101333146C4F8283194E5202120463E
:10494000FBF72CFE8AE50026D4E9423284F8FF60AA
:1049500020469847D4F82831D8F804500133C4F8D9
:1049600028313146AEE54368D4F81081C4F81031DF
:10497000114620460192FBF733FE002800F0B1807B
:10498000019A4FF0010901E7FF68002F3EF42DA9BD
:104990003B7834E6EA68117801297FF412AD296981
:1049A0000978292908BF15460BE50026D4F80831F7
:1049B000D4F80C2184F8FF6020469847D4F82831B9
:1049C00001333146C4F82831A5E50027D0E9423249
:1049D00080F8FF709847D4F8283101333946C4F87D
:1049E000283187E5D4F824110029C0F2BB80FBF7F9
:1049F00065FD002871D003784E46FEF758B9314660
:104A0000F0E4D4F83831B3427EF7EFA8D4F830118F
:104A1000D4F810C101EBC603701CC4F83401043390
:104A200041F83620BCF1000F6AD0D4E9506011E0A3
:104A3000D4F83C11DCF804E001EBC6010136C4F8FF
:104A40004061C1F804E01960DCF800C00B46BCF11D
:104A5000000F55D08642EBDBFEF7C7B81269112173
:104A600000F090F8069BC4F81491002B3EF42EAE93
:104A7000FEF7BEB8DA68916801297FF436A952685A
:104A800012783E2A7FF431A928212046FBF786FDC3
:104A9000EB68FFF72AB9EA681121204601F080F897
:104AA0003246FFF73FB8D268FEF70CB920465B21CB
:104AB000FBF774FD2B6920461A69112100F062F89A
:104AC0005D212046FBF76AFDFFF736B9324611211A
:104AD000204600F067FEFFF729B9B9F1000F3EF458
:104AE00084A8C4F81081FEF780B800BF64130108E1
:104AF000601301085C1301084013010894130108B6
:104B00000021196039E61D492046FBF7CDFDF36809
:104B100043B111212046324601F042F820212046BF
:104B2000FBF73CFD3A461121204600F02BF8002D02
:104B30007EF4CAAEFEF75CB8C4F81431FEF755B87F
:104B40001369D2681B78292B1CBF0123C4F81831C4
:104B50001121204601F024F8FFF7D7B82D21FBF7EB
:104B60001DFD22E62F2F3FF4F0ACD4F814C14E46C1
:104B7000FEF7A8B80249FEF7C0BA00BF54130108F7
:104B80006813010830B5054683B01AB35368012B8A
:104B900014461FDCD0F81C11B1F5806F1ADC01330C
:104BA00053600131D0F82C31C0F81C11C0F82CD161
:104BB0001121CDE90023FDF79FFF6268D5F81C3174
:104BC0000199C5F82C11013A013B6260C5F81C310E
:104BD00003B030BD0123C5F8183103B030BD00BFAC
:104BE0002DE9F8431378033B154604464E2B50D865
:104BF000DFE813F016014F004F004F004F004F0049
:104C00004F004F004F004F004F004F004F004F002C
:104C10004F004F004F004F004F004F004F004F001C
:104C200054007A00A00054007A00A000EA00F700C7
:104C3000040178021B0129014D0172014F004F0050
:104C40004F004F0097014F00C6014F004F004F002B
:104C50004F004F004F004F004F004F004F004F00DC
:104C60004F004F004F004F004F004F004F004F00CC
:104C70004F004F004F004F004F004F004F004F00BC
:104C80004F004F004F004F004F00EC014F00260235
:104C9000C4002A461121BDE8F84373E7CF4DD0F890
:104CA000001105F109074FF0000809E00B4601313A
:104CB000AF42C4F80011E65484F8046100F0C180EA
:104CC000FF2915F8016FF1D1D4F80831D4F80C217F
:104CD00084F8FF8020469847D4F828310133C4F87F
:104CE000283101210023E3E7BD4DD0F8001105F183
:104CF00009074FF0000809E00B460131BD42C4F836
:104D00000011E65484F8046100F09B80FF2915F837
:104D1000016FF1D1D4F80831D4F80C2184F8FF8068
:104D200020469847D4F828310133C4F828310121AE
:104D30000023E3E7AB4DD0F80011AF1D4FF00008A2
:104D400008E00B460131AF42C4F80011E65484F884
:104D5000046176D0FF2915F8016BF2D1D4F808313F
:104D6000D4F80C2184F8FF8020469847D4F82831E5
:104D70000133C4F8283101210023E4E79A4ED0F82A
:104D8000001106F106094FF0000809E00B46013159
:104D90004E45C4F80011E75484F8047100F07581A1
:104DA000FF2916F8017BF1D1D4F80831D4F80C2191
:104DB00084F8FF8020469847D4F828310133C4F89E
:104DC000283101210023E3E7D0F80031FF2B00F068
:104DD000C6812022591CC0F80011C25480F8042159
:104DE00025E0D0F80031FF2B00F0AA81591C2022C9
:104DF000C4F80011E25484F8042126E0D0F8001130
:104E0000FF2900F08D814A1C2023C4F8002163543F
:104E100084F804312A6920461121BDE8F843B1E63F
:104E2000EA681121BDE8F843ACE6D0F80011FF298B
:104E300000F0B4814A1C2623C4F80021635484F88E
:104E40000431BDE8F883D0F80011684D4FF0000838
:104E5000AF1C08E00B460131AF42C4F80011E65424
:104E600084F80461EDD0FF2915F8016BF2D1D4F874
:104E70000831D4F80C2184F8FF8020469847D4F8F4
:104E800028310133C4F8283101210023E4E7584DCB
:104E9000D0F8001105F109074FF0000808E00B46B3
:104EA0000131BD42C4F80011E65484F80461C8D051
:104EB000FF2915F8016FF2D1D4F80831D4F80C218C
:104EC00084F8FF8020469847D4F828310133C4F88D
:104ED000283101210023E4E7464DD0F8001105F107
:104EE0000B074FF0000808E00B460131AF42C4F851
:104EF0000011E65484F80461A3D0FF2915F8016B72
:104F0000F2D1D4F80831D4F80C2184F8FF8020467F
:104F10009847D4F828310133C4F8283101210023FF
:104F2000E4E790F80431282B40F0D080EA68324D55
:104F300011212046FFF726FEEF1CD4F800114FF098
:104F4000000809E00B460131BD42C4F80011E654E7
:104F500084F804613FF475AFFF2915F8016BF1D1B6
:104F6000D4F80831D4F80C2184F8FF802046984703
:104F7000D4F828310133C4F8283101210023E3E7B4
:104F80001E4ED0F8001106F10A094FF0000809E0A2
:104F90000B460131B145C4F80011E75484F804719F
:104FA00000F08280FF2916F8017BF1D1D4F8083196
:104FB000D4F80C2184F8FF8020469847D4F8283193
:104FC0000133C4F8283101210023E3E70C4DD0F868
:104FD000001105F111074FF000081DE0131401083E
:104FE0001F1401082C140108541401085C14010852
:104FF0005F1401086C140108781401087C1401087E
:10500000331401080B460131BD42C4F80011E654C7
:1050100084F804613FF415AFFF2915F8016FF1D151
:10502000D4F80831D4F80C2184F8FF802046984742
:10503000D4F828310133C4F8283101210023E3E7F3
:105040006D4ED0F8001106F109094FF0000808E094
:105050000B4601314E45C4F80011E75484F8047141
:1050600013D0FF2916F8017FF2D1D4F80831D4F813
:105070000C2184F8FF8020469847D4F8283101336A
:10508000C4F8283101210023E4E72A69002A3FF40B
:10509000D8AEFF2932D0481C2823C4F8000163543D
:1050A000112184F8043101E0EA6811212046FFF75C
:1050B00069FDD4F80011FF2961D04A1C2923C4F8E6
:1050C0000021635484F80431BDE8F883D0F800115E
:1050D000FF2972D04A1C2023C4F80021635484F8AD
:1050E000043123E7D0F80011FF2976D04A1C2A2387
:1050F000C4F80021635484F80431A2E60026D4F8F1
:105100000831D4F80C2184F8FF6020469847D4F881
:1051100028312A690133C4F8283101203146BBE720
:105120000026D0F80831D0F80C2180F8FF609847AD
:10513000D4F8283101221344C4F82831314663E6FB
:105140000025194680F8FF50D0E942329847D4F83C
:10515000283101210B44C4F828312B4647E60021B1
:10516000D0E9425280F8FF101946A847D4F82831F8
:1051700020220133C4F82831227001215AE600258B
:10518000D4E9423284F8FF5020469847D4F82831B9
:1051900001221344C4F8283129468FE70025D4E9B9
:1051A000423284F8FF5020469847D4F82831012233
:1051B0001344C4F8283129463DE60026D0F80831CA
:1051C000D0F80C2180F8FF609847D4F828310122EC
:1051D0001344C4F8283131467DE70025D0E9423236
:1051E00080F8FF509847D4F8283101221344C4F8BE
:1051F000283129467BE700BF471401082DE9F0411B
:10520000044616461D469BB16A4F01209A687AB93A
:105210005A6811781939C9B2122900FA01F204D872
:105220003A4235D112F4606F72D11B68002BEDD178
:105230000023D4F81471C4F814312A4611212046F1
:1052400000F0BAF8D4F80031FF2B49D02822591CBD
:10525000C4F80011E25484F8042132692AB1112102
:105260002046FFF78FFCD4F80011FF2959D04B1CC2
:105270002922C4F8003120466254012384F8042115
:1052800011212A4600F098F8C4F81471BDE8F081A5
:1052900094F80431D4F80011202B51D1FF295BD0B0
:1052A0004B1CC4F80031282363544FF00008D4F895
:1052B000147184F804311121C4F8148143462A463C
:1052C000204600F079F8D4F80011FF2953D04B1C88
:1052D0002922FF2BC4F80031625484F80421B5D18F
:1052E0001946002384F8FF302046D4E9423298471B
:1052F000D4F828310133C4F828312823237084F8E6
:10530000043132690121C4F80011002AA7D1AEE7A7
:1053100094F8043103F0FD02282ABBD1D4F800111F
:10532000BCE70026D4E9423284F8FF602046984763
:10533000D4F828310133C4F828313146012397E7E6
:10534000FF2927D04B1C2022C4F800316254194693
:10535000FF2984F80421A3D10027D4E9423284F83C
:10536000FF7020469847D4F828310133C4F828311B
:105370003946012395E7D4E9423284F8FF8020467C
:105380009847D4F828310133C4F8283129232370F1
:1053900001235BE7002384F8FF302046D4E9423242
:1053A0009847D4F8283120220133C4F828312270DC
:1053B000012175E707310400002A00F0BE802DE9C5
:1053C000F047054688B01E4614460127D5F8182137
:1053D000CAB9A268F2B962681178FEB94E2919D02B
:1053E00014D95039012915D9E368D5F81081A7607F
:1053F000C5F8103111212846FFF7F2FB2468C5F8E3
:105400001081002CE2D108B0BDE8F087A1F11C03A7
:10541000042B03D82468002CD8D1F4E7E368D5F82E
:105420001081A7602929C5F8103132D02A293AD035
:105430000229DFD100236B4ED5F81471D268C5F86C
:10544000143111212846FFF79DFB06F10209D5F81A
:105450000011C5F8147108E00B4601314E45C5F83E
:105460000011EF5485F8047127D0FF2916F8017B4D
:10547000F2D14FF0000AD5E9423285F8FFA0284664
:105480009847D5F8282101325346C5F82821012133
:10549000E4E7236811212846FFF7B0FEC5F8108124
:1054A00008B0BDE8F08723681121284600F0A2F873
:1054B000C5F8108108B0BDE8F08763681C692378DF
:1054C000482B17D04E2BA3F15002A3F11C010ED094
:1054D0000BD804290BD9224611212846FFF752FB8D
:1054E000C5F8108108B0BDE8F087012AF3D8E46858
:1054F0002378E7E73C4E4FF0000906F10D0A08E07B
:105500000B4601315645C5F80011EF5485F804717A
:1055100014D0FF2916F8017BF2D1D5F80831D5F85F
:105520000C2185F8FF9028469847D5F8283101339B
:10553000C5F8283101210023E4E7704722692B498F
:10554000013201A807F010F901A802F0A1FB824680
:1055500018B301AED5F80011B2444FF0000908E0CD
:105560000B4601315645C5F80011EF5485F804711A
:1055700015D0FF2916F8017BF2D1D5F80831D5F8FE
:105580000C2185F8FF9028469847D5F8283101333B
:10559000C5F8283101210023E4E7D5F80011144EA5
:1055A0004FF0000906F1030A08E00B460131B2454D
:1055B000C5F80011EF5485F8047198D0FF2916F84A
:1055C000017BF2D1D5F80831D5F80C2185F8FF9090
:1055D00028469847D5F828310133C5F828310121EC
:1055E0000023E4E78411010888110108141101085F
:1055F000981101082DE9F047044617469BB31E4653
:1056000001E01B6853B39D68002DFAD15B681B78DD
:105610002A2B5ED111212B4632462046FFF7CCFEC5
:10562000D4F80011FF292BD05B224B1CC4F80031A9
:10563000625484F80421FA682AB111212046FFF748
:10564000A1FAD4F80031FF2B33D0591C5D22C4F8E5
:105650000011E25484F80421BDE8F087324611219C
:105660002046FFF7A9FED4F80031FF2B71D0591C5A
:105670002022FF29C4F80011E25484F80421D3D178
:105680000022D4F8083184F8FF202046D4F80C21F9
:1056900098475B22D4F82831227084F80421FA68F4
:1056A000591C0123C4F82811C4F80031002AC4D1C0
:1056B000CBE70025194684F8FF50D4E94232204652
:1056C0009847D4F8283101210B44C4F828312B46DF
:1056D000BCE7DFF8CC80D4F8001108F1020A0AE038
:1056E0000B46D04501F10101C4F8001104F8039004
:1056F00084F804911AD0FF2918F8019BF0D1D4F84E
:105700000831D4F80C2184F8FF5020469847D4F88B
:1057100028310133C4F8283100230121D045C4F8D1
:10572000001104F8039084F80491E4D111210023BE
:1057300032462046FFF740FED4F80011FF291BD067
:105740004B1C2922FF2BC4F80031625484F8042139
:105750008DD10022194684F8FF20D4F80851D4F8DE
:105760000C212046A847D4F8283120220133C4F860
:1057700028312270012157E70022D4F8083184F83B
:10578000FF202046D4F80C219847D4F8283142F263
:1057900029020133C4F828312280022144E700BFE6
:1057A000901301081178322902D01121FFF7EAB9CC
:1057B000D3682DE9F041D3E9015767B32F44D0F8FE
:1057C00000110446013D013F4FF0000809E00B467F
:1057D000BD4201F10101C4F80011E65484F80461EE
:1057E00019D0FF2915F8016FF1D1D4F80831D4F898
:1057F0000C2184F8FF8020469847D4F828310133E3
:10580000C4F8283100230121BD42C4F80011E65438
:1058100084F80461E5D1BDE8F08100BF2DE9F04FC7
:10582000E9B0037800AF5F2B05468A46BA6000F006
:105830003E81A5490822284607F0CAF8002800F052
:1058400005814FF0000B0123BBF1020FBB64ABF1EC
:1058500002090CBF45234623FB605FFA89F9C7F8AC
:1058600004A0284602F014FA2B1846000021C7E9CC
:105870000453B6F5006F4FF01103C7E90635C7E9C9
:105880000916C7E90C10C7E90E11C7E91011F96430
:1058900000F21481E846830000EB8000A8EBC00210
:1058A0000733954623F00703EA46BBF1010FADEB42
:1058B000030DC7F820A0C7F82CD040D0B9F1010FD4
:1058C00035D8EB7A05F10B045F2BFC6103D12B7B00
:1058D0005A2B00F0AC80204602F0DAF9002E00F0DE
:1058E000DC8000230122CAE901337A62002800F03B
:1058F000D480CAE903408AF800300023F968524690
:1059000007F11000FAF764FC0646204602F0C0F9E1
:105910002318FB61235C13B9002E40F0D780BB6CC9
:10592000013340F0BD800023BB64C54699E707F111
:105930001000FBF789F8FB6906461B78EBE72B782C
:105940005F2BECD16B786A1C5A2BFA61E7D1AB78EC
:10595000AA1C472BFA6100F09880542B00F0958028
:10596000594607F11000FDF74BF80646D7E9061235
:10597000C9071378CFD52E2BCDD111464FF0000A91
:1059800032464B78A3F16100192805D95F2B03D06B
:10599000303B092B00F20081881C0378A3F16106DB
:1059A000192E0446A3F1300C00F10100F5D9BCF129
:1059B000090FF2D95F2BF0D02E2B12D16378303B38
:1059C000092B0ED8A378A3F13000092804F10204B2
:1059D000F2D814F8013FA3F130000928F9D92E2B91
:1059E000ECD0D7E909308342FC61A4EB010652DA1E
:1059F000386A03EB830C03F1010E002E00EB8C03DD
:105A0000C3E901AAC7F824E045DDC3E901AA00F80B
:105A10002CA0C3E903164F2107F11000FAF7D8FBB9
:105A200023782E2B024640F0AD802146A9E76B7B00
:105A300005F10D02472BFA6107F1100001D0542B3C
:105A40001ED1FCF7EDFBFC69824656E72B7A2E2B24
:105A500004D05F2B02D0242B7FF4F3AE6B7A442B5F
:105A600000F09280492B7FF4ECAE95F80AB0ABF1D0
:105A70005F0BBBFA8BFB4FEA5B1B4FEA4B0BE2E67B
:105A8000FCF7BEFFFC69824637E707F11000FCF720
:105A9000C7FB06466AE70023BDE74FF0000A2CE784
:105AA000002007F5D277C546BD46BDE8F08F4378A4
:105AB0005A2B7FF4BEAE4FF0010BC4E6084607F543
:105AC000D277BD46BDE8F08F1811010807F15004E8
:105AD00000200021C7E96401BA68D7F804A0C4F81F
