:020000040800F2
:100000000000022051150008891100088B1100081A
:100010008D1100088F1100089111000800000000E8
:100020000000000000000000000000009311000824
:1000300095110008000000009711000899110008B0
:10004000A1150008A1150008A1150008A1150008B8
:10005000A1150008A1150008A1110008A1150008AC
:10006000A1150008A1150008A1150008A115000898
:10007000A1150008A1150008A1150008A115000888
:10008000A1150008A1150008A1150008A115000878
:10009000A1150008A1150008A1150008A115000868
:1000A000A1150008A1150008A1150008A115000858
:1000B000A1150008A1150008A1150008A115000848
:1000C000A1150008A1150008A1150008A115000838
:1000D000A1150008AD110008A1150008A115000820
:1000E000A1150008A1150008A1150008A115000818
:1000F000A1150008A1150008A1150008A115000808
:10010000A1150008A1150008BD110008A1150008DF
:10011000A1150008A1150008CD110008A1150008BF
:10012000A1150008A1150008A1150008A1150008D7
:10013000A1150008A1150008A1150008A1150008C7
:10014000A1150008A1150008A1150008A1150008B7
:10015000A1150008A1150008A1150008A1150008A7
:10016000A1150008A1150008A1150008A115000897
:10017000A1150008A1150008A11500080000000045
:08018000A1150008A1150008FB
:1001900010B5054C237833B9044B13B10448AFF3C1
:1001A00000800123237010BDC00600200000000065
:1001B000347C000808B5034B1BB103490348AFF377
:1001C000008008BD00000000C4060020347C000848
:1001D00053B94AB9002908BF00281CBF4FF0FF31AE
:1001E0004FF0FF3000F06AB9ADF1080C6DE904CEB4
:1001F00000F006F8DDF804E0DDE9022304B0704702
:100200002DE9F047089D0C46002B4ED194468C45B5
:100210008646B2FA82F262D94AB1C2F12003914015
:1002200020FA03F30CFA02FC194300FA02FE4FEA2B
:100230001C471FFA8CF6B1FBF7F44FEA1E4307FB8D
:10024000141143EA014304FB06F199420AD91CEB5D
:10025000030304F1FF3080F01281994240F20F81D4
:10026000023C6344591A1FFA8EF3B1FBF7F007FB07
:10027000101143EA014300FB06F69E420AD91CEB2B
:10028000030300F1FF3180F0FC809E4240F2F980D0
:10029000634402389B1B40EA044000211DB1D34057
:1002A0000022C5E90032BDE8F0878B4205D90DB1C7
:1002B000C5E9000100210846F5E7B3FA83F10029FA
:1002C00046D1A34202D39042C0F0F080861A64EB7C
:1002D00003030120002DE6D0C5E90063E3E7002A0F
:1002E00040F09080A1EB0C044FEA1C481FFA8CF7F9
:1002F0000121B4FBF8F64FEA1E4308FB164443EA1B
:10030000044307FB06F0984208D91CEB030306F1EF
:10031000FF3402D2984200F2CD8026461C1A1FFA02
:100320008EF3B4FBF8F008FB104443EA044300FBEF
:1003300007F79F4208D91CEB030300F1FF3402D2F8
:100340009F4200F2B0802046DB1B40EA0640A5E752
:10035000C1F120068B4022FA06F71F4320FA06FC63
:1003600004FA01F343EA0C03F44000FA01F8380CF4
:100370004FEA1349B4FBF0FE1FFA87FC00FB1E4452
:1003800049EA04440EFB0CF9A14502FA01F20AD92C
:100390003C190EF1FF3A80F08480A14540F2818043
:1003A000AEF1020E3C44A4EB09041FFA83F9B4FB3E
:1003B000F0F300FB134449EA044403FB0CFCA4459E
:1003C00007D93C1903F1FF3067D2A44565D9023B38
:1003D0003C4443EA0E40A0FB0293A4EB0C049C4275
:1003E000CE469C4651D34ED055B1B8EB0E0364EBCC
:1003F0000C0404FA06F6CB401E43CC40C5E9006469
:10040000002150E7C2F1200320FA03F10CFA02FCAC
:1004100024FA03F394400C434FEA1C4800FA02FE0E
:100420001FFA8CF7B3FBF8F008FB1031230C43EAFA
:10043000014300FB07F1994208D91CEB030300F1CB
:10044000FF362CD299422AD9023863445B1AA4B2EF
:10045000B3FBF8F108FB113344EA034401FB07F353
:10046000A34208D91CEB040401F1FF3613D2A342C6
:1004700011D902396444E41A41EA004139E70446DB
:10048000F0E6084606E7C845AED2B9EB020E63EBCC
:10049000070C0138A8E73146EDE7034699E73046F7
:1004A000D4E7D6467FE7634402384DE70646234645
:1004B00008460FE7023E634430E700BF704700BFC5
:1004C000034613F8012B002AFBD1181A0138704794
:1004D00001F0FF01102A2BDB10F0070F08D010F8F5
:1004E000013B013A8B422DD010F0070F42B3F6D1F9
:1004F000F0B441EA012141EA014122F007047FF012
:1005000000070023F0E80256083C85EA010586EA68
:10051000010685FA47F5A3FA87F586FA47F6A5FAA4
:1005200087F68EB9EED1F0BC01F0FF0102F00702B0
:1005300032B110F8013B013A83EA010313B1F8D15B
:100540000020704701387047002D06BF354603383C
:10055000073815F0010F07D1013015F4807F02BF75
:10056000013015F4C03F0130F0BC0138704700BFC6
:1005700081F0004102E000BF83F0004330B54FEA54
:1005800041044FEA430594EA050F08BF90EA020FC1
:100590001FBF54EA000C55EA020C7FEA645C7FEA54
:1005A000655C00F0E2804FEA5454D4EB5555B8BF77
:1005B0006D420CDD2C4480EA020281EA030382EAE8
:1005C000000083EA010180EA020281EA0303362D7A
:1005D00088BF30BD11F0004F4FEA01314FF4801C4D
:1005E0004CEA113102D0404261EB410113F0004F5F
:1005F0004FEA03334CEA133302D0524263EB430316
:1006000094EA050F00F0A780A4F10104D5F1200EB3
:100610000DDB02FA0EFC22FA05F2801841F100010E
:1006200003FA0EF2801843FA05F359410EE0A5F1E2
:1006300020050EF1200E012A03FA0EFC28BF4CF013
:10064000020C43FA05F3C01851EBE37101F00045C9
:1006500007D54FF0000EDCF1000C7EEB00006EEBD6
:100660000101B1F5801F1BD3B1F5001F0CD3490860
:100670005FEA30004FEA3C0C04F101044FEA4452B7
:1006800012F5800F80F09A80BCF1004F08BF5FEA3E
:10069000500C50F1000041EB045141EA050130BD1E
:1006A0005FEA4C0C404141EB0101013C28BFB1F530
:1006B000801FE9D291F0000F04BF01460020B1FA7B
:1006C00081F308BF2033A3F10B03B3F120020CDA4E
:1006D0000C3208DD02F1140CC2F10C0201FA0CF02C
:1006E00021FA02F10CE002F11402D8BFC2F1200C91
:1006F00001FA02F120FA0CFCDCBF41EA0C01904047
:10070000E41AA2BF01EB0451294330BD6FEA04048F
:100710001F3C1CDA0C340EDC04F11404C4F120027A
:1007200020FA04F001FA02F340EA030021FA04F38C
:1007300045EA030130BDC4F10C04C4F1200220FAE3
:1007400002F001FA04F340EA0300294630BD21FA21
:1007500004F0294630BD94F0000F83F4801306BFE7
:1007600081F480110134013D4EE77FEA645C18BFDB
:100770007FEA655C29D094EA050F08BF90EA020F72
:1007800005D054EA000C04BF1946104630BD91EA6A
:10079000030F1EBF0021002030BD5FEA545C05D16D
:1007A0004000494128BF41F0004130BD14F58004AC
:1007B0003CBF01F5801130BD01F0004545F0FE4120
:1007C00041F470014FF0000030BD7FEA645C1ABF55
:1007D000194610467FEA655C1CBF0B46024650EA8C
:1007E000013406BF52EA033591EA030F41F40021B8
:1007F00030BD00BF90F0000F04BF0021704730B53E
:100800004FF4806404F132044FF000054FF0000112
:1008100050E700BF90F0000F04BF0021704730B5D3
:100820004FF4806404F1320410F0004548BF4042A8
:100830004FF000013EE700BF42004FEAE2014FEAFD
:1008400031014FEA02701FBF12F07F4393F07F4FD8
:1008500081F06051704732F07F4208BF704793F0DB
:100860007F4F04BF41F40021704730B54FF46074EE
:1008700001F0004521F000411CE700BF50EA0102F1
:1008800008BF704730B54FF000050AE050EA01029A
:1008900008BF704730B511F0004502D5404261EB0A
:1008A00041014FF4806404F132045FEA915C3FF44B
:1008B000D8AE4FF003025FEADC0C18BF03325FEAE8
:1008C000DC0C18BF033202EBDC02C2F1200300FA99
:1008D00003FC20FA02F001FA03FE40EA0E0021FABE
:1008E00002F11444BDE600BF70B54FF0FF0C4CF4AC
:1008F000E06C1CEA11541DBF1CEA135594EA0C0F5E
:1009000095EA0C0F00F0DEF82C4481EA030621EA98
:100910004C5123EA4C5350EA013518BF52EA0335D3
:1009200041F4801143F4801338D0A0FB02CE4FF085
:100930000005E1FB02E506F00042E0FB03E54FF0B5
:100940000006E1FB03569CF0000F18BF4EF0010EAD
:10095000A4F1FF04B6F5007F64F5407404D25FEAA9
:100960004E0E6D4146EB060642EAC62141EA55515C
:100970004FEAC52040EA5E504FEACE2EB4F1FD0C9E
:1009800088BFBCF5E06F1ED8BEF1004F08BF5FEA1C
:10099000500E50F1000041EB045170BD06F00046CE
:1009A00046EA010140EA020081EA0301B4EB5C047B
:1009B000C2BFD4EB0C0541EA045170BD41F4801173
:1009C0004FF0000E013C00F3AB8014F1360FDEBF98
:1009D000002001F0004170BDC4F10004203C35DA74
:1009E0000C341BDC04F11404C4F1200500FA05F3F7
:1009F00020FA04F001FA05F240EA020001F0004298
:100A000021F0004110EBD37021FA04F642EB06010D
:100A10005EEA430E08BF20EAD37070BDC4F10C0437
:100A2000C4F1200500FA04F320FA05F001FA04F2FB
:100A300040EA020001F0004110EBD37041F10001E7
:100A40005EEA430E08BF20EAD37070BDC4F12005F2
:100A500000FA05F24EEA020E20FA04F301FA05F25A
:100A600043EA020321FA04F001F0004121FA04F202
:100A700020EA020000EBD3705EEA430E08BF20EAD2
:100A8000D37070BD94F0000F0FD101F0004640000C
:100A900041EB010111F4801F08BF013CF7D041EA8E
:100AA000060195F0000F18BF704703F00046520092
:100AB00043EB030313F4801F08BF013DF7D043EA63
:100AC0000603704794EA0C0F0CEA135518BF95EA19
:100AD0000C0F0CD050EA410618BF52EA4306D1D1A0
:100AE00081EA030101F000414FF0000070BD50EABF
:100AF000410606BF1046194652EA430619D094EA49
:100B00000C0F02D150EA013613D195EA0C0F05D132
:100B100052EA03361CBF104619460AD181EA030186
:100B200001F0004141F0FE4141F470014FF000003E
:100B300070BD41F0FE4141F4780170BD70B54FF0D9
:100B4000FF0C4CF4E06C1CEA11541DBF1CEA135559
:100B500094EA0C0F95EA0C0F00F0A7F8A4EB05043B
:100B600081EA030E52EA03354FEA013100F0888032
:100B70004FEA03334FF0805545EA131343EA1263FB
:100B80004FEA022245EA111545EA10654FEA0026B0
:100B90000EF000419D4208BF964244F1FD0404F569
:100BA000407402D25B084FEA3202B61A65EB0305C5
:100BB0005B084FEA32024FF480104FF4002CB6EB82
:100BC000020E75EB030E22BFB61A754640EA0C0002
:100BD0005B084FEA3202B6EB020E75EB030E22BF42
:100BE000B61A754640EA5C005B084FEA3202B6EB83
:100BF000020E75EB030E22BFB61A754640EA9C0042
:100C00005B084FEA3202B6EB020E75EB030E22BF11
:100C1000B61A754640EADC0055EA060E18D04FEACF
:100C2000051545EA16754FEA06164FEAC30343EA6F
:100C300052734FEAC2025FEA1C1CC0D111F4801F3C
:100C40000BD141EA00014FF000004FF0004CB6E735
:100C500011F4801F04BF01430020B4F1FD0C88BFD4
:100C6000BCF5E06F3FF6AFAEB5EB030C04BFB6EBDF
:100C7000020C5FEA500C50F1000041EB045170BDD2
:100C80000EF0004E4EEA113114EB5C04C2BFD4EBFF
:100C90000C0541EA045170BD41F480114FF0000E83
:100CA000013C90E645EA060E8DE60CEA135594EAFF
:100CB0000C0F08BF95EA0C0F3FF43BAF94EA0C0F02
:100CC0000AD150EA01347FF434AF95EA0C0F7FF477
:100CD00025AF104619462CE795EA0C0F06D152EACB
:100CE00003353FF4FDAE1046194622E750EA4106AF
:100CF00018BF52EA43067FF4C5AE50EA41047FF4C0
:100D00000DAF52EA43057FF4EBAE12E74FF0FF3C24
:100D100006E000BF4FF0010C02E000BF4FF0010CF5
:100D20004DF804CD4FEA410C7FEA6C5C4FEA430C6E
:100D300018BF7FEA6C5C1BD001B050EA410C0CBFBD
:100D400052EA430C91EA030F02BF90EA020F00201F
:100D5000704710F1000F91EA030F58BF994208BF86
:100D600090422CBFD8176FEAE37040F00100704743
:100D70004FEA410C7FEA6C5C02D150EA013C07D19A
:100D80004FEA430C7FEA6C5CD6D152EA033CD3D0E5
:100D90005DF8040B704700BF8446104662468C46DF
:100DA0001946634600E000BF01B5FFF7B7FF002812
:100DB00048BF10F1000F01BD4DF808EDFFF7F4FF3B
:100DC0000CBF012000205DF808FB00BF4DF808EDC6
:100DD000FFF7EAFF34BF012000205DF808FB00BFE9
:100DE0004DF808EDFFF7E0FF94BF012000205DF80B
:100DF00008FB00BF4DF808EDFFF7CEFF94BF0120C0
:100E000000205DF808FB00BF4DF808EDFFF7C4FFB8
:100E100034BF012000205DF808FB00BF4FEA410C01
:100E20007FEA6C5C02D150EA013C0AD14FEA430CE4
:100E30007FEA6C5C02D152EA033C02D14FF0000021
:100E400070474FF0010070474FEA410212F500125F
:100E500015D211D56FF47873B3EB625212D94FEA01
:100E6000C12343F0004343EA505311F0004F23FAEB
:100E700002F018BF404270474FF00000704750EA40
:100E8000013005D111F0004008BF6FF000407047FD
:100E90004FF00000704700BF7047704708B5026808
:100EA000154B1B689A4200D008BD144B1B78622B6F
:100EB0000DD0672B12D0722B17D01049104802F0BA
:100EC0001FFA01220D490C4802F045F9ECE70D4BE1
:100ED00000221A600C4802F06BFAF2E7094B01227B
:100EE0001A600A4802F064FAEBE7064B02221A6025
:100EF000074802F05DFAE4E778070020E0060020EA
:100F0000A47C0008DC060020507C00086C7C0008F3
:100F1000887C0008012800D0704708B50B490A6892
:100F200001320B4B83FB0203A3EBE27303EB43039E
:100F3000D31A0B602BB1012B01D0064902E0064900
:100F400000E00649064802F0DBF908BDDC06002097
:100F500056555555BC7C0008C87C0008C07C00086C
:100F6000D07C000810B588B0002403940494059444
:100F7000069407940094194B1A6B42F001021A630D
:100F80001A6B02F001020092009A01941A6B42F06F
:100F900002021A631A6B02F002020192019A029491
:100FA0001A6B42F080021A631B6B03F080030293FA
:100FB000029B012303934FF404120492059303A9A7
:100FC000074800F02FFC22462146062000F0A4FB33
:100FD000062000F0B1FB08B010BD00BF0038024091
:100FE0000000024008B50A230122024801F065FE14
:100FF000012008BD7807002072B6FEE700B595B065
:101000003022002108A802F01EFA00230393049363
:1010100005930693079301931F4A116C41F0805189
:101020001164126C02F080520192019A02931B4AE1
:10103000116841F480411160126802F4804202920A
:10104000029A0222089201210B9110210C910E921A
:101050000F9308231093A023119312920423139348
:1010600008A800F0E7FC98B90F2303930223049328
:10107000002305934FF4A05306934FF48053079336
:10108000052103A800F026FF20B915B05DF804FB88
:10109000FFF7B2FFFFF7B0FF0038024000700040DA
:1010A00038B500F0A5FAFFF7A9FFFFF75BFF00F0E6
:1010B000E7F800F0DDF900F071F91F4801F0A6F83B
:1010C0001E4C0021204601F09DFB0421204601F02A
:1010D00099FB0821204601F095FB01221849194887
:1010E00002F039F80125002415E0012B07D0022B6E
:1010F0001AD1154B00225A639A63DC6314E0124B39
:1011000000225A639C63DA630EE0002C00DC0125A8
:10111000072000F099FA0D4B1B68002BE5D10A4B14
:101120005C6300229A63DA632C44074BDB6AA342B8
:10113000EBD84FF0FF35E8E7E80600203007002045
:10114000E006002078070020000C0040DC060020AC
:1011500082B0002100910B4B5A6C42F480425A64D9
:101160005A6C02F480420092009A01911A6C42F08B
:1011700080521A641B6C03F080530193019B02B0F0
:10118000704700BF00380240FEE7FEE7FEE7FEE7DB
:10119000FEE770477047704708B500F043FA08BD96
:1011A00008B5012000F038FC08BD000008B5024871
:1011B00001F074FE08BD00BF7807002008B50248A2
:1011C00001F06CF808BD00BF3007002008B50248E8
:1011D00001F064F808BD00BFE80600200120704758
:1011E00008B502F07FF9162303604FF0FF3008BD09
:1011F00008B54FF0FF31FFF7F3FFFEE770B50C467F
:101200001646002506E0AFF30080214601F8010BE9
:1012100001350C46B542F6DB304670BD4FF0FF306D
:1012200070474FF400534B60002070470120704717
:101230000020704710B503460C4A0D490D48006860
:1012400040B10C4800680344521A934206D8094A38
:10125000136010BD0748084C0460F2E702F042F941
:101260000C2303604FF0FF30F3E700BF00000220C3
:1012700000040000E4060020D00A002070470000AF
:1012800000B583B00023009301930F480F4A02601A
:1012900049F63F424260836040F69F72C2608361BC
:1012A00001F018F950B900230093019369460648EC
:1012B00001F062FB28B903B05DF804FBFFF79CFE68
:1012C000F1E7FFF799FEF6E7E8060020001000407E
:1012D00000B583B00368184A934205D0174A934279
:1012E00016D003B05DF804FB00210091144B1A6C7A
:1012F00042F008021A641B6C03F008030093009B81
:101300000A46322000F008FA322000F015FAE8E729
:10131000002101910A4B1A6C42F010021A641B6CF6
:1013200003F010030193019B0A46362000F0F4F904
:10133000362000F001FAD4E7000C00400010004015
:101340000038024000B587B0002301930293039355
:101350000493059302680E4B9A4202D007B05DF8E1
:1013600004FB002300930B4B1A6B42F080021A63BC
:101370001B6B03F080030093009B4FF4E053019339
:1013800002230293059301A9034800F04BFAE5E715
:10139000000C004000380240001C024000B58FB035
:1013A00000230A930B930C930D93089309930193D5
:1013B0000293039304930593069307932A482B4AB9
:1013C000026040F21F3242608360C722C260036144
:1013D000836101F07FF8002831D14FF480530A93E4
:1013E0000AA9214801F080F960BB1F4801F09EF86E
:1013F00058BB00230893099308A91B4801F0BCFAC5
:1014000030BB60230193002202920392059201A94E
:10141000154801F0EFF8F0B904220DEB0201124873
:1014200001F0E8F8D0B9082201A90F4801F0E2F86C
:10143000B8B90D48FFF786FF0FB05DF804FBFFF762
:10144000DBFDCAE7FFF7D8FDCFE7FFF7D5FDD0E713
:10145000FFF7D2FDD5E7FFF7CFFDDDE7FFF7CCFDC6
:10146000E1E7FFF7C9FDE4E730070020000C00408A
:1014700008B50A480A4B03604FF4E1334360002388
:101480008360C36003610C2242618361C36101F028
:10149000E4FB00B908BDFFF7AFFDFBE778070020CC
:1014A00000100140F0B589B0002303930493059325
:1014B00006930793026803F1804303F588339A4249
:1014C00001D009B0F0BD0024009403F594335A6CA8
:1014D00042F010025A645A6C02F010020092009A14
:1014E00001941A6B42F002021A631A6B02F00202B4
:1014F0000192019A02941A6B42F001021A631B6B6B
:1015000003F001030293029B8023039302270497B5
:10151000032606960725079503A90B4800F082F9D4
:101520004FF400730393049705940696079503A957
:10153000064800F077F922462146252000F0ECF815
:10154000252000F0F9F8BCE700040240000002404A
:10155000DFF834D0FFF792FE0C480D490D4A002306
:1015600002E0D458C4500433C4188C42F9D30A4A58
:101570000A4C002301E013600432A242FBD301F0C5
:10158000B7FFFFF78DFD704700000220000000202C
:10159000C0060020A4800008C0060020D00A002059
:1015A000FEE7000010B504460E4B1A784FF47A732C
:1015B000B3FBF2F30C4A1068B0FBF3F000F0C0F894
:1015C00068B90F2C01D901200AE0002221464FF012
:1015D000FF3000F0A1F8054B1C60002000E0012066
:1015E00010BD00BF04000020000000200800002003
:1015F00008B50B4B1A6842F400721A601A6842F47C
:1016000080621A601A6842F480721A60032000F047
:1016100071F80F20FFF7C6FFFFF79AFD002008BD05
:10162000003C0240034A1168034B1B780B441360D3
:10163000704700BFC007002004000020014B18685D
:10164000704700BFC007002038B50446FFF7F6FF1B
:101650000546B4F1FF3F02D0044B1B781C44FFF752
:10166000EDFF401BA042FAD338BD00BF04000020AC
:10167000002807DB00F01F02400901239340024AC3
:1016800042F82030704700BF00E100E0002808DB8E
:101690000901C9B200F1604000F5614080F8001313
:1016A000704700F00F000901C9B2014B195470478F
:1016B00014ED00E000B500F00700C0F1070CBCF12C
:1016C000040F28BF4FF0040C031D062B0FD9C31EB7
:1016D0004FF0FF3E0EFA0CF021EA000199400EFA9D
:1016E00003FE22EA0E0241EA02005DF804FB002339
:1016F000EEE70000074AD36823F4E0631B041B0CE9
:10170000000200F4E060034343F0BF6343F400339E
:10171000D360704700ED00E010B50446054BD86873
:10172000C0F30220FFF7C6FF01462046FFF7AEFFD9
:1017300010BD00BF00ED00E008B5FFF799FF08BD40
:101740000138B0F1807F0BD24FF0E0235861054A99
:10175000F02182F823100020986107221A61704757
:101760000120704700ED00E070B50446866DFFF77C
:1017700065FF94F83530DBB2022B06D08023636519
:10178000002384F83430012070BD054622681368B8
:1017900023F0160313602268536923F0800353611A
:1017A000236CE3B12268136823F0080313602268F6
:1017B000136823F00103136023681B6813F0010F03
:1017C00011D0FFF73BFF431B052BF5D920236365A1
:1017D000032084F83500002384F83430D4E7A36C68
:1017E000002BDFD1E3E7E26D3F239340B360012399
:1017F00084F83530002084F83400C5E790F835309F
:10180000DBB2022B03D08023436501207047052300
:1018100080F835300268136823F00103136000205C
:101820007047000000230F2B00F2EC8030B583B02E
:1018300068E085684FEA430E032404FA0EF425EAB3
:101840000405CC6804FA0EF42C438460446824EA4E
:1018500002044A68C2F300129A40224342605FE0E9
:10186000DC08083450F8242003F00705AD004FF0E1
:101870000F0E0EFA05FE22EA0E0E0A69AA4042EA8F
:101880000E0240F824205FE0072200E0002202FA66
:101890000EF22A4302345C4D45F824205B4A9468DA
:1018A0006FEA0C0224EA0C05D1F804E01EF4801F54
:1018B00001D04CEA0405554CA560E46802EA040531
:1018C000D1F804E01EF4001F01D04CEA04054F4C8F
:1018D000E560646802EA0405D1F804E01EF4003F04
:1018E00001D04CEA0405494C6560246822404D68EB
:1018F00015F4803F01D04CEA0402444C22600133CD
:101900000F2B7DD801229A400C6804EA020C32EABF
:101910000404F4D14C6804F00304013C012C88D980
:101920004A6802F00302032A09D0C4685D0003225A
:10193000AA4024EA02048A68AA402243C2604A6894
:1019400002F00302022A8BD004684FEA430E0322FE
:1019500002FA0EF224EA02044A6802F0030202FAD2
:101960000EF2224302604A6812F4403FC7D00022C0
:101970000192274A546C44F480445464526C02F43B
:1019800080420192019A9C08A51C1F4A52F82550DA
:1019900003F0030E4FEA8E0E0F2202FA0EF225EA32
:1019A00002051C4A90423FF471AF02F580629042FA
:1019B0001AD002F58062904218D002F580629042FF
:1019C00016D002F58062904214D002F580629042F7
:1019D00012D002F58062904210D002F580629042EF
:1019E0003FF452AF082252E7012250E702224EE7AD
:1019F00003224CE704224AE7052248E7062246E78D
:101A000003B030BD704700BF00380140003C0140CA
:101A1000003802400000024008B5054B5B690342F4
:101A200000D108BD024B5861FFF774FAF9E700BF17
:101A3000003C0140002800F0E08170B582B004460F
:101A4000036813F0010F3BD09F4B9B6803F00C031E
:101A5000042B2CD09C4B9B6803F00C03082B21D04B
:101A60006368B3F5803F4FD0B3F5A02F52D0964BAB
:101A70001A6822F480321A601A6822F480221A60EE
:101A80006368002B50D0FFF7D9FD05468E4B1B68CD
:101A900013F4003F14D1FFF7D1FD401B6428F5D9A2
:101AA0000320B1E1884B5B6813F4800FD8D0864BDC
:101AB0001B6813F4003F03D06368002B00F09F8184
:101AC000236813F0020F54D07F4B9B6813F00C0F68
:101AD0003ED07D4B9B6803F00C03082B33D0E368AA
:101AE000002B68D0794B01221A60FFF7A7FD05464D
:101AF000754B1B6813F0020F54D1FFF79FFD401B7D
:101B00000228F5D903207FE16F4A136843F480333C
:101B10001360B5E76C4B1A6842F480221A601A68A9
:101B200042F480321A60ABE7FFF788FD0546664B4A
:101B30001B6813F4003FC3D0FFF780FD401B6428EF
:101B4000F5D9032060E1604B5B6813F4800FC6D1C8
:101B50005D4B1B6813F0020F03D0E368012B40F0CC
:101B60005081594A136823F0F803216943EAC103FD
:101B70001360236813F0080F42D063696BB3534BB3
:101B80000122C3F8802EFFF759FD05464E4B5B6FCF
:101B900013F0020F34D1FFF751FD401B0228F5D995
:101BA000032031E1484A136823F0F803216943EA2E
:101BB000C1031360DDE7454B00221A60FFF73EFDCD
:101BC0000546414B1B6813F0020FD2D0FFF736FDDC
:101BD000401B0228F5D9032016E13C4B0022C3F834
:101BE000802EFFF72BFD0546374B5B6F13F0020F7E
:101BF00006D0FFF723FD401B0228F5D9032003E19F
:101C0000236813F0040F77D02F4B1B6C13F0805F09
:101C100033D1002301932C4B1A6C42F080521A648A
:101C20001B6C03F080530193019B0125284B1B681B
:101C300013F4807F23D0A368012B34D0052B38D038
:101C4000214B1A6F22F001021A671A6F22F0040268
:101C50001A67A368002B3DD0FFF7F0FC06461A4B2D
:101C60001B6F13F0020F46D1FFF7E8FC801B41F217
:101C700088339842F3D90320C6E00025D6E7144AFA
:101C8000136843F480731360FFF7D8FC0646104BCB
:101C90001B6813F4807FCED1FFF7D0FC801B022895
:101CA000F5D90320B0E0084A136F43F0010313672E
:101CB000CFE7054B1A6F42F004021A671A6F42F021
:101CC00001021A67C5E700BF003802400000474222
:101CD00000700040FFF7B2FC0646524B1B6F13F03A
:101CE000020F08D0FFF7AAFC801B41F2883398420C
:101CF000F3D9032088E0EDB9A369002B00F08380BD
:101D0000484A926802F00C02082A51D0022B17D0E0
:101D1000454B00221A66FFF791FC0446414B1B68B5
:101D200013F0007F42D0FFF789FC001B0228F5D991
:101D3000032069E03B4A136C23F080531364DBE714
:101D4000394B00221A66FFF779FC0546354B1B68B4
:101D500013F0007F06D0FFF771FC401B0228F5D975
:101D6000032051E0E369226A1343626A43EA821363
:101D7000A26A5208013A43EA0243E26A43EA026372
:101D8000284A5360284B01221A66FFF757FC044685
:101D9000244B1B6813F0007F06D1FFF74FFC001B9C
:101DA0000228F5D903202FE000202DE000202BE0B1
:101DB000012B2BD01B4B5B6803F48001E26991423D
:101DC00026D103F03F02216A8A4223D1616A47F695
:101DD000C0721A40B2EB811F1ED103F44031A26AD7
:101DE0005208013AB1EB024F18D103F07063E26A76
:101DF000B3EB026F14D1002006E0012070470120F0
:101E000002E0012000E0002002B070BD0120FBE7ED
:101E10000120F9E70120F7E70120F5E70120F3E7CA
:101E20000120F1E7003802400000474208B5264B88
:101E30009B6803F00C03042B41D0082B41D1224BAB
:101E40005A6802F03F025B6813F4800F12D01E4BF9
:101E50005968C1F388111D480023A1FB0001FEF75A
:101E6000B7F9194B5B68C3F3014301335B00B0FB67
:101E7000F3F027E0144B5868C0F388104FEA401C79
:101E8000BCEB000C6EEB0E0E4FEA8E1343EA9C6324
:101E90004FEA8C11B1EB0C0163EB0E03DB0043EA5C
:101EA0005173C90011EB000C43F1000399020023A8
:101EB0004FEA8C2041EA9C51FEF78AF9D1E70348AA
:101EC00000E0034808BD00BF0038024040787D01B3
:101ED0000024F400002800F09B8070B50D460446F5
:101EE0004F4B1B6803F007038B4208D2CBB24C4A1E
:101EF0001370136803F007038B4240F08B80236854
:101F000013F0020F17D013F0040F04D0454A936862
:101F100043F4E0539360236813F0080F04D0414A60
:101F2000936843F4604393603E4A936823F0F00360
:101F3000A1680B439360236813F0010F32D06368EC
:101F4000012B21D09A1E012A25D9364A126812F097
:101F5000020F61D033498A6822F0030213438B6079
:101F6000FFF76CFB06462F4B9B6803F00C0362687F
:101F7000B3EB820F16D0FFF761FB801B41F2883371
:101F80009842F0D9032042E0264A126812F4003F3A
:101F9000E0D101203BE0234A126812F0007FD9D142
:101FA000012034E01E4B1B6803F00703AB4207D946
:101FB000EAB21B4B1A701B6803F00703AB422DD12A
:101FC000236813F0040F06D0164A936823F4E053F5
:101FD000E1680B439360236813F0080F07D0114AA0
:101FE000936823F46043216943EAC1039360FFF7D8
:101FF0001DFF0C4B9B68C3F303130B4AD35CD84003
:102000000A4B18600A4B1868FFF7CCFA002070BD25
:10201000012070470120FAE70120F8E70120F6E7E8
:10202000003C024000380240F07C00080000002024
:1020300008000020014B1868704700BF0000002016
:1020400008B5FFF7F7FF044B9B68C3F38223034AED
:10205000D35CD84008BD00BF00380240E87C0008CF
:1020600008B5FFF7E7FF044B9B68C3F34233034A0D
:10207000D35CD84008BD00BF00380240E87C0008AF
:1020800030B4036A026A22F0010202624268846983
:1020900024F0730C0C6844EA0C0423F0020C8B68E7
:1020A00043EA0C03114DA84203D005F58065A84210
:1020B00005D123F00803CD682B4323F004030B4D17
:1020C000A84203D005F58065A84207D122F44072EA
:1020D0004D6945EA020C8A6942EA0C024260846159
:1020E0004A684263036230BC704700BF0000014091
:1020F00030B4036A026A22F4807202624268C469E0
:1021000024F0730C0C6844EA0C0523F400738C680B
:1021100043EA0423114CA04203D004F58064A0429A
:1021200006D123F40063CC6843EA042323F48063DC
:102130000A4CA04203D004F58064A04207D122F4E7
:1021400040524C6942EA04128C6942EA041242602D
:10215000C5614A68C263036230BC70470000014039
:1021600030B4036A026A22F4805202624468C2698F
:1021700022F4E6420D6842EA052223F400538D68FA
:1021800043EA0533094DA84203D005F58065A8420E
:1021900004D124F480444D6944EA85144460C2614A
:1021A0004A680264036230BC704700BF000001400F
:1021B00010B4036A046A24F001040462846924F000
:1021C000F00C4CEA021223F00A030B438261036213
:1021D00010BC704710B4036A046A24F0100404624F
:1021E000846924F4704C4CEA023223F0A00343EAE1
:1021F00001138261036210BC7047836823F070038F
:102200000B4343F0070383607047000090F83D30B4
:10221000DBB2012B37D1022380F83D300268D3684E
:1022200043F00103D3600368194A934220D0B3F10D
:10223000804F1DD0A2F57C42934219D002F58062F6
:10224000934215D002F58062934211D002F5784294
:1022500093420DD002F57052934209D0A2F5943208
:10226000934205D01A6842F001021A6000207047BC
:102270009A6802F00702062A07D01A6842F00102A3
:102280001A6000207047012070470020704700BF8F
:1022900000000140704770477047704770B50446B2
:1022A0000368DE681D6915F0020F10D016F0020FEA
:1022B0000DD06FF002021A610123037703689B6956
:1022C00013F0030F5ED0FFF7E7FF0023237715F02D
:1022D000040F12D016F0040F0FD023686FF0040221
:1022E0001A610223237723689B6913F4407F4FD040
:1022F0002046FFF7D1FF0023237715F0080F12D0F7
:1023000016F0080F0FD023686FF008021A6104233B
:1023100023772368DB6913F0030F40D02046FFF7D3
:10232000BBFF0023237715F0100F12D016F0100F0B
:102330000FD023686FF010021A61082323772368F7
:10234000DB6913F4407F31D02046FFF7A5FF00235F
:10235000237715F0010F02D016F0010F2DD115F0E3
:10236000800F02D016F0800F2FD115F0400F02D051
:1023700016F0400F31D115F0200F02D016F0200FCB
:1023800033D170BDFFF787FF2046FEF786FD9CE73F
:102390002046FFF780FF2046FEF77FFDABE7204693
:1023A000FFF779FF2046FEF778FDBAE72046FFF7F2
:1023B00072FF2046FEF771FDC9E723686FF0010246
:1023C0001A612046FEF768FDC9E723686FF08002B6
:1023D0001A61204600F017FBC7E723686FF0400240
:1023E0001A612046FFF759FFC5E723686FF0200206
:1023F0001A61204600F006FBC3E700000368344A78
:10240000904212D0B0F1804F0FD0A2F57C429042A2
:102410000BD002F58062904207D002F580629042B4
:1024200003D002F57842904203D123F070034A684A
:102430001343274A90422AD0B0F1804F27D0A2F50B
:102440007C42904223D002F5806290421FD002F578
:10245000806290421BD002F57842904217D002F57C
:102460007052904213D002F5806290420FD002F574
:10247000806290420BD0A2F59832904207D002F5CC
:102480008062904203D002F58062904203D123F42F
:102490004073CA68134323F080034A6913430360FF
:1024A0008B68C3620B688362094B984203D003F5C3
:1024B0008063984201D10B6903630123436103697F
:1024C00013F0010F03D0036923F001030361704788
:1024D0000000014040B310B5044690F83D30F3B120
:1024E000022384F83D30214651F8040BFFF786FFA4
:1024F000012384F8463084F83E3084F83F3084F875
:10250000403084F8413084F8423084F8433084F815
:10251000443084F8453084F83D30002010BD80F808
:102520003C30FEF7D5FEDBE70120704740B310B525
:10253000044690F83D30F3B1022384F83D30214643
:1025400051F8040BFFF75AFF012384F8463084F852
:102550003E3084F83F3084F8403084F8413084F8CD
:10256000423084F8433084F8443084F8453084F8AD
:102570003D30002010BD80F83C30FFF78BFEDBE7DC
:102580000120704730B4036A026A22F0100202622E
:102590004468826922F4E6420D6842EA052223F08B
:1025A00020038D6843EA0513114DA84203D005F5B9
:1025B0008065A84206D123F08003CD6843EA051365
:1025C00023F040030A4DA84203D005F58065A842D8
:1025D00007D124F440644D6944EA85048D6944EAD6
:1025E0008504446082614A688263036230BC70473C
:1025F0000000014038B590F83C30012B66D004460D
:102600000D46012380F83C300C2A5AD8DFE802F04E
:10261000075959591B59595930595959440000689B
:10262000FFF72EFD2268936943F008039361226847
:10263000936923F0040393612268936929690B432A
:10264000936100203EE00068FFF79CFF22689369D9
:1026500043F4006393612268936923F48063936178
:1026600022689369296943EA01239361002029E0E4
:102670000068FFF73DFD2268D36943F00803D3618A
:102680002268D36923F00403D3612268D3692969DE
:102690000B43D361002015E00068FFF761FD22685D
:1026A000D36943F40063D3612268D36923F4806360
:1026B000D3612268D369296943EA0123D3610020E9
:1026C00000E00120002384F83C3038BD0220FCE704
:1026D00010B4846824F47F4C42EA03220A4342EA9D
:1026E0000C02826010BC704790F83C30012B78D00F
:1026F00010B50446012380F83C30022380F83D30B9
:102700000268936823F47F4323F0770393600B6898
:10271000602B4CD029D8402B54D00CD9502B22D12F
:10272000CA6849680068FFF743FD50212068FFF739
:1027300064FD002005E0202B0DD009D9302B0AD0F4
:102740000120012384F83D30002384F83C3010BD83
:102750000BB1102B05D119462068FFF74EFD002064
:10276000EFE70120EDE70120EBE7B3F5805F34D020
:10277000B3F5005F0CD1CB684A6889680068FFF741
:10278000A7FF2268936843F4804393600020D8E752
:10279000702B24D1CB684A6889680068FFF798FFDE
:1027A0002268936843F0770393600020C9E7CA6802
:1027B00049680068FFF70EFD60212068FFF71DFDE6
:1027C0000020BEE7CA6849680068FFF7F1FC4021B5
:1027D0002068FFF712FD0020B3E70020B1E70120D9
:1027E000AFE70220704701F01F014FF0010C0CFA17
:1027F00001FC036A23EA0C030362036A8A40134361
:102800000362704710B504460846002948D194F881
:102810003E30DBB2013B18BF0123002B40F0A38008
:10282000002856D1022384F83E302268D36843F052
:102830000203D360012201462068FFF7D4FF23681A
:102840004C4A934203D002F58062934203D15A6C02
:1028500042F400425A642368464A934278D0B3F166
:10286000804F75D0A2F57C42934271D002F5806210
:1028700093426DD002F58062934269D002F57842AE
:10288000934265D002F57052934261D0A2F5943222
:1028900093425DD01A6842F001021A60002061E0A4
:1028A000042908D008290DD094F84130DBB2013B4F
:1028B00018BF0123B1E794F83F30DBB2013B18BFEA
:1028C0000123AAE794F84030DBB2013B18BF012393
:1028D000A3E7042824D008282BD0022384F8413011
:1028E0000C2842D801A353F820F000BF2B28000881
:1028F0006B2900086B2900086B29000827290008AC
:102900006B2900086B2900086B2900083929000889
:102910006B2900086B2900086B290008452900086D
:10292000022384F83F302268D36843F00403D36065
:1029300080E7022384F840302268D36843F008031C
:10294000D36077E72268D36843F01003D36071E760
:102950009A6802F00702062A09D01A6842F00102BA
:102960001A60002010BD0120FCE70120FAE70020DA
:10297000F8E700BF0000014090F83C20012A3CD05D
:1029800010B40346012280F83C20022280F83D204A
:1029900002685068946820F0700C086840EA0C00E7
:1029A00050601A68164882421AD0B2F1804F17D090
:1029B000A0F57C40824213D000F5806082420FD0A7
:1029C00000F5806082420BD000F57840824207D04B
:1029D00000F57050824203D0A0F59430824204D1B9
:1029E00024F08004496821439160012283F83D204E
:1029F000002083F83C0010BC70470220704700BFE5
:102A00000000014070477047026802F10C0353E870
:102A1000003F23F490730C3242E800310029F3D1D7
:102A2000026802F1140353E8003F23F0010314325B
:102A300042E800310029F3D1036B012B05D020239C
:102A400080F84230002303637047026802F10C03F0
:102A500053E8003F23F010030C3242E80031002914
:102A6000F3D1ECE790F84130DBB2212B01D002200A
:102A700070478368B3F5805F17D0036A5A1C0262FF
:102A80001A7803685A60C38C9BB2013B9BB2C38423
:102A90004BB90268D36823F08003D3600268D3681F
:102AA00043F04003D360002070470369002BE4D15A
:102AB000036A1B880268C3F308035360036A023386
:102AC0000362E0E710B504460268136923F440533B
:102AD000C1680B431361836802691A4343691A434F
:102AE000C3691A430168CB6823F4164323F00C032F
:102AF0001343CB600268536923F4407381690B432D
:102B000053610368314A934206D002F580629342D2
:102B100002D0FFF795FA01E0FFF7A2FAE369B3F5F7
:102B2000004F29D00021031849411B1841F1000131
:102B3000C90041EA5371DB00181863684FEA830249
:102B40004FEA937341F10001FDF742FB204AA2FBDB
:102B500000314909642303FB11031B013233A2FB3B
:102B600003235B0903F0F00202EB011203F00F03F1
:102B7000216813448B6010BD0023021843EB03014E
:102B8000121841F10001C90041EA5271D200101837
:102B900041F10001626892185B41FDF719FB0C4A94
:102BA000A2FB00314909642303FB1103DB0032332C
:102BB000A2FB03235B095A0002F4F87202EB011234
:102BC00003F00703216813448B60D4E70010014031
:102BD0001F85EB512DE9F04383B005460E4617469D
:102BE0009946DDF828802B681C6836EA04040CBF7F
:102BF00001240024BC4228D1B8F1FF3FF3D0FEF7F6
:102C00001DFDA0EB0900404523D8B8F1000F22D0EC
:102C10002B68DA6812F0040FE5D0802EE3D0402E46
:102C2000E1D01A6812F0080FDDD0002401941A6870
:102C300001925B680193019B2846FFF7E5FE08239C
:102C40006B6485F84040012000E0002003B0BDE83F
:102C5000F0830320FAE70320F8E760B310B50446D9
:102C600090F8413013B3242384F841302268D368AC
:102C700023F40053D3602046FFF724FF2268136932
:102C800023F4904313612268536923F02A035361AC
:102C90002268D36843F40053D3600020606420238B
:102CA00084F8413084F84230606310BD80F84030D1
:102CB000FEF7F8FBD7E7012070472DE9F04182B01D
:102CC0001E4690F84130DBB2202B56D104460D460B
:102CD0009046002955D00AB901204FE000234364F3
:102CE000212380F84130FEF7A9FC0746A4F8248090
:102CF000A4F82680A368B3F5805F02D04FF00008E7
:102D000014E023692BB34FF000080FE0202384F870
:102D10004130032032E038F8023B2268C3F3080355
:102D20005360E28C92B2013A92B2E284E38C9BB29D
:102D300093B100963B46002280212046FFF74AFFD0
:102D40000028E3D1002DE6D015F8012B23685A6046
:102D5000E7E7A8460025E9E700963B460022402128
:102D60002046FFF737FF18B9202384F8413005E0EB
:102D7000202384F84130032000E0022002B0BDE8A7
:102D8000F0810120FAE7704708B50168CA6822F0AF
:102D90004002CA60202280F84120FFF7F4FF0020A3
:102DA00008BD704708B5806B0023C385C384FFF757
:102DB000F8FF08BD704790F84230DBB2222B69D192
:102DC0008368B3F5805F4FD0826AB3F5805F04D02B
:102DD000002B56D10369002B53D103685B68137035
:102DE000836A01338362C38D9BB2013B9BB2C3856F
:102DF000002B51D100B583B00268D36823F02003C3
:102E0000D3600268D36823F48073D3600268536987
:102E100023F001035361202380F8423000234363F1
:102E2000036B012B33D100230363026802F10C030F
:102E300053E8003F23F010030C3242E80031002930
:102E4000F3D103681A6812F0100F06D00022019225
:102E50001A6801925B680193019B818DFFF7AAFFBD
:102E6000002003B05DF804FB0269002AACD1826A3D
:102E700003685B68C3F308031380836A02338362C9
:102E8000B1E703685B6803F07F031370A8E7FEF700
:102E900005F8E5E7022070470020704710B582B0C2
:102EA000044602681368D068516913F00F0F09D106
:102EB00013F0200F0CD010F0200F09D02046FFF7A0
:102EC0007AFF16E011F0010115D110F4907F12D1B4
:102ED000216B012979D013F0800F03D010F0800FFF
:102EE00040F0148113F0400F03D010F0400F40F079
:102EF000118102B010BD13F0010F06D010F4807FD5
:102F000003D0626C42F00102626413F0040F04D03B
:102F100019B1626C42F00202626413F0020F04D035
:102F200019B1626C42F00402626413F0080F07D01A
:102F300010F0200F00D119B1626C42F008026264F7
:102F4000626C002AD5D013F0200F02D010F0200FB1
:102F500029D123685B6903F04003626C12F0080F0B
:102F600000D163B32046FFF74FFD23685B6913F080
:102F7000400F20D0226802F1140353E8003F23F0F1
:102F80004003143242E800310029F3D1E36B73B1FE
:102F9000624A1A65E06BFEF731FC0028A9D0E06BAD
:102FA000036D9847A5E72046FFF705FFD1E72046C8
:102FB000FFF7F7FE9DE72046FFF7F3FE99E720466F
:102FC000FFF7EFFE0023636493E713F0100F82D046
:102FD00010F0100F3FF47FAF0023019313680193AB
:102FE00053680193019B536913F0400F52D0E26B79
:102FF00013685B689BB2002B3FF47BAFA18D9942B5
:103000007FF677AFE385D369B3F5807F37D0226849
:1030100002F10C0353E8003F23F480730C3242E8C2
:1030200000310029F3D1226802F1140353E8003F74
:1030300023F00103143242E800310029F3D1226861
:1030400002F1140353E8003F23F04003143242E836
:1030500000310029F3D1202384F842300023236378
:10306000226802F10C0353E8003F23F010030C32F6
:1030700042E800310029F3D1E06BFEF775FB022333
:103080006363A18DE38D9BB2C91A89B22046FFF715
:1030900091FE2EE7A18DE38D9BB2C91A89B2E38D13
:1030A0009BB2002B3FF425AF00293FF422AF2268EA
:1030B00002F10C0353E8003F23F490730C3242E812
:1030C00000300028F3D1226802F1140353E8003FD6
:1030D00023F00103143242E800300028F3D120230A
:1030E00084F8423000232363226802F10C0353E882
:1030F000003F23F010030C3242E800300028F3D1E7
:10310000022363632046FFF755FEF2E62046FFF7F1
:10311000A9FCEEE62046FFF737FEEAE6A52D0008FB
:1031200081628285C28500234364222380F8423075
:10313000036923B10268D36843F48073D3600268E3
:10314000536943F0010353610268D36843F02003DD
:10315000D3600020704708B590F84230DBB2202BD6
:1031600008D149B10AB9012008BD00230363FFF764
:10317000D7FFF9E70220F7E70120F5E7002310B5B4
:103180000446C0E90033C0E90433836081814366AB
:10319000C2818361194608225C3000F054F90D4B5E
:1031A00023620D4B63620D4BA3620D4BE3620D4B2B
:1031B000E4619C4206D003F16802944202D0D0330D
:1031C0009C4205D104F15800BDE8104000F0B4B9AC
:1031D00010BD00BFC1330008E33300081B340008F2
:1031E0003F340008C4070020024A0349034800F0A6
:1031F00069B800BF0C000020B95A00082000002068
:1032000041680C4B994210B5044601D002F054FCC1
:10321000A168094B994202D0204602F04DFCE168BA
:10322000064B994204D02046BDE8104002F044BC51
:1032300010BD00BFC40700202C0800209408002007
:1032400010B50B4B0B4C0C4A1A602046002204218F
:10325000FFF794FF04F1680001220921FFF78EFFB8
:1032600004F1D0000222BDE810401221FFF786BF12
:10327000FC080020C4070020E9310008014800F0E4
:103280005DB900BF06090020014800F058B900BF31
:103290000609002010B50446FFF7F0FF636B1BB171
:1032A000BDE81040FFF7F0BF044B6363044B1B689D
:1032B000002BF5D1FFF7C4FFF2E700BF0132000891
:1032C000FC0800202DE9F8430746884614460026EE
:1032D000D4E90195B9F1010905D52468002CF7D18D
:1032E0003046BDE8F883AB89012B07D9B5F90E301C
:1032F000013303D029463846C04706436835E9E71D
:103300000FB407B5064904AB086853F8042B81686D
:10331000019300F081FC03B05DF804EB04B070474A
:103320001800002030B5054689B008460C46FDF768
:10333000C7F81E4B06930123CDE9044007931844B8
:1033400004AB0193022302936B6BAC68039013B937
:103350002846FFF79FFF636EDB0705D4A389980516
:1033600002D4A06D00F0EAF8B4F90C30990406D448
:1033700043F40053A381636E23F40053636628462D
:1033800001AA214602F098FC636E00280CBF0A25B2
:103390004FF0FF35DA0705D4A3899B0502D4A06D51
:1033A00000F0CDF8284609B030BD00BF8B80000882
:1033B000024B01461868FFF7B5BF00BF1800002098
:1033C00010B50C46B1F90E1000F068F80028ABBF3C
:1033D000236DA3891B1823F48053ACBF2365A381FD
:1033E00010BD2DE9F0411F468B89DB0505460C46D3
:1033F000164605D5B1F90E100223002200F03CF864
:10340000A389B4F90E1023F48053A38132463B46BE
:103410002846BDE8F04100F053B810B50C46B1F9AC
:103420000E1000F029F8431CA38915BF206523F472
:10343000805343F48053A38118BFA38110BDB1F919
:103440000E1000F009B802440346934200D17047C1
:1034500003F8011BF9E7000038B5064D00230446C8
:1034600008462B60FDF7DAFE431C02D12B6803B13E
:10347000236038BD0009002038B5074D04460846D2
:10348000114600222A601A46FDF7D2FE431C02D1E3
:103490002B6803B1236038BD0009002038B5074D03
:1034A00004460846114600222A601A46FDF7A6FE89
:1034B000431C02D12B6803B1236038BD00090020F2
:1034C00038B5074D04460846114600222A601A46C0
:1034D000FDF788FD431C02D12B6803B1236038BD82
:1034E00000090020014B1868704700BF1800002039
:1034F00070B50D4D0D4C641BA4100026A64209D1D9
:103500000B4D0C4C04F096FB641BA4100026A64245
:1035100005D170BD55F8043B98470136EEE755F8E4
:10352000043B98470136F2E798800008988000082D
:1035300098800008A0800008704770477047704767
:10354000024B13B1024800F005B8704700000000BC
:1035500061610008002301461A46184602F062BE67
:103560002DE9F84306460820894602F00DFE244F57
:103570008046304600F044FBBB685D6825F00305DB
:10358000A5F11104A4EB09044444B4FBF8F4013C94
:1035900008FB04F4A04505DD304600F037FB0020B1
:1035A000BDE8F8830021304602F0CAFDBB682B4419
:1035B0009842F1D16142304602F0C2FD013010D193
:1035C0000021304602F0BCFDBA68831A0F2BE3DD00
:1035D0000C490968401A0C4943F001030860536024
:1035E000DAE7BB68084A2D1B45F001055D601368EA
:1035F00030461B1B136000F009FB0120D0E700BF21
:103600004C010020440100200C090020F8B50446BC
:103610000F46002900F0B18000F0F2FA57F8042CB0
:10362000564D22F00100A7F1080303EB000CA96836
:10363000DCF80460614526F0030602F001021BD1AC
:1036400006443AB957F8082C9B1A1644D3E90212DB
:10365000CA60916046F001025A60AB60484B1B683B
:10366000B34204D8474B20461968FFF779FF20463C
:10367000BDE8F84000F0CABACCF80460002A38D19E
:1036800057F8081C5B1A0844996805F10807B94205
:1036900031D0DF68CF60B9600CEB06014968C9071B
:1036A0000BD4DCF8081030443ABB374EB14224D179
:1036B000C5E90433C3E90211012240F00101596058
:1036C0001850002AD3D1B0F5007F1BD2C2080121C7
:1036D00040098140686801320143696055F8320051
:1036E00005EBC2010839C3E9020145F83230C36075
:1036F000BDE70022D0E70122CEE7DCF80C60CE6007
:10370000B160DAE7B0F5206F4FEA502214D2820997
:103710003832511C05EBC20655F831108E4225D1C6
:103720000120921000FA02F2686802436A60C3E95D
:103730000216B360CB609AE7142A01D85B32E8E73F
:10374000542A02D8020B6E32E3E7B2F5AA7F02D800
:10375000C20B7732DDE740F254518A429ABF820CA5
:103760007C327E22D5E789688E4204D04A6822F0F6
:1037700003028242F7D8CE68D9E7F8BD4C01002099
:10378000480100203C0900205401002001F10B03F6
:10379000162B2DE9F74F054606D933F0070704D558
:1037A0000C232B600024A1E11027B942F8D8284649
:1037B00000F026FAB7F5FC7FAE4E37D207F10802CB
:1037C0003244A2F1080154688C424FEAD70302D177
:1037D000D468A24210D06368D4E9021223F0030334
:1037E000CA60234491605A6842F001025A60284638
:1037F00000F00CFA083479E1023334699E498C42B6
:1038000077D0626822F0030CACEB07000F2848DD8C
:10381000E21940F0010347F001076760C6E904229E
:10382000C2E90211536044F80C00E0E77B0A2AD099
:10383000042B12D8BB0938335A1C06EBC202A2F182
:10384000080C5468644506D0626822F00302D01B5D
:103850000F281CDD013B0133CFE7142B01D85B336C
:10386000EAE7542B02D83B0B6E33E5E7B3F5AA7FAA
:1038700002D8FB0B7733DFE740F25452934204D86F
:10388000BB0C7C33D8E73F23D6E77E23D4E7002860
:10389000E16804DBA368D9608B60A318A3E70C463A
:1038A000D0E70028C6E9041107DBA444DCF80430A3
:1038B00043F00103CCF8043099E7BCF5007F706851
:1038C00080F093804FEADC024FEA5C1E4FF0010C5F
:1038D00001320CFA0EFC4CEA0000706056F832C05F
:1038E00006EBC2000838C4E902C046F83240CCF802
:1038F0000C409810012282407068904226D31042FA
:1039000006D123F003035200104203F10403FAD05E
:1039100006EBC308C1469E46D9F80C404C4540F022
:10392000B7800EF1010E1EF0030F09F10809F3D163
:10393000980740F0E180736823EA020373607068BF
:103940005200904202D3002A40F0E380D6F808A04B
:10395000DAF8043023F00309B94504D3A9EB0702D0
:103960000F2A00F34181454B196810313944082072
:10397000019102F009FC424A0199136801331FBF0B
:1039800001F1FF3109184342194080462846019150
:1039900002F0D6FB421C0AEB090B044600F0F7804C
:1039A00083450199364A02D9B24540F0F080354B43
:1039B0001868A3450844186008F1FF3C40F0AB804C
:1039C0001BEA0C0F40F0A780B268494441F00101A6
:1039D00051602D4A1B6811688B4288BF13602B4AC7
:1039E00011688B4288BF1360D1E0BCF5206F4FEAAD
:1039F0005C2218D24FEA9C12383202F1010E06EB1B
:103A0000C20856F83EE0F0452BD192104FF0010C61
:103A10000CFA02F202437260C4E902E8C8F80840F6
:103A2000CEF80C4065E7142A01D85B32E5E7542A4A
:103A300003D84FEA1C326E32DFE7B2F5AA7F03D813
:103A40004FEADC327732D8E740F2545E72459ABFD3
:103A50004FEA9C427C327E22CFE7DEF808E0F04558
:103A600005D0DEF8042022F003026245F5D8DEF826
:103A70000C80D1E74C010020540100203C090020BB
:103A8000440100200C0900203809002034090020DE
:103A90006068D4F80CC020F00300A0EB070ABAF16C
:103AA0000F0F12DDA368E21947F001076760C3F842
:103AB0000CC0CCF808304AF00103C6E90422C2E980
:103AC0000211536044F800A091E6BAF1000F11DB37
:103AD0002044436843F00103436054F8083F2846FC
:103AE000C3F80CC0CCF8083000F090F8204603B0C2
:103AF000BDE8F08F644611E758F80809404503F126
:103B0000FF333FF415AF1AE7043352001042FBD0E5
:103B1000FEE67346FAE7D2F800E0BEF1FF3F1BBFB6
:103B2000A4EB0B0B0BEB000214601A6014F0070BF4
:103B30001ABFCBF1080024185846621802EA0C019B
:103B40008044A8EB010808EA0C0841462846019287
:103B500002F0F6FA431C019A284B07D1BBF1000F83
:103B600023D0ABF1080010444FF000081A68B4608D
:103B7000001B4044424440F00100B2451A606060BE
:103B80003FF427AFB9F10F0F12D801236360B36878
:103B90005B6823F00303BB42A3EB070201D30F2AA8
:103BA00022DC284600F032F8FCE51046D846DDE776
:103BB000DAF80420A9F10C0929F0070902F0010242
:103BC00042EA0902CAF8042005210AEB0902B9F108
:103BD0000F0FC2E901117FF6FCAE0AF10801284679
:103BE000FFF714FD054BF4E6B46847F001032744E2
:103BF00042F001026360B7607A60F8E50C090020CA
:103C00000148FFF79BBC00BF040900200148FFF7F3
:103C100096BC00BF040900202DE9F04FD7B08846BC
:103C200092461C461E46079002F086FA03681A93D5
:103C30001846FCF745FC079B119023B15B6B13B949
:103C40000798FFF727FBD8F86430D80707D4B8F8EF
:103C50000C30990503D4D8F85800FFF76FFCB8F979
:103C60000C309A0409D443F40053A8F80C30D8F867
:103C7000643023F40053C8F86430B8F80C301B07E4
:103C800002D5D8F81030C3B90798414602F060F960
:103C900098B1D8F86430DF0706D54FF0FF3313939F
:103CA000139857B0BDE8F08FB8F80C309E05F4D4E7
:103CB000D8F85800FFF743FCEFE7B8F90C3003F0F1
:103CC0001A020A2A16D1B8F90E20002A12DBD8F8F7
:103CD0006420D50705D4980503D4D8F85800FFF719
:103CE0002EFC079823465246414657B0BDE8F04F98
:103CF00001F0A4B90023CDE92B330893002200235F
:103D0000CDE90E230023CDE91C332DAC2A940D936D
:103D100016931B93139353461D4613F8012B0AB1B8
:103D2000252AF9D1B5EB0A070DD02C9B3B442C93E7
:103D30002B9B0133072BC4E900A72B9375DC0834B8
:103D4000139B3B4413932B78002B01F0318100220D
:103D50006B1C8DF88B204FF0FF351292934613F8B1
:103D6000012B0A9210930A9B203B5A2B00F2A58547
:103D7000DFE813F09E00A305A305A600A305A30595
:103D8000A3058600A305A305A900B300A305B00001
:103D9000B500A305CE00D100D100D100D100D100E3
:103DA000D100D100D100D100A305A305A305A3052F
:103DB000A305A305A3054101A305FF0011014101CE
:103DC00041014101A305A305A305A305E200A30545
:103DD000A3059D04A305A305A305E504A305050507
:103DE000A305A3052705A305A305A305A305A3050F
:103DF000A305A305A3054101A305FF00130141018C
:103E000041014101E5001301F900A305F200A305FA
:103E10007D049F04D404F900A305E5049C00070574
:103E2000A305A3056500A3059C0007982AAA41469F
:103E300001F044F9002840F046812DAC80E7AB4BFF
:103E40001D931BF0200300F0BF84073626F0070304
:103E50001A465F6852F8086B0B921BF0010F0AD0EC
:103E600056EA070307D030238DF88C300A9B8DF873
:103E70008D304BF0020B2BF4806B022300F027BC3B
:103E8000079802F059F943681B931846FCF718FB92
:103E90001690079802F050F983680D93169B2BB18A
:103EA0000D9B1BB11B780BB14BF4806B109B56E73D
:103EB0009DF88B30002BF9D120238DF88B30F5E75E
:103EC0004BF0010BF2E756F8043B1293002BEDDAAE
:103ED0005B4212934BF0040BE8E72B23EDE7109BBA
:103EE00013F8012B0A922A2A0FD156F8045B10937B
:103EF00045EAE575DAE701FB052513F8012B0A927F
:103F00000A9A303A092AF6D92CE700250A21F7E760
:103F10004BF0800BCAE70022109B12920A210A9AEA
:103F20001298303A01FB0022129213F8012B0A92E8
:103F3000303A092AF3D915E74BF0080BB6E7109B86
:103F40001B78682B01BF109B013310934BF4007B4F
:103F500018BF4BF0400BA9E7109B1B786C2B05D1C9
:103F6000109B013310934BF0200B9FE74BF0100B8D
:103F70009CE7324652F8043B8DF8F43000230B9254
:103F80008DF88B309946012514931F460C931E46DD
:103F90000DF1F40AD8E14BF0100B1BF0200F12D0FA
:103FA000073626F007031A465F6852F8086B0B9233
:103FB000002F06DA76424FF02D0367EB47078DF8A6
:103FC0008B30012386E333461BF0100F53F8047B3C
:103FD0000B9302D03E46FF17EAE71BF0400F03D0D9
:103FE0003EB247F3C037E3E71BF4007FF2D07EB266
:103FF00047F3C017DCE7073626F007031946F1E858
:104000000223CDE90E230E9B1E930F9B0B9123F0F1
:1040100000431F93DDE91E01354B4FF0FF32FCF7E3
:10402000FDFE08BBDDE91E01314B4FF0FF32FCF70E
:10403000D7FEC8B9DDE90E0100220023FCF7C6FE59
:1040400010B12D238DF88B302A4A2B4B0A992BF077
:10405000800B4729D4BF92469A464FF000090325AA
:10406000CDF8509000F0E0BFDDE90E231046194670
:10407000FCF7D4FE814640B10F9B204A002BBCBF09
:104080002D238DF88B301E4BE0E70A9B612B39D036
:10409000412B39D158233022632D8DF88C208DF897
:1040A0008D304BF0020B40F3B2800798691CFFF78C
:1040B0006DFB8246002840F0AF80B8F80C3043F02A
:1040C0004003A8F80C30D8F86430D90707D4B8F802
:1040D0000C309A0503D4D8F85800FFF730FAB8F836
:1040E0000C305B067FF5DCADD7E500BF107D000826
:1040F000FFFFEF7F007D0008047D0008087D0008B9
:104100000C7D00087823C6E7691C00F087800A9BB5
:1041100023F02003472B02D10DB9A94601254BF40A
:10412000807315930F9B002B7ADA0E9B18930F9BCD
:1041300003F1004319932D2320930A9B23F02003BE
:10414000412B0C9340F0DB8124AADDE9180102F039
:1041500035F800224FF07F53FCF7C6FB02460B46B2
:10416000CDE9082300220023FCF726FE08B1012335
:1041700024932F4A2F4B0A99612918BF1A4614928B
:104180006F1E5646DDE908012B4B0022FCF7ACFB05
:1041900002460B46CDE90823FCF756FE1790FCF7C4
:1041A00039FB02460B46DDE90801FCF7E5F902465A
:1041B0000B46CDE90823179A149B9B5C06F8013B3C
:1041C0007A1C06D07B1E219300220023FCF7F4FD0D
:1041D00060B3DDE90801194B0022FCF715FE78BB3E
:1041E000DDE90801154B0022FCF7E6FD10B1179B35
:1041F000DB0725D43346F1193020CA1A002A80F291
:104200007B817B1C0137B8BF00231E442CE04FF09C
:1042100000090DF1F40A82E7814680E706257EE772
:10422000DDE90E23CDE91823002385E7219FA9E7C7
:10423000107D0008217D0008000030400000E03FB4
:10424000149B2896D97B3020289A531E289312F865
:10425000013C8B4200F04D81392B0BBF149B013385
:104260009B7ADBB202F8013CA6EB0A0308930C9B95
:10427000249E472B40F08D81F01C02DBB54280F27A
:10428000AB810A9B023B0A930A999DF8282021F0F2
:104290002001412908BF0F3206F1FF3306BFD2B219
:1042A00001210021002B2493B8BFC6F101038DF832
:1042B0009820B4BF2D222B22092B8DF8992040F392
:1042C0007E810DF1A7000A260246B3FBF6F506FB38
:1042D0001531303102F8011C1946632900F1FF3015
:1042E0002B46F1DC3033911E00F8013C0DF19905AD
:1042F0000B460DF1A7008342C0F05C810DF1A903CC
:104300009B1A814288BF00230DF19A021A4426AB02
:10431000D31A089A1C93012A03EB020502DC1BF056
:10432000010F01D0119B1D442BF48063002743F43F
:10433000807315930C973E46209B002B40F0938191
:104340000023DDF854B01493149BAB42B8BF2B4646
:1043500015939DF88B3013B1159B013315931BF00A
:10436000020320931EBF159B023315931BF0840399
:10437000219322D1129B159A9B1A002B17931CDDB7
:104380001798DDE92B231028A048206002F10102D4
:1043900004F1080100F39D82179860600344072A26
:1043A000CDE92B2340F3AA8207982AAA414600F0C0
:1043B00085FE002840F0DA852DAC9DF88B202C9BE3
:1043C0006AB10DF18B022260012213442C932B9BC6
:1043D00062601344072B2B9300F392820834209AD7
:1043E0002C9B62B123AA2260022213442C932B9BA4
:1043F00062600133072B2B9300F38C820834219BDE
:10440000802B22D1129B159A9B1A002B17931CDD2F
:104410001798DDE92B2310287D48206002F1010266
:1044200004F1080100F38082179860600344072AB2
:10443000CDE92B2340F38D8207982AAA414600F04C
:104440003DFE002840F092852DAC149B5B1B002B99
:1044500014931CDD1498DDE92B2310286C48206090
:1044600002F1010204F1080100F375821498606002
:104470000344072ACDE92B2340F3828207982AAA16
:10448000414600F01BFE002840F070852DAC2C9BAF
:1044900014931BF4807F40F07982C4E900A51D4489
:1044A0002C952B9B0133072B2B9300F3B5820834FB
:1044B0001BF0040F40F03C85DDE9122315998A4278
:1044C000ACBF9B185B1813932C9B3BB107982AAA8F
:1044D000414600F0F3FD002840F0488500232B936F
:1044E000B9F1000F40F05E850B9E2DACDDF840A0C9
:1044F00011E402F8010CA7E603F8010B7DE60C9B22
:10450000462B04D0452B1CD16E1C022301E02E4605
:10451000032328AA049225AA039224AACDE90162C2
:1045200000930798DDE9182301F046FF0C9B472B09
:10453000824619D11BF0010F05D1289BA3EB0A037A
:1045400094E62E46E1E78719DDE9180100220023F1
:10455000FCF732FC00B128973022289B9F42ECD90F
:10456000591C28911A70F8E70C9B462B00EB0607A4
:10457000EAD10378302B09D1DDE9180100220023AC
:10458000FCF71AFC10B9C6F101062496249B1F44BF
:10459000DAE70C9B462B7FF477AE0BF00103002E7D
:1045A00043EA050325DD7BB3119BF3181D44662305
:1045B0000A9332E013F8016B05F8016F9BE641B9ED
:1045C00030228DF89A200DF19B02303302F8013B26
:1045D0009DE60DF19A02F8E7089BB3420DDD089BBA
:1045E000119A002E03EB02050CDCC6F101031D44F9
:1045F00008E07BB1119B0133D8E71BF0010F1FD0FE
:10460000119BF5186723D3E73546D0E7447D0008B2
:10461000347D000866230A9301251BF480630C9304
:104620001FD00027002E0C977FF786AE0D9B1B78BE
:10463000FF2B07D10C9B169A3B4402FB03557BE6EC
:104640003546DFE7B342F5DAF61A0D9B5B7833B1F6
:104650000C9B01330C930D9B01330D93E6E701375F
:10466000E4E70C9F68E62D238DF88B3068E61BF09D
:10467000200F07D0139A33681399D217C3E9001299
:10468000043633E71BF0100F03D03368139A1A6017
:10469000F6E71BF0400F03D03368139A1A80EFE758
:1046A0001BF4007FF1D03368139A1A70E8E74BF0DF
:1046B000100B1BF020031ED0073626F007031A4606
:1046C0005F6852F8086B0B922BF4806B002300227A
:1046D0008DF88B206A1C00F07A842BF080020C92FB
:1046E00056EA070240F07984002D00F0DD80012BAE
:1046F00040F0768482E032461BF0100752F8046BDB
:104700000B9201D01F46DFE71BF0400301D0B6B289
:10471000DAE71BF40077D7D0F6B2F3E73346782216
:1047200053F8046B0B9347F63003ADF88C30954B80
:104730001D9300274BF0020B02230A92C7E7334672
:10474000691C53F804AB0B934FF000068DF88B6097
:104750000FD02A4631465046FBF7BAFE8146002864
:104760003FF47EACA0EB0A05B146149637460C9692
:10477000EAE55046FBF7A4FEB146054670E44BF06F
:10478000100B1BF0200309D0073626F007031A464A
:104790005F6852F8086B0B92012398E732461BF0D2
:1047A000100752F8046B0B9201D01F46F4E71BF080
:1047B000400301D0B6B2EFE71BF40077ECD0F6B2BD
:1047C000F3E7714BFFF73CBB32461BF0100752F882
:1047D000046B0B9202D01F46FFF73FBB1BF0400358
:1047E00002D0B6B2FFF739BB1BF400773FF435AB0C
:1047F000F6B2F0E70A2E77F1000307D23036F6B2B0
:104800008DF857610DF2571A00F006BC002308938B
:104810000C9B03F480630DF5AC7914930A220023FA
:1048200030463946FBF7D4FC303209F8012C089A9F
:1048300001320892149A83460B4609F1FF3AE2B11D
:104840000D9A08991278914217D1FF2915D00A2E96
:1048500077F1000211D30893169B1B99AAEB030A68
:104860001A46504601F04EFC0D9B5A78089B1AB12F
:104870000D9A01320D92002208920A2E77F100075C
:10488000C0F0CA835E461F46D146C7E706F00F0355
:104890001D9A3609D35C0AF8013D46EA07763F09BE
:1048A00056EA0703F2D1B7E323B91BF0010F01D099
:1048B0003026A5E70DF5AC7AAEE30A9B002B00F09D
:1048C00077838DF8F43000238DF88B300B96FFF74B
:1048D00059BB10200344072ACDE92B23606008DD73
:1048E00007982AAA414600F0E9FB002840F03E83E1
:1048F0002DA9179B103B17930C4641E50C465CE530
:1049000007982AAA414600F0D9FB002840F02E83E0
:104910002DAC64E507982AAA414600F0CFFB002899
:1049200040F024832DAC6AE510200344072ACDE92A
:104930002B23606008DD07982AAA414600F0BEFBE1
:10494000002840F013832DA9179B103B17930C46AA
:104950005EE50C4679E510200344072ACDE92B23B8
:10496000606008DD07982AAA414600F0A7FB0028EE
:1049700040F0FC822DA9149B103B14930C4669E572
:104980000C4684E5107D0008217D00080A9B652BFC
:1049900040F33282DDE90E0100220023FCF70CFA1D
:1049A000002869D06E4B236001236360149B0133A0
:1049B0002C932B9B0133072B2B9337DC0834249B40
:1049C000089A934203DB1BF0010F3FF471AD1A9B71
:1049D0002360119B119A63602C9B13442C932B9B97
:1049E0000133072B2B932BDC0834089B5D1E002D15
:1049F0007FF75EAD5B4E1027DDE92B32102D03F102
:104A0000010304F10801266024DC6560072B1544CE
:104A1000CDE92B3540F3898207982AAA414600F058
:104A20004DFB002840F0A2822DAC41E507982AAA50
:104A3000414600F043FB002840F098822DACBEE7D1
:104A400007982AAA414600F039FB002840F08E82E0
:104A50002DACCAE71032072BCDE92B32676008DD99
:104A600007982AAA414600F029FB002840F07E82E0
:104A70002DA9103D0C46BFE7249B002B74DC384B5E
:104A8000236001236360149B01332C932B9B013320
:104A9000072B2B933DDC08340899249B2C9A0B435D
:104AA0000BF001010B433FF403AD1A9B2360119BF4
:104AB00063601A442B9B2C920133072B2B9332DC1F
:104AC0000834249D002D1BDA264E6D422346102704
:104AD000DDE92B21102D02F1010204F108041E6012
:104AE0002BDC5D60072A0D44CDE92B2508DD0798F6
:104AF0002AAA414600F0E2FA002840F037822DACA5
:104B0000089B089A63602C9BC4F800A013442C9364
:104B1000C7E407982AAA414600F0D0FA002840F0DE
:104B200025822DACB8E707982AAA414600F0C6FABC
:104B3000002840F01B822DACC3E71031072ACDE9D5
:104B40002B215F6008DD07982AAA414600F0B6FADB
:104B5000002840F00B822DAC103D2346B8E700BF83
:104B6000327D0008347D0008089B53440A93089B5B
:104B7000B342A8BF3346002B1D460BDDC4E900A39A
:104B8000149B2B442C932B9B0133072B2B9300F36B
:104B900082800834002DACBF751B3546002D19DD11
:104BA000DDE92B3293482060102D03F1010304F15D
:104BB00008017ADC6560072B1544CDE92B3540F3FD
:104BC000878007982AAA414600F078FA002840F02A
:104BD000CD812DAC1BF4806F564408D00C9B002B6C
:104BE00078D1002F78D10A9B9E4228BF1E46249B75
:104BF000089A934202DB1BF0010F0ED01A9B236030
:104C0000119B119A63602C9B13442C932B9B0133B3
:104C1000072B2B9300F3DA800834089B249FDF1BBB
:104C20000A9B9B1B9F42A8BF1F46002F2C9B0ADD9F
:104C30003B442C932B9B0133072BC4E900672B9338
:104C400000F3CE800834249D089B002FA3EB0505BC
:104C5000A8BFED1B002D7FF72BAC664E1027DDE9BA
:104C60002B32102D03F1010304F1080126607FF7B8
:104C7000CCAE1032072BCDE92B32676008DD0798E8
:104C80002AAA414600F01AFA002840F06F812DA9A7
:104C9000103D0C46E3E707982AAA414600F00EFAB9
:104CA000002840F063812DAC74E710200244072BEC
:104CB000CDE92B32606008DD07982AAA414600F052
:104CC000FDF9002840F052812DA9103D0C4667E700
:104CD0000C467FE7002F49D0013F1B9B2360169BAA
:104CE000169A63602C9B13442C932B9B0133072B48
:104CF0002B9342DC08340D9B1A780A9B9B1B9A422B
:104D0000A8BF1A46002A2C9B924609DD13442C9317
:104D10002B9B0133072BC4E900622B9337DC08344B
:104D20000D9B1D78BAF1000FA8BFA5EB0A05002D59
:104D300018DDDDE92B322F482060102D03F101032F
:104D400004F108012DDC6560072B1544CDE92B35F6
:104D50003ADD07982AAA414600F0B0F9002840F051
:104D600005812DAC0D9B1B781E4437E70D9B013B45
:104D70000D930C9B013B0C93AFE707982AAA414681
:104D800000F09CF9002840F0F1802DACB3E70798C3
:104D90002AAA414600F092F9002840F0E7802DACA5
:104DA000BEE710200244072BCDE92B32606008DDFE
:104DB00007982AAA414600F081F9002840F0D680E1
:104DC0002DA9103D0C46B4E70C46CBE707982AAA5C
:104DD000414600F073F9002840F0C8802DAC1CE774
:104DE00007982AAA414600F069F9002840F0BE80E1
:104DF0002DAC28E7347D00080899149B2B9A0129D3
:104E000003F1010302F1010204F1080502DC1BF0C9
:104E1000010F7FD00121072ACDE92B23C4F800A080
:104E2000616008DD07982AAA414600F047F900288A
:104E300040F09C802DAD1A9B2B60119B119A6B60EA
:104E40002C9B13442C932B9B0133072B2B9332DC8D
:104E50000835089BDDE90E015C1E00220023DDE918
:104E60002B76FBF7A9FF00282ED10AF10103C5E933
:104E70000034089B0137013E1E44072FCDE92B76F5
:104E800051DD07982AAA414600F018F900286DD193
:104E90002DAD26AB2B601C9B1C9A6B602C9B134486
:104EA0002C932B9B0133072B2B933FF7B5AD05F1CB
:104EB0000804FFF7FDBA07982AAA414600F0FEF859
:104EC000002853D12DADC4E7089B012BE1DD594EDD
:104ED0001027DDE92B32102C03F1010305F1080145
:104EE0002E6007DC6C60072B1444CDE92B34C8DC42
:104EF0000D46CEE71032072BCDE92B326F6006DD71
:104F000007982AAA414600F0D9F878BB2DA9103C91
:104F10000D46DEE70121072ACDE92B23C4F800A0C6
:104F20006160B6DDADE70835B3E70C46FFF7C0BA00
:104F3000129B159A9D1A002D7FF7BEAA3E4E102790
:104F4000DDE92B32102D03F10103266018DC6560CA
:104F5000072B1544CDE92B357FF7AEAA07982AAA6F
:104F6000414600F0ABF800283FF4A6AAB9F1000FC3
:104F70003FF4A9A807984946FEF748FBFFF7A3B8F6
:104F80001032072BCDE92B32676002DC0834103D6C
:104F9000D6E707982AAA414600F090F80028E5D104
:104FA0002DACF4E707984946FEF730FBFFF79CBAB3
:104FB0002C9B1BB900232B93FFF785B807982AAACF
:104FC000414600F07BF80028F4D0FFF77CB856EAA1
:104FD0000702CDF830B03FF48AAB012B3FF40AACA6
:104FE000022B0DF5AC7A3FF451AC06F00703F6083E
:104FF00046EA4776FF08303356EA070152460AF878
:10500000013DF2D10C99C80706D5302B04D03023CE
:105010000AF8013CA2F1020A56ABDDF830B0149553
:105020004FF00009A3EB0A054F46CDF830904E46ED
:10503000FFF78AB9347D0008447D0008F0B51F46AB
:105040008B89ADF26C4D23F00203ADF80C304B6E42
:105050001993CB89ADF80E30CB6907934B6A09934E
:105060001AAB009304934FF48063154606460293EF
:10507000059316A800230C460693FEF75DFA2A4610
:105080003B4669463046FEF7C7FD051E07DB69460D
:10509000304600F0EBFD002818BF4FF0FF35BDF89B
:1050A0000C3016985B0642BFA38943F04003A381EE
:1050B000FEF743FA28460DF26C4DF0BD2DE9F84F8E
:1050C000936880460E46144643B34B6E9D0422D52A
:1050D0001568A068083528B90023A3600023636021
:1050E000BDE8F88F55E902B74FF000094FEA970A7B
:1050F000CA4505DCA36827F00307DB1BA360E8E7CC
:105100005BF829103246404600F0B9FF431CE3D05B
:1051100009F10109ECE700F0CFFDDDE71846DDE716
:105120002DE9F04FBBB00F4693461C461D4600903C
:1051300018B1436B0BB9FEF7ADF87B6EDB0705D4F6
:10514000BB899E0502D4B86DFEF7F8F9B7F90C30AB
:10515000980406D443F40053BB817B6E23F40053C0
:105160007B66BB89190701D53B69ABB90098394605
:1051700000F0EEFE80B17B6EDA0706D54FF0FF330C
:10518000039303983BB0BDE8F08FBB899B05F5D432
:10519000B86DFEF7D4F9F1E7B7F90C3003F01A0255
:1051A0000A2A14D1B7F90E20002A10DB7A6ED6072E
:1051B00004D49D0502D4B86DFEF7C1F900982346CA
:1051C0005A4639463BB0BDE8F04F00F035BC0023ED
:1051D000CDE90F33CDE9053311AE0E960793099350
:1051E00003935B461C4613F8012B0AB1252AF9D11B
:1051F000B4EB0B080DD0109B434410930F9B01336D
:10520000072BC6E900B80F9375DC0836039B4344AF
:1052100003932378002B00F0D18300234FF0FF325B
:10522000CDE9012301348DF833309A46A3461BF8AB
:10523000013BA3F120025A2A00F21683DFE812F0A4
:105240009A0014031403A20014031403140382002D
:1052500014031403A500AF001403AC00B100140341
:10526000CD00D000D000D000D000D000D000D000C1
:10527000D000D00014031403140314031403140304
:10528000140314031403F700040114031403140398
:10529000140314031403140314031403140352011A
:1052A0001403140314039A0114037A02140314035D
:1052B0009A021403140314031403140314031403B1
:1052C000140314031403F700060114031403140356
:1052D000E0000601F1001403EB0014033201540155
:1052E0008901F10014039A0198007C02140314034D
:1052F00065001403980000980EAA3946FFF7DEFEF9
:10530000002840F03A8311AE80E7994A05921AF0DE
:10531000200200F03182073525F00705A8466D68A8
:1053200058F8084B1AF0010F09D054EA05021FBFC4
:1053300030228DF834208DF835304AF0020A2AF4F4
:10534000806A12E1009800F0F7FE4368099318465E
:10535000FBF7B6F80790009800F0EEFE836806931E
:10536000079B2BB1069B1BB11B780BB14AF4806ADB
:105370005C465BE79DF83330002BF9D120238DF894
:105380003330F5E74AF0010AF2E755F8043B02939F
:10539000002BEDDA5B4202934AF0040AE8E72B2384
:1053A000EDE75A4612F8013B2A2B12D155F8043B7F
:1053B00043EAE37301939346DAE7019B00FB03138F
:1053C000019312F8013BA3F130010929F5D9934665
:1053D0002FE7002101910A20F5E74AF0800AC7E78C
:1053E00000215A4602910A200299303B00FB01330A
:1053F000029312F8013BA3F130010929F4D9E6E741
:105400009BF80030682B06BF0BF1010B4AF4007AC1
:105410004AF0400AACE79BF800306C2B04D10BF14A
:10542000010B4AF0200AA3E74AF0100AA0E7A846B9
:10543000002458F8043B8DF884308DF83340012364
:1054400001930DF18409ABE04AF0100A1AF0200F25
:1054500011D0073525F00705A8466D6858F8084BA8
:10546000002D06DA64424FF02D0365EB45058DF8FB
:105470003330012348E0A8461AF0100F58F8045BB7
:1054800002D02C46ED17EBE71AF0400F03D02CB2F8
:1054900045F3C035E4E71AF4007FF2D06CB245F36F
:1054A000C015DDE71AF0200F07D0039A2B68039987
:1054B000D217C3E90012043593E61AF0100F03D097
:1054C0002B68039A1A60F6E71AF0400F03D02B6896
:1054D000039A1A80EFE71AF4007FF1D02B68039A41
:1054E0001A70E8E74AF0100A1AF020031FD00735B7
:1054F00025F00705A8466D6858F8084B2AF4806A1D
:10550000002300228DF83320019A013200F06382DB
:105510002AF08002049254EA050240F06282019A65
:10552000002A00F09881012B40F05E823BE1A84602
:105530001AF0100558F8044B01D01D46DEE71AF0AA
:10554000400301D0A4B2D9E71AF40075D6D0E4B272
:10555000F3E7A84647F63003ADF8343058F8044B6B
:10556000034B059300254AF0020A0223C9E700BF56
:10557000107D0008019BA8465C1C4FF0000558F800
:10558000049B8DF8335000F0D0801A4629464846D7
:10559000FAF79EFF044618B1A0EB090301932C46CD
:1055A000019BA342B8BF234604939DF8333013B147
:1055B000049B013304931AF0020308931EBF049B5B
:1055C000023304931AF084030A931FD1029B049AB6
:1055D0009D1A002D1ADDA94B3360DDE90F21102D36
:1055E00002F1010206F1080000F34E817560072AFE
:1055F0000D44CDE90F2540F35C8100980EAA394691
:10560000FFF75CFD002840F0B88111AE9DF8331023
:10561000DDE90F3261B10DF1330101333160012158
:105620000A44072BCDE90F32716000F3448108363C
:105630000899DDE90F3259B10DA90133316002211A
:105640000A44072BCDE90F32716000F33D81083623
:105650000A9B802B1FD1029B049A9D1A002D1ADDF4
:10566000874B3360DDE90F21102D02F1010206F1B5
:10567000080000F332817560072A0D44CDE90F253B
:1056800040F3408100980EAA3946FFF717FD002825
:1056900040F0738111AE019BE41A002C1ADDDDE9A4
:1056A0000F3277483060102C03F1010306F1080136
:1056B00000F32A817460072B1444CDE90F3440F3C2
:1056C000348100980EAA3946FFF7F8FC002840F014
:1056D000548111AE019B019A7360109BC6F8009033
:1056E000134410930F9B0133072B0F9300F31F817B
:1056F00006F108031AF0040F40F02181DDE90223CE
:1057000004998A42ACBF9B185B180393109B3BB172
:1057100000980EAA3946FFF7D1FC002840F02D81F1
:1057200000230F93454611AE5BE54846FAF7C8FEE5
:10573000019034E74AF0100A1AF0200308D0073528
:1057400025F00705A8466D6858F8084B0123D8E6F0
:10575000A8461AF0100558F8044B01D01D46F5E78D
:105760001AF0400301D0A4B2F0E71AF40075EDD0AE
:10577000E4B2F3E7434AC9E5A8461AF0100558F821
:10578000044B01D01546CDE51AF0400201D0A4B279
:10579000C8E51AF400753FF4C5ADE4B2F2E70A2C8F
:1057A00075F1000306D23034E4B28DF8E7400DF114
:1057B000E70935E13AAB0893049B03F480634FF0AB
:1057C000000A0A930A22002320462946FAF700FD20
:1057D0000B4608990B90303201F8012C0A9A01F11E
:1057E000FF390AF1010AE2B1069A1278524518D13E
:1057F000BAF1FF0F15D00A2C75F1000211D30893EE
:10580000079B0999A9EB03091A46484600F07AFC60
:10581000069B5A78089B72B1069A013206924FF0A5
:10582000000A0A2C75F10005C0F0FA800B9CCDF837
:1058300020901D46C6E79246F3E704F00F03059A51
:105840002409D35C09F8013D44EA05742D0954EAA2
:105850000503F2D1E4E023B91AF0010F01D030249E
:10586000A3E70DF1E809DBE0002B00F0A78000249E
:105870008DF884308DF83340A846E0E5647D00085B
:10588000547D0008217D00084FF0100C6144072A68
:10589000CDE90F21C6F804C008DD00980EAA3946EC
:1058A000FFF70CFC002868D1614B11A8103D06469B
:1058B00092E60646AAE600980EAA3946FFF7FEFBD6
:1058C00000285AD111AEB3E600980EAA3946FFF768
:1058D000F5FB002851D111AEBAE64FF0100C61442F
:1058E000072ACDE90F21C6F804C008DD00980EAAEA
:1058F0003946FFF7E3FB00283FD14E4B11A8103D7E
:105900000646AEE60646C6E610200244072BCDE961
:105910000F32706006DD00980EAA3946FFF7CEFB05
:1059200058BB11A9103C0E46B9E60E46D2E60098C7
:105930000EAA3946FFF7C2FBF8B911ABDAE6029AB4
:105940000499541A002C7FF7D9AE394D1026DDE9A1
:105950000F21102C02F101021D601DDC5C60072A82
:105960000C44CDE90F247FF7C9AE00980EAA394642
:10597000FFF7A4FB00283FF4C1AE7B6ED90705D426
:10598000BB899A0502D4B86DFDF7D9FDBB895B06CA
:105990007FF5F7ABFFF7F2BB1031072ACDE90F21F6
:1059A0005E6002DC0833103CD1E700980EAA39464D
:1059B000FFF784FB0028E0D111ABF4E7109B13B98B
:1059C00000230F93D9E700980EAA3946FFF776FB1C
:1059D0000028F5D0D1E754EA0502CDF810A03FF435
:1059E000A2AD012B3FF4DBAE022B0DF1E8093FF431
:1059F00024AF04F00703E40844EA4574ED083033AB
:105A000054EA05014A4609F8013DF2D10499C80754
:105A100006D5302B04D0302309F8013CA2F102094D
:105A20003AABA3EB0903019CDDF810A00193B7E5A5
:105A3000647D0008547D0008F0B51F468B89ADF2E7
:105A40006C4D23F00203ADF80C304B6E1993CB89EB
:105A5000ADF80E30CB6907934B6A09931AAB0093EC
:105A600004934FF48063154606460293059316A8E7
:105A700000230C460693FDF75FFD2A463B46694628
:105A80003046FFF74DFB051E07DB6946304600F048
:105A9000EDF8002818BF4FF0FF35BDF80C30169810
:105AA0005B0642BFA38943F04003A381FDF745FD98
:105AB00028460DF26C4DF0BD70B505460C46B1B1EF
:105AC00018B1436B0BB9FDF7E5FB636EDE0705D438
:105AD000A389980502D4A06DFDF730FDB4F90C3010
